:100000000C94C6220C942E620C945F620C94906245
:100010000C94C4620C94F8620C9429630C945A6397
:100020000C948B630C94F0220C94F0220C94F0222C
:100030000C94E7640C94F0220C94F0220C94436529
:100040000C94F0220C94F0220C94F0220C94F022E8
:100050000C94F0220C94F0220C94F0220C941E6567
:100060000C94F0220C9458680C94F0220C94F0221A
:100070000C94F0220C94F0220C94F0220C94F022B8
:100080000C94F0220C94F0220C94F0220C94F022A8
:100090000C9499680C94F0220C94F0220C9403A414
:1000A0000C94F0220C94F0220C94F0220C94F02288
:1000B0000C94F0220C94F0220C94F0220C94F02278
:1000C0000C94F0220C94F0220C94F02267286A28F9
:1000D0006D2870287328762879287C287F28822824
:1000E000852888288B288E289128942897289A2854
:1000F0009D28A028A328A628A928AC282041234170
:10010000264129412C412F413241D853DF53E1533D
:10011000D153D353DA53E553E553E3538F5C8F5CEC
:100120008F5C8F5C8C5C8C5C935C935C935C935C6D
:10013000935C935C935C935C8C5C8C5C935C935C55
:10014000935C935C935C915C8F5C176219621B6299
:100150001D621F6224622162236278748774A67410
:10016000B574C474D374E27457756575737581750D
:1001700084759275A075AE75BC75CA75D875E6752F
:10018000F47502769C79B579CD79DE79E879027AD1
:100190006A7A658468846B8472847B8484848D84A9
:1001A0004CA65AA661A663A665A667A669A6362EC2
:1001B0002057616B6520757021210A0A0058585834
:1001C00058585858585858585858585858585858AF
:1001D000585858585858585858585858585858589F
:1001E000585858585858585858585858585858588F
:1001F000585858585858585858585858585858587F
:10020000585858585858585858585858585858586E
:10021000585858585858585858585858585858585E
:10022000585858585858585858585858585858584E
:10023000585858585858585858585858585858583E
:10024000585858585800352E20456E7465722064F1
:1002500065657020736C6565702E2E2E0063796362
:100260006C652074696D653D200054545454545499
:10027000545454545454545454545454545454543E
:10028000545454545454545454545454545454542E
:10029000545454545454545454545454545454541E
:1002A0005454545454545454545454542000545496
:1002B00054545454545454545454545454545454FE
:1002C00054545454545454545454545454545454EE
:1002D00054545454545454545454545454545454DE
:1002E00054545454545454545454545454545454CE
:1002F00020006C6F6F705F636F756E743A200076CC
:10030000767676767676767676767676767676768D
:10031000767676767676767676767676767676767D
:10032000767676767676767676767676767676766D
:10033000767676767676767676767676767676765D
:10034000767676767676767676767676767676764D
:10035000767676767676767676767676767676763D
:10036000767676767676767676767676767676762D
:10037000767676767676767676767676767676761D
:10038000767676007C7C7C7C7C7C7C7C7C7C7C7C3B
:100390007C7C7C7C7C7C7C7C7C7C7C7C7C7C7C7C9D
:1003A0007C7C7C7C7C7C7C7C7C7C7C7C7C7C7C7C8D
:1003B0007C7C7C7C7C7C7C7C7C7C7C7C7C7C7C7C7D
:1003C0007C7C7C7C7C7C7C7C7C7C7C7C7C7C7C7C6D
:1003D0007C7C7C7C7C7C7C7C7C7C7C7C7C7C7C7C5D
:1003E0007C7C7C7C7C7C7C7C7C7C7C7C7C7C7C7C4D
:1003F0007C7C7C7C7C7C7C7C7C7C7C7C7C7C7C7C3D
:100400007C7C7C7C7C7C7C7C005E5E5E5E5E5E5E7A
:100410005E5E5E5E5E5E5E5E5E5E5E5E5E5E5E5EFC
:100420005E5E5E5E5E5E5E5E5E5E5E5E5E5E5E5EEC
:100430005E5E5E5E5E5E5E5E5E5E5E5E5E5E5E5EDC
:100440005E5E5E5E5E5E5E5E5E5E5E5E5E5E5E5ECC
:100450005E5E5E5E5E5E5E5E5E5E5E5E5E5E5E5EBC
:100460005E5E5E5E5E5E5E5E5E5E5E5E5E5E5E5EAC
:100470005E5E5E5E5E5E5E5E5E5E5E5E5E5E5E5E9C
:100480005E5E5E5E5E5E5E5E5E5E5E5E5E007772BD
:10049000697465696E672069732068617665696E45
:1004A00067206572726F7273007772697465696E26
:1004B00067206973204F4B0066696C65204E4F546E
:1004C00020637265617465640066696C652063729F
:1004D00065617465640066696C65204E4F542064E4
:1004E000656C657465640066696C652064656C653F
:1004F00074656400576174657220587472656D6527
:100500002034470052455354415254494E470052FB
:100510004550524F4752414D4D494E47204F4B0099
:10052000524550524F4752414D4D494E472045523A
:10053000524F52002D2D2D2D2D2D2D2D2D2D2D2DAC
:100540002D2D2D2D2D2D2D2D2D2D2D2D2D2D2D2DDB
:100550002D0050726F6772616D2076657273696FDE
:100560006E3A200050726F6772616D2069643A20A4
:10057000002D2D2D2D2D2D2D2D2D2D2D2D2D2D2DD8
:100580002D2D2D2D2D2D2D2D2D2D2D2D2D2D0035C0
:100590002E20537769746368204F464620344720E5
:1005A0006D6F64756C65003447206D6F64756C65A4
:1005B000206E6F742073746172746564004F5441CF
:1005C0002072657175657374206661696C65642E4F
:1005D000204572726F7220636F64653A20003D3D62
:1005E0003E2052657175657374204F54412E2E2E36
:1005F00000312E203447206D6F64756C6520726564
:100600006164792E2E2E005354415254494E472096
:100610004F5441502056455253494F4E2043484570
:10062000434B00756E6B6E6F776E006572726F7202
:1006300020646F776E6C6F6164696E672062696EAB
:100640006172792066696C653A2073697A65206DFC
:1006500069736D61746368006572726F7220646F94
:10066000776E6C6F6164696E672062696E61727922
:100670002066696C653A206E6F206D6F726520721E
:100680006574726965732067657474696E67206448
:10069000617461006572726F7220646F776E6C6F47
:1006A0006164696E672062696E6172792066696C47
:1006B000653A206572726F722077726974696E672D
:1006C000205344006572726F7220646F776E6C6F96
:1006D0006164696E672062696E6172792066696C17
:1006E000653A207061636B65742073697A65206D6B
:1006F00069736D61746368006572726F7220646FF4
:10070000776E6C6F6164696E672062696E61727981
:100710002066696C653A206572726F722020676589
:100720007474696E67207061636B65742073697A95
:1007300065006572726F7220646F776E6C6F6164B2
:10074000696E672062696E6172792066696C653ACC
:10075000206572726F72206D6F64756C65207265B2
:100760007475726E73206572726F7220636F646548
:100770002061667465722072657175657374696E47
:10078000672064617461006572726F7220646F77B4
:100790006E6C6F6164696E672062696E6172792048
:1007A00066696C653A206572726F72206F70656E53
:1007B000696E67207468652047455420636F6E6ECC
:1007C000656374696F6E006572726F7220646F7713
:1007D0006E6C6F6164696E672062696E6172792008
:1007E00066696C653A206572726F72207365747405
:1007F000696E672074686520706F696E7465722019
:100800006F66207468652066696C65006572726F3A
:100810007220646F776E6C6F6164696E67206269C5
:100820006E6172792066696C653A206572726F72CA
:10083000206F70656E696E67207468652066696CEC
:1008400065006572726F7220646F776E6C6F6164A1
:10085000696E672062696E6172792066696C653ABB
:10086000206572726F72206372656174696E6720B1
:100870007468652066696C6520696E205344006564
:1008800072726F7220646F776E6C6F6164696E67ED
:100890002062696E6172792066696C653A20534402
:1008A000206E6F742070726573656E74006572726D
:1008B0006F7220646F776E6C6F6164696E6720621F
:1008C000696E6172792066696C653A20726561644F
:1008D000696E67207468652066696C652073697A43
:1008E00065006572726F7220646F776E6C6F616401
:1008F000696E672062696E6172792066696C653A1B
:10090000207365727665722066696C652073697AFA
:1009100065206973207A65726F0066696C65207363
:10092000697A6520646F6573206E6F74206D6174E1
:10093000636820696E20555047524144452E5458F3
:100940005420616E642073657276657200696E76FC
:10095000616C69642070726F6772616D2076657278
:1009600073696F6E206E756D626572006E6F202701
:1009700056455253494F4E27207061747465726E0C
:1009800020666F756E64006E6F202753495A4527A5
:10099000207061747465726E20666F756E64006E8F
:1009A0006F20275041544827207061747465726E1F
:1009B00020666F756E6400274E4F5F46494C452791
:1009C000206973207468652066696C656E616D6569
:1009D000006E6F202746494C45272070617474656E
:1009E000726E20666F756E640066696C656E616D0F
:1009F0006520697320646966666572656E7420742B
:100A00006F2037206279746573006572726F72208F
:100A10006F70656E696E67204654502073657373FE
:100A2000696F6E006572726F7220646F776E6C6FA3
:100A30006164696E6720555047524144452E5458B1
:100A400054005344206E6F742070726573656E7429
:100A500000322E20537769746368204F4646203455
:100A600047206D6F64756C65004572726F7220630C
:100A70006F64653A20003447206D6F64756C6520A3
:100A80006E6F7420737461727465640043555245CF
:100A90004E542054494D453A00312E203447206DA4
:100AA0006F64756C652072656164790053544152BE
:100AB00054204F4620544845205254432053454724
:100AC0004D454E54002000200020002000342E20F0
:100AD000537769746368204F4646203447206D6F12
:100AE00064756C65004572726F7220636F64653A5D
:100AF00020003447206D6F64756C65206E6F742024
:100B000073746172746564004661696C65642E205B
:100B10004572726F7220636F64653A2000446F6E95
:100B2000652E204854545020636F64653A2000536A
:100B3000656E64696E6720746865206672616D65B4
:100B40002E2E2E00312E203447206D6F64756C657B
:100B50002072656164792E2E2E00585858585858C6
:100B60005858585858585858585858585858585805
:100B700058585858585858585858585858585858F5
:100B800058585858585858585858585858585858E5
:100B900058585858585858585858585858585858D5
:100BA00058585858585858585858585858585858C5
:100BB00058585858585858585858585858585858B5
:100BC00058585858585858585858585858585858A5
:100BD0005858585858585858585858585858585895
:100BE000585800322E20537769746368204F464668
:100BF000203447206D6F64756C65004572726F72AA
:100C000020636F64653A20003447206D6F64756C13
:100C100065206E6F74207374617274656400312E88
:100C2000342E204572726F722063616C6C696E673E
:100C300020276765744F70657261746F7227206634
:100C4000756E6374696F6E00312E342E204F70659F
:100C50007261746F723A2000312E332E2045727209
:100C60006F722063616C6C696E6720276765744ED4
:100C70006574776F726B54797065272066756E6343
:100C800074696F6E00556E6B6E6F776E206F722099
:100C90006E6F742072656769737465726564004C69
:100CA0005445004853445041005743444D4100458A
:100CB00047505253004750525300312E332E204E8E
:100CC0006574776F726B20747970653A2000312EED
:100CD000322E204572726F722063616C6C696E6790
:100CE000202767657452535349272066756E6374D5
:100CF000696F6E002064426D00312E322E205253F7
:100D000053493A2000312E312E204D6F64756C65A9
:100D100020636F6E6E656374656420746F206E650A
:100D200074776F726B00312E203447206D6F6475BD
:100D30006C65207265616479005374617274696EC8
:100D40006720494E464F5F34475F4E455400585820
:100D50005858585858585858585858585858585813
:100D60005858585858585858585858585858585803
:100D700058585858585858585858585858585858F3
:100D800058585858585858585858585858585858E3
:100D900058585858585858585858585858585858D3
:100DA00058585858585858585858585858585858C3
:100DB00058585858585858585858585858585858B3
:100DC00058585858585858585858585858585858A3
:100DD00058585858585800585858585858585858EB
:100DE0005858585858585858585858585858585883
:100DF0005858585858585858585858585858585873
:100E00005858585858585858585858585858585862
:100E10005858585858585858585858585858585852
:100E20005858585858585858585858585858585842
:100E30005858585858585858585858585858585832
:100E40005858585858585858585858585858585822
:100E5000585858585858585858585858585858006A
:100E60003447206D6F64756C65206E6F74207374E9
:100E7000617274656400312E392E2054656D706581
:100E8000726174757265204552524F52002043655D
:100E90006C73697573206465677265657300312EC4
:100EA00039622E2054656D70657261747572653A91
:100EB0002000312E39612E2054656D706572617489
:100EC00075726520696E74657276616C3A200031C6
:100ED0002E382E2053686F772041504E3A00312E25
:100EE000372E204943434944204552524F52003146
:100EF0002E372E2049434349443A2000312E362EC6
:100F000020494D5349204552524F5200312E362E22
:100F100020494D53493A2000312E352E20494D4568
:100F200049204552524F5200312E352E20494D4511
:100F3000493A2000312E342E205265766973696F4C
:100F40006E206964656E74696669636174696F6E49
:100F5000204552524F5200312E342E205265766970
:100F600073696F6E206964656E7469666963617424
:100F7000696F6E3A2000312E332E204D6F64656C00
:100F8000206964656E74696669636174696F6E2057
:100F90004552524F5200312E332E204D6F64656CF6
:100FA000206964656E74696669636174696F6E3A1D
:100FB0002000312E322E204D616E7566616374758E
:100FC000726572206964656E7469666963617469CB
:100FD0006F6E204552524F5200312E322E204D61FD
:100FE0006E756661637475726572206964656E748E
:100FF000696669636174696F6E3A2000312E312E23
:1010000020486172647761726520726576697369E0
:101010006F6E204552524F5200312E312E204861C2
:10102000726477617265207265766973696F6E3A72
:1010300020003447206D6F64756C652072656164B3
:10104000790A0058585858585858585858585858A5
:101050005858585858585858585858585858585810
:101060005858585858585858585858585858585800
:1010700058585858585858585858585858585858F0
:1010800058585858585858585858585858585858E0
:1010900058585858585858585858585858585858D0
:1010A00058585858585858585858585858585858C0
:1010B00058585858585858585858585858585858B0
:1010C00058585858585858585858580074696D65A9
:1010D0003A200066696C65206372656174656420FE
:1010E00073696E636520697420776173206E6F7415
:1010F0002070726573656E742000736520766120C0
:10110000736372696520696E3A200073637269695E
:10111000746F72205344202000207673207573650D
:1011200072207361797320003A20617069207361C5
:10113000797320004572726F722073656E736F72DF
:1011400020747970652026206E6669656C64732052
:101150006D69736D6174636820666F7220696E6477
:10116000657820005B4652414D455D200020767336
:101170002075736572207361797320003A20617065
:1011800069207361797320004572726F72207365F4
:101190006E736F722074797065206D69736D617400
:1011A000636820666F7220696E64657820005B4614
:1011B00052414D455D200020767320003A200045C5
:1011C00072726F722073656E736F722074797065BE
:1011D000206D69736D6174636820666F7220696E3B
:1011E00064657820005B4652414D455D2000020257
:1011F00001020202010200000000020202020202D9
:1012000002020202020202020202020202020202BE
:1012100002020202020202020000000000000000BE
:1012200000000006000000000000000002000000B6
:10123000000000000404040002020102000000009B
:10124000000000000000000202020303030000008F
:10125000000000000000000000000000000000008E
:10126000000000000000000000000000000000007E
:101270000000000002020202020202020202020256
:10128000020202020202020202020202020202023E
:10129000020202020202020202020202020202022E
:1012A000020202020202020202020202020202021E
:1012B000020202020202020202020202020202020E
:1012C00002020202020202020202020202020202FE
:1012D00002020203030303010101010101010101F3
:1012E00001010101010101010101010101010101EE
:1012F00001010101010101010101010101010101DE
:1013000001010101010202030301010101010101C7
:1013100002010101010303010101030101010101B6
:1013200001010101020101010101010101010101AC
:10133000010101010101010101010101010101019D
:10134000010101010101010101010101010101018D
:10135000010101010101010101010101010101017D
:10136000010101010101010101010101010101016D
:10137000010101010101010101010101010101015D
:10138000010101010101010101010101010101014D
:10139000010101010101010101010101010101013D
:1013A000010101010101010101010101010101012D
:1013B000010101010101010101010101010101011D
:1013C0000101010101010101020202020202020205
:1013D00004040101020202020202020202020202EB
:1013E00002020202020202020202020202020202DD
:1013F00002020101010101010100000100020103DB
:1014000003030000010102010403000003030202C0
:1014100002040202020204010000000000000000B9
:1014200000020202020202000000000000000000B0
:1014300000000000000000000000000000000000AC
:101440000000000400000000000000000000020294
:10145000020202020202020202020202020202026C
:10146000020202020202020202020202020202025C
:10147000020202020202020202020202020202024C
:10148000020202020202020202020202020202023C
:10149000020202020202020202020202020202022C
:1014A000020202020202020202020202020202021C
:1014B0000202020202CD1AC81AC21ABB1AB61AB127
:1014C0001AAB1AA41A9E1A981A931A8E1A881A829C
:1014D0001A7C1A761A701A6B1A661A611A5C1A57F5
:1014E0001A521A4D1A481A431A3E1A391A341A2F28
:1014F0001A2A1A251A1F1A181A0F1A071A001AF987
:1015000019F219EC19E519DF19D619D019CA19C43D
:1015100019BD19B719B119AB19A5199F199B1997BD
:101520001992198E198B19871982197D19791975D4
:10153000196D19691962195E195D195C19581955E7
:101540001951194B19461941193E193B19371932CE
:10155000192E192B192A192919281927192619257D
:101560001924192319221919190F190B1906190110
:1015700019FC18FB18FA18F918F818F718F618F5E6
:1015800018F418F318F218F118F018EF18EE18ED17
:1015900018EC18EB18EA18E918E818E718E618E547
:1015A00018E418E318E218E118E018DC18DB18D684
:1015B00018D018CA18C718C618C518C418C318C236
:1015C00018BC18B618B018AA18A4189F189A18951D
:1015D0001890188B18861881187C18771872186D57
:1015E00018681863185E18591853184D1847184191
:1015F000183B18361831182C18271822181D1818DF
:101600001813180E1809180418FF17FA17F517F011
:1016100017EA17E417DE17D817D217CD17C817C364
:1016200017BE17B917B417AF17AA17A517A0179A9F
:101630001794178E17881782177C17761770176AFA
:101640001764175E17581752174C17461741173C67
:1016500017371732172D17271721171B1715170FB5
:10166000170A1705170017FB16F616F116EC16E702
:1016700016E216DD16D716D116CB16C516BF16B94B
:1016800016B316AD16A716A1169B1695168F1654EF
:1016900043375F44005443375F43005443375F424E
:1016A000005443375F41004449535F440044495369
:1016B0005F43004449535F42004449535F41005433
:1016C00046415F45005446415F44005446415F43F4
:1016D000005446415F42005446415F410053535F0E
:1016E000450053535F440053535F430053535F42DD
:1016F0000053535F410053425F450053425F440033
:1017000053425F430053425F420053425F410054E3
:1017100043365F45005443365F44005443365F43CD
:10172000005443365F42005443365F410043555FE7
:10173000450043555F440043555F430043555F42B6
:101740000043555F41005341315F45005341315FD4
:1017500044005341315F43005341315F42005341E4
:10176000315F4100434E315F4500434E315F4400DD
:10177000434E315F4300434E315F4200434E315F81
:1017800041005443355F45005443355F44005443A2
:10179000355F43005443355F42005443355F410099
:1017A000544D5F4500544D5F4400544D5F43005419
:1017B0004D5F4200544D5F4100544E5F4500544E12
:1017C0005F4400544E5F4300544E5F4200544E5FEE
:1017D00041005443345F45005443345F4400544354
:1017E000345F43005443345F42005443345F41004C
:1017F00054445F450054445F440054445F430054E4
:10180000445F420054445F410053415F45005341EF
:101810005F440053415F430053415F420053415FC7
:101820004100434E5F4500434E5F4400434E5F43DB
:1018300000434E5F4200434E5F41005443335F45D7
:10184000005443335F44005443335F4300544333F5
:101850005F42005443335F4100504D5F4500504D9F
:101860005F4400504D5F4300504D5F4200504D5F5C
:10187000410052585F450052585F440052585F4340
:101880000052585F420052585F410050485F450087
:1018900050485F440050485F430050485F4200504A
:1018A000485F41005443325F45005443325F440077
:1018B0005443325F43005443325F42005443325F2B
:1018C0004100000000000050530056424F4F5400AA
:1018D0005650524F4700564150490000545354004F
:1018E00000000000000000000000000000000000F8
:1018F00000000000000000000000000050444F50B5
:101900000056444F500048444F5000414C5400434F
:101910004F555253455F4F470053504545445F4F25
:1019200047000000000000000000005553004C5527
:101930005800505245530048554D005446005443FA
:10194000005041525400504D313000504D325F35FF
:1019500000504D310052420055494400000053549C
:1019600052004D494C4C49530041434300494E5F9E
:1019700054454D500052414D00474D540054494D7F
:10198000450044415445004E4944004E41004D41FC
:1019900043005253534900475053004241540043BF
:1019A000425F46500043425F54500043425F464C02
:1019B0000043425F46520043425F56530043425F3A
:1019C00052504D004D425F4952004D425F48520017
:1019D0004D425F4449004D425F434F494C530045DF
:1019E0004D5F544300454D5F48444F00454D5F43B4
:1019F0004C00454D5F4E4F3300454D5F4E4834001F
:101A0000454D5F43484C00454D5F434F4E440045B4
:101A10004D5F444550544800454D5F4F525000457E
:101A20004D5F5048004F505F45004F505F44004F9E
:101A3000505F43004F505F42004F505F41004F4D99
:101A40005F45004F4D5F44004F4D5F43004F4D5F7A
:101A500042004F4D5F41004F535F45004F535F447D
:101A6000004F535F43004F535F42004F535F4100AD
:101A70005443315F45005443315F44005443315F68
:101A800043005443315F42005443315F410055539A
:101A90005F440055535F41004C55585F44004C551E
:101AA000585F4100505245535F440048554D5F44D4
:101AB0000054465F440054435F4400505245535F16
:101AC000410048554D5F410054465F410054435F1B
:101AD00041000202010202020102000000000402B1
:101AE00002020202020202020202020303030303D1
:101AF00004040404030303030303030300000000BE
:101B000000000000000000060000000000000000CF
:101B100002000000000000000404040002020102B0
:101B200000000000000000000000000202020303A9
:101B3000030000000101010200000000000000009D
:101B40000000000000000000000000000000000095
:101B50000000000000000000030303030101010175
:101B60000404040402020202000000000202020255
:101B70000202020202020202010101010303030345
:101B80000101010101010101020202020101010141
:101B90000101010103030303030303030202020221
:101BA0000101010100000202000200030300000025
:101BB0000000000001000002000000000000000121
:101BC0000101000101020101000002020200000007
:101BD00002000101010101010101010101010101F5
:101BE00001010101010101010101010101010101E5
:101BF00001010101010101010101010102020303CF
:101C000001010101010101020101010103030101BF
:101C100001030101010101010101010201010101B1
:101C200001010101010101010101010101010101A4
:101C30000101010101010101010101010101010194
:101C40000101010101010101010101010101010184
:101C50000101010101010101010101010101010174
:101C60000101010101010101010101010101010164
:101C70000101010101010101010101010101010154
:101C80000101010101010101010101010101010144
:101C90000101010101010101010101010101010134
:101CA0000101010101010101010101010101010124
:101CB0000101010101010101010101010101010114
:101CC0000101010101010101010101010101010104
:101CD00001010202020202020202040401010202E4
:101CE00002020202020202020202020202020202D4
:101CF00002020202020202020202020201010101C8
:101D000001010100000100020103030300000101C1
:101D100002010403000003030202020402020202A1
:101D200004010000000000000000000202020202A4
:101D30000201010102020202000000000000000096
:101D4000000000000000000000000000000400008F
:101D50000000000000000000020202020202020273
:101D60000202020202020202020202020202020253
:101D70000202020202020202020202020202020243
:101D80000202020202020202020202020202020233
:101D90000202020202020202020202020202020223
:101DA0000202020201010202010203020200010119
:101DB00001020202020301020303030303030302FD
:101DC00002020102020202020201020202010301F6
:101DD0000203A624A1249B2494248F248A248424EF
:101DE0007D24772471246C24672464245F245A247E
:101DF000552450244A2444243E24382433242E24B9
:101E00002924242421241E241B2415240F240924DE
:101E10000324FD23F723F123EB23E523DF23D92339
:101E2000D323CD23C723BE23B823B223AC23A523BA
:101E30009F23992393238D23872383237F237A232F
:101E4000762373236F236A23652361235D23552340
:101E500051234A2346234523442340233D2339234A
:101E600033232E232923262323231F231A23162338
:101E700013231223112310230F230E230D230C23CE
:101E80000B230A230123F722F322EE22E922E42284
:101E9000E022D822D022CC22C822C422C022BC22D6
:101EA000BB22BA22B922B822B722B622B522B42266
:101EB000B322B222B122B022AF22AE22AD22AC2296
:101EC000AB22AA22A922A822A422A3229E229822DF
:101ED00092228F228E228D228C228B228A22852290
:101EE00080227B22762270226A2264225E2258227D
:101EF00052224C22462240223A2234222E222822EA
:101F000022221C22162210220A220422FE21F8215B
:101F1000F221EC21E621E021DA21D421CE21C821D1
:101F2000C221BC21B621B121AC21A721A2219C2133
:101F3000962190218A21852180217B217621712182
:101F40006C21672162215D21582153214E214821B6
:101F500042213C21362130212A2124211E21192110
:101F600014210F210A210421FE20F820F220EC2068
:101F7000E620E020DA20D720D320D020CC20C720B4
:101F8000C220BE20BB20B820B420B020AB20A620A9
:101F9000A320A0209D209920962090208920822097
:101FA0007B2075206F20692063205D2055204B2009
:101FB00042203C2035202F20292023201C201620C1
:101FC00010200820FF1FF71FEE1FE61FE01FD91F7C
:101FD000D21F4750535F5354004750535F53500034
:101FE0004750535F48004750535F4C4F43004750A2
:101FF000535F47444952004750535F47535000478F
:1020000050535F41435350004750535F4353500078
:1020100048495F57530057435F5753005742545F37
:1020200057530041445F57530041485F57530044A2
:10203000505F57530054454D5F57530052485F5708
:10204000530050524553535F57530050524553531A
:102050004C5F575300505245535F57530054415FF4
:10206000575300544E5F57530054435F575300502B
:10207000535F57530053545F575300534E545F57A9
:1020800053005352545F5753005353485F57530004
:1020900053525F57530053540053564F005A4F004A
:1020A000595400585400434D505300414357440085
:1020B0004357440050535400504900505400575364
:1020C000530041574753004157474400415753007D
:1020D000575300415744005744005443375F44006E
:1020E0005443375F43005443375F42005443375FE4
:1020F00041004450335F44004450335F4300445038
:10210000335F42004450335F41004C545F44004C05
:10211000545F43004C545F42004C545F41004254B2
:10212000325F44004254325F43004254325F420007
:102130004254325F41005443365F44005443365F9B
:1021400043005443365F42005443365F41005750CA
:102150005F440057505F430057505F420057505F45
:10216000410041505F440041505F430041505F4295
:102170000041505F410052485F440052485F4300B5
:1021800052485F420052485F41005443355F44006B
:102190005443355F43005443355F42005443355F39
:1021A000410056505F440056505F430056505F4216
:1021B0000056505F41005443345F44005443345F41
:1021C00043005443345F42005443345F410045436D
:1021D000325F44004543325F43004543325F420073
:1021E0004543325F41004450325F44004450325F07
:1021F00043004450325F42004450325F4100544338
:10220000335F44005443335F43005443335F420021
:102210005443335F41004543315F44004543315FE0
:1022200043004543315F42004543315F4100445024
:10223000315F44004450315F43004450315F4200FD
:102240004450315F41004D56325F44004D56325F7D
:1022500043004D56325F42004D56325F41005443B9
:10226000325F44005443325F43005443325F4200C4
:102270005443325F4100434F5F4400434F5F43008C
:10228000434F5F4200434F5F410000000000005099
:10229000530056424F4F54005650524F470056413C
:1022A000504900005453540000000000000000009A
:1022B0000000000000000000000000004E434E003F
:1022C0005053480057535000505443004554430066
:1022D0005343325F524144005343315F5241440003
:1022E0005241440050444F500056444F500048441F
:1022F0004F5000414C5400434F555253455F4F4798
:102300000053504545445F4F470000000000000067
:102310000000005553004C5558005052455300489A
:10232000554D005446005443005041525400504D06
:10233000313000504D325F3500504D310052420077
:10234000554944000000535452004D494C4C4953E8
:102350000041434300494E5F54454D500052414DAA
:1023600000474D540054494D450044415445004EEA
:102370004944004E41004D414300525353490047E8
:102380005053004241540043425F46500043425F75
:1023900054500043425F464C0043425F4652004364
:1023A000425F56530043425F52504D004D425F49D9
:1023B00052004D425F4852004D425F4449004D4239
:1023C0005F434F494C53004254315F440042543103
:1023D0005F43004254315F42004254315F41004D3F
:1023E00056315F44004D56315F43004D56315F42D8
:1023F000004D56315F41005443315F440054433136
:102400005F43005443315F42005443315F41004316
:1024100055525F42004355525F46004644005344C4
:102420000054440055565F460055565F45005556CA
:102430005F430055565F42005041525F4600504195
:10244000525F45005041525F43005041525F42008D
:1024500053525F460053525F450053525F4300534F
:10246000525F42004C570055535F440055535F4143
:10247000004C55585F44004C55585F410050524540
:10248000535F440048554D5F440054465F44005438
:10249000435F4400505245535F410048554D5F41F2
:1024A0000054465F410054435F41000303030303AC
:1024B00003030303030303030303030303030303EC
:1024C00002000000000000000003030303030300F8
:1024D00000000003000000000000000000000000F9
:1024E00006000000000000000002000000000000E4
:1024F00000040404000202010200000000000000C9
:1025000000000000020202030303000000000003B9
:10251000030303030303030303030303030303038B
:10252000030303030303000000000000060203018D
:10253000010201020203030000000000000000008D
:10254000000202020202030200020202020203036C
:102550000302020200020103000003030303000060
:102560000000000000000000000000000202020065
:10257000000200010101010101010101010101014C
:10258000010101010101010101010101010101013B
:10259000010101010101010101010101010101012B
:1025A0000101010101010101020101010103030116
:1025B0000101030101010101010101010201010108
:1025C00001010101010101010101010101010101FB
:1025D00001010101010101010101010101010101EB
:1025E00001010101010101010101010101010101DB
:1025F00001010101010101010101010101010101CB
:1026000001010101010101010101010101010101BA
:1026100001010101010101010101010101010101AA
:102620000101010101010102020303010101010194
:102630000118100801010101010101020202020258
:10264000020202020202020202020202020202026A
:10265000020000000000000000020202020202006C
:102660000000000200000000000000000000000068
:102670000201030303000001010201040303030339
:102680000302020204020202020401000000000030
:10269000000000000202020202020000000000022C
:1026A000020202020202020202020202020202020A
:1026B0000202020200000400000000000202020206
:1026C00002020202020202000000000000000000FC
:1026D00000020202020202020002020202020202DE
:1026E00002020202000202020000020202020001D3
:1026F00001010101010100000101010102020204C6
:10270000040200D32BCF2BCC2BC82BC52BC12BBD48
:102710002BB92BB52BB12BAE2BAA2BA72BA32B9F01
:102720002B9C2B982B942B902B8C2B882B822B81E2
:102730002B802B7F2B7E2B7D2B7C2B7B2B7A2B7561
:102740002B702B6B2B6A2B692B642B632B622B61F9
:102750002B602B5D2B592B562B532B4E2B4A2B4585
:102760002B402B3B2B362B312B302B2C2B282B2388
:102770002B1F2B1C2B182B132B0E2B0A2B062BFE7F
:102780002AFA2AF32AEF2AEE2AED2AE92AE62AE291
:102790002ADC2AD72AD22ACF2ACC2AC82AC32ABF7F
:1027A0002ABC2ABB2ABA2AB92AB82AB72AB62AB515
:1027B0002AB42AB32AAA2AA02A9C2A972A922A8DC6
:1027C0002A8C2A8B2A8A2A892A882A822A7C2A7693
:1027D0002A6F2A692A632A5D2A572A502A4A2A44DC
:1027E0002A3E2A382A312A292A242A1E2A182A125D
:1027F0002A0C2A062A052A042A002AFF29FA29F483
:1028000029EE29EB29E729E429E029DD29D829D572
:1028100029D029CB29C629C029BA29B929B829B76D
:1028200029B629B529B429B329B229B129B029AAD1
:1028300029A4299E29972990298D298929862981CA
:10284000297C297729732970296D296A29672960CC
:10285000295929522951294D2948294429432942D6
:10286000293C29362930292A29292920291A2914DD
:10287000290E2907290129FB28F528EF28E928E254
:1028800028DA28D228CA28C328BA28B228A4289A25
:10289000289328524553554C5400544852455348A8
:1028A0004F4C440046455645525F434F554E5445A4
:1028B0005200434F554E5445520053493442315F04
:1028C0005443004149525F544300555345525F54AD
:1028D0004300504D5F42494E4800504D5F42494EC3
:1028E0004C00504D5F42494E0043425F465000430A
:1028F000425F54500043425F464C0043425F4652A1
:102900000043425F56530043425F52504D004D42D8
:102910005F4952004D425F4852004D425F444900BA
:102920004D425F434F494C5300004355525F4400B2
:102930004355525F43004355525F42004355525F37
:10294000410000004C554D0048554D420054434253
:102950000000534F494C5F4500534F494C5F4300C3
:10296000534F494C5F4200464400534400544400D6
:1029700055560050415200504C563300504C563280
:1029800000504C563100575600414E45004C570000
:10299000534F494C544600534F494C544300534FF6
:1029A000494C3300534F494C3200534F494C31008E
:1029B000000000000000000000004F52505F450082
:1029C0004F52505F410050485F450050485F410002
:1029D0005455524200575400434F4E4400444F0058
:1029E0004F5250005048005241440050530056424C
:1029F0004F4F54005650524F470056415049000027
:102A00005453540000005357495F44005357495FE3
:102A100043005357495F42005357495F41005357A2
:102A2000494E41005357494B00535749434C4F348B
:102A3000005357494E4F32005357494D47005357A3
:102A4000494C4900535749504800535749414700A2
:102A50005357494E483400535749494F005357493B
:102A6000435500535749434C005357494252005372
:102A700057494E4F33005357494642005357494632
:102A80004C00535749434100000000000050444FA0
:102A9000500056444F500048444F5000414C5400A1
:102AA000434F555253455F4F470053504545445F90
:102AB0004F47000000000000000000005553004C8C
:102AC000555800505245530048554D005446005447
:102AD00043005041525400504D313000504D325F50
:102AE0003500504D3100524200554944000000531A
:102AF0005452004D494C4C49530041434300494E08
:102B00005F54454D500052414D00474D54005449CB
:102B10004D450044415445004E4944004E41004D4E
:102B2000414300525353490047505300424154001F
:102B30000045565F450045565F440045565F4300DB
:102B400045565F4100524F55540052494E0048418E
:102B50004C4C004C4C004C50005049520057460021
:102B60000000000047505F4600000047505F4300F0
:102B700047505F420047505F4100000000000000E6
:102B800000004E4F49534500534F32005048330028
:102B900048434E0048434C004832530048320045F9
:102BA000544F00434C32004E4F00564F4300535693
:102BB0000041503200415031004C5047004E4F32DE
:102BC000004E4833004F3300434834004F32004337
:102BD0004F3200434F0003030303030303030303C4
:102BE00003030202010203030000000003000300CC
:102BF00000030303020000020201020203020203B7
:102C000003030200020602030303000600000000A3
:102C100000000000020000000000000002030101AB
:102C2000020303030303030303030300000003027F
:102C30000202030303000202020202020202020273
:102C40000202020303030000000000000000000372
:102C50000300010000000303030303030303030352
:102C6000030303030303030202000202000404043B
:102C7000000303030303030303030303020202032A
:102C80000303000001010101010101010101010132
:102C90000101010101010101010101010101010124
:102CA0000101010301010101010101010101010112
:102CB00001010101010101010102010101010303FF
:102CC00001010103010101010101010101010101F2
:102CD00001010101010101010101030301010101E0
:102CE00001010101010101010101010101010101D4
:102CF00001010101010101010101010101010101C4
:102D000001010101010101010101010101010101B3
:102D100001010101010101010101010101010201A2
:102D20000101010101010101010101010101010193
:102D3000181002020202020202020202020202024F
:102D40000202020200000000020002000002020271
:102D50000201000202020202020202020202020058
:102D60000202020202020002010303030000010149
:102D7000020104030303030302020202020202022D
:102D80000202020202020200000004020202020227
:102D90000200020202020202020202020202020215
:102DA0000202000000000000000000020204020015
:102DB00000000202020202020202020202020202F7
:102DC00002020202020202020202020202020202E3
:102DD00002020202020202020202020202020101D5
:102DE000BF32BB32B832B432B032AC32A832A432C5
:102DF000A1329D329A32963292328E3289328632A6
:102E000083327E327A32753272326F326B3267328F
:102E1000643260325C325832553250324D324A326E
:102E2000473243323F323A3234322F322C32283258
:102E3000253222321F321C321832153211320D3235
:102E40000A32073204320132FD31F931F431F03106
:102E5000ED31E931E431DF31DB31D731CF31CB3105
:102E6000C431C031BC31B631B231AF31AC31A8312F
:102E7000A531A0319D31983193318F318A3185311F
:102E800081317B31773171316B3164315E31583151
:102E900054314B3141313D31383133312E312A31CA
:102EA000253120311B3114310D310631FF30F9301D
:102EB000F330ED30E930E230DC30D630D030CA309B
:102EC000C530C030BB30B630B130AC30A5309E30EC
:102ED000973092308D30893084307F307930733044
:102EE0006C3066305F30593052304B3044303D30BA
:102EF000373030302A3023301C3015300F30083056
:102F00000230FC2FF52FED2FE62FDF2FD92FD12FF9
:102F1000C72FBE2FB52FAF2FA92FA32F9D2F972FD0
:102F2000912F8B2F852F7F2F792F732F6E2F692F46
:102F3000642F5E2F582F522F472F3C2F4F50435F47
:102F40004E325F42494E004F50435F4E335F42491D
:102F50004E004F52505F43004F52505F42004F525D
:102F6000505F410050485F430050485F4200504866
:102F70005F41005357495048005357494147005358
:102F80005749504200535749494F005357494355F9
:102F900000535749434C0053574942520053574935
:102FA0004E4F00535749464200535749464C005331
:102FB00057494341004F50435F50415254004F50D6
:102FC000435F504D3130004F50435F504D325F35BD
:102FD000004F50435F504D31004F50435F50004F02
:102FE00050435F5446004F50435F54430047505F87
:102FF000505245530047505F48554D0047505F546D
:10300000460047505F54430047505F434F320047EC
:10301000505F4F330047505F4348340047505F5381
:103020004F320047505F5048330047505F4F3200E7
:1030300047505F4E4F320047505F4E4F0047505F42
:103040004E48330047505F48434E0047505F484367
:103050004C0047505F4832530047505F48320047AA
:10306000505F45544F0047505F434F0047505F4308
:103070004C320056424F4F54005650524F47005664
:103080004150490054555242005453540057465F32
:10309000450057465F430048414C4C5F460048415D
:1030A0004C4C5F450048414C4C5F44004C4C5F46E3
:1030B000004C4C5F45004C4C5F44004C505F460058
:1030C0004C505F45004C505F44004C554D5F4600EE
:1030D0004C554D5F45004C554D5F440055535F3591
:1030E000560055535F3356330054434300534F4902
:1030F0004C3300534F494C3200534F494C3100532D
:103100004F494C5F4600534F494C5F4500534F4970
:103110004C5F4400534F494C5F4300504C563300C2
:10312000504C563200504C56310046534D005044DE
:103130004F500056444F500048444F5000414C54AB
:1031400000434F555253455F4F4700535045454448
:103150005F4F47004C555800444D5F535000444D5D
:103160005F53540054585F5057520044494E4F33F8
:103170000044494D47320044494B004449435532CD
:10318000004449490044494252004449434C0044E8
:10319000494600444943410044494E4100575400C8
:1031A000434F4E4400444F004F525000504800528D
:1031B0004200554944004D57494649004D4254008C
:1031C000535452004D494C4C49530041434300492C
:1031D0004E5F54454D500052414D00474D540054F0
:1031E000494D450044415445004E4944004E41007C
:1031F0004D414300525353490047505300424154FC
:10320000004446004C430057460043550052414499
:1032100000504C5600575600414E4500464400535E
:103220004400544400555600504152004C5700533E
:103230004F494C00534F494C540048554D4200549F
:10324000464200544342005053004D46005553003F
:1032500044555354004C44004350470043444700F6
:103260004D435000535400504952004C554D004CB2
:103270004C004C500048414C4C00564252004245D4
:103280004E440050570050410048554D41005446AF
:10329000410054434100564F43004F33004E4F32DC
:1032A0000053560041503200415031004E48330027
:1032B0004C504700434834004F3200434F320043E4
:1032C0004F002A2A2A2A2A2A2A2A2A2A2A2A2A2A63
:1032D0002A2A2A2A2A2A2A2A2A2A2A2A2A2A2A0078
:1032E00050415353574F52443A20004C4F47494E98
:1032F0003A200041504E3A20002A2A2A2A2A2A2A15
:103300002A2A2A2A2A2A2A2A2A2A2A2A2A2A2A2A1D
:103310002A2A2A2A2A2A0046333E33383332332CCB
:1033200033233356455253494F4E3A0053495A4579
:103330003A00504154483A0046494C453A004E4FF5
:103340005F46494C45002F555047524144452E5445
:10335000585400643457344534323424341234031E
:1033600034FB33EC33DB33C933C533BA33AF339E6D
:103370003393338733773341542346545043574470
:103380003D222573220D004154234654504C49538D
:10339000540D004154234654505057440D0041549D
:1033A0002346545044454C453D222573220D0023AD
:1033B000465450524543563A20004E4F2043415206
:1033C00052494552002B2B2B00234654504745545D
:1033D000504B543A2025732C302C00415423465432
:1033E000504150504558543D25750D0041542346D9
:1033F0005450474554504B543F0D00234654504DB4
:10340000534700415423465450524543563D257579
:103410000D004154234654504653495A453D2225F8
:1034200073220D00415423465450545950453D30A9
:103430000D00415423465450474554504B543D22AF
:103440002573220D004154234654505055543D22BB
:103450002573222C300D00415423465450434C4FC9
:1034600053450D004154234654504F50454E3D2284
:1034700025733A2575222C222573222C22257322AE
:103480002C25750D0068355235363528351635FC36
:1034900034F534D334C834AF349B346D756C7469EF
:1034A000706172742F666F726D2D6461746100615A
:1034B00070706C69636174696F6E2F6F637465748B
:1034C0002D73747265616D00746578742F706C6112
:1034D000696E006170706C69636174696F6E2F78DA
:1034E0002D7777772D666F726D2D75726C656E63B3
:1034F0006F646564006672616D653D002F67657479
:10350000706F73745F6672616D655F706172736511
:10351000722E7068700041542348545450524356E0
:103520003D25752C25750D00234854545052494EA5
:10353000473A20302C0041542348545450534E44B1
:103540003D302C25752C222573222C25752C2573B6
:103550000D00415423485454505152593D302C25AC
:10356000752C222573220D00415423485454504396
:1035700046473D302C222573222C25750D00DC3763
:10358000D237C737BC37B037A03791378B377D3745
:10359000713765375B37513748373F3736372D3707
:1035A00024371B3710370A37FF36F936F136E7363E
:1035B000DD36D336CB36C336AB36A13695368C36B0
:1035C000803672363F3629361D36113609360136B9
:1035D000F635EB35E135D8354154235348444E0D8B
:1035E0000041542B575334363F0D002B4345524571
:1035F000473A20302C0041542B43455245473F0D5C
:10360000002B434D47523A20002B434D474C3A2064
:103610000041542B575334363D25750D004154233A
:1036200053413D25752C310D0041542B434D474CE2
:103630003D2252454320554E52454144220D00251E
:1036400032686875252A632532686875252A6325DE
:1036500032686875252A632532686875252A6325CE
:1036600032686875252A632532686875256868643C
:10367000220041542350534E543F3A202C0D0A004F
:1036800041542B4353510D0A3A202C002B49503AF8
:1036900020220D0A00415423475052533D25750DF9
:1036A0000041542573222573220D0041542B4347BA
:1036B00044434F4E543D312C224950222C22257335
:1036C000220D00475052533A203000475052533A8F
:1036D000203100415423475052533F0D0041542B99
:1036E00043434C4B3F0D0041542B434F50533F0D30
:1036F000005352494E473A20002B434D5449004154
:1037000054234E49545A3D370D00415445300D0065
:1037100041542B434D45453D310D00415423434316
:1037200049440D0041542343494D490D0041542360
:103730004347534E0D0041542343474D520D004122
:10374000542343474D4D0D0041542343474D490DEC
:103750000041542348575245560D004154235053BD
:103760004E543F0D0041542B4353510D0A3A202C27
:10377000002354454D504D4541533A2000415423B8
:1037800054454D504D4F4E3D310D0023475052533F
:103790000041542350415353573D222573220D00BD
:1037A0004154235553455249443D222573220D006F
:1037B0002B434744434F4E543D312C002B4347523B
:1037C00045473A20302C0041542B43475245473F50
:1037D0000D002B435245473A20302C0041542B43D7
:1037E0005245473F0D004D455335005B5854525DDF
:1037F00020005B5854525D2000433445005B585410
:10380000525D20005B5854525D200050484548549A
:10381000005B5854525D20005B5854525D20004FAD
:1038200050544F44005B5854525D20005B58545232
:103830005D20005665676150756C7320433231001E
:103840005B5854525D20005B5854525D2000574134
:10385000524E494E47202D20506F737369626C653C
:10386000206F76657263757272656E742C203132CA
:1038700056206973204F4E20696E20616C6C207455
:10388000686520736F636B657473005B5854525D99
:103890002000784077407640754074407340424045
:1038A000FE3FFD3FFC3FEF3FAE3F903F603F183F84
:1038B000DC3E973E4C3EFE3D9B3D323DBA3C483C93
:1038C000473CE73B933B183B973A073A7D39FC3836
:1038D000D238257320257320257320257320257366
:1038E0002025732025732025732025732025732020
:1038F000257320257320257320257300256320253B
:1039000064202573202564202564202573202564E8
:1039100020257320256420257320257320257320FE
:1039200025732025642025732025732025732025E9
:10393000642025732025732025732025732025738B
:1039400020257320257320257320257320257320BF
:1039500025732025732025732025732025732025AA
:10396000732025732025732025732025732025645B
:1039700020257320256420257320257300256320CE
:1039800025642025732025642025642025732025A7
:10399000642025732025642025732025732025733A
:1039A000202573202564202573202573202573206E
:1039B0002573202573202563202564202573202569
:1039C00073202573202573202573202573202573EC
:1039D000202573202573202573202573202573202F
:1039E000257320257320257320257320257320251A
:1039F00073202573202573202564202573202564DA
:103A0000202573202573002563202564202573203D
:103A10002564202564202573202564202573202516
:103A200064202573202573202573202573202564A9
:103A300020257320257320257320257320257320CE
:103A400025632025642025732025732025732025D8
:103A5000732025732025732025732025732025735B
:103A6000202573202573202573202573202573209E
:103A70002573202573202573202573202573202589
:103A80007320257320257320256420257320256449
:103A900020257320257300256320256420257320AD
:103AA0002564202564202573202564202573202586
:103AB0006420257320257320257320257320256419
:103AC000202573202573202573202564202573204D
:103AD0002573202573202573202573202573202529
:103AE00073202573202573202573202573202573CB
:103AF000202573202573202573202573202573200E
:103B00002573202573202573202564202573202507
:103B100064202573202573002563202564202573E8
:103B2000202564202564202573202564202573200A
:103B300025642025732025732025732025732025D7
:103B40006420257320257320257320256420257388
:103B500020257320257320257320257320257320AD
:103B60002573202573202573202573202573202598
:103B7000732025732025732025732025732025733A
:103B8000202573202564202573202564202573209B
:103B900025730025632025642025732025642025B6
:103BA0006420257320256420257320256420257337
:103BB000202573202573202563202564202573206C
:103BC0002573202573202573202573202573202538
:103BD00073202573202573202564202573202564F8
:103BE000202573202573002563202564202573205C
:103BF0002564202564202573202564202573202535
:103C000064202573202564202573202573202573C7
:103C100020257320257320257320257320257320EC
:103C200025732025732025732025732025732025D7
:103C30007320257320257320256420257320256497
:103C4000202573202573000025632025642025731B
:103C500020256420256420257320256420257320D9
:103C600025642025732025732025732025732025A6
:103C70006420257320257320257320257320257348
:103C800020256320256420257320256420257320AA
:103C90002573202573202573202573202573202567
:103CA0007320257320257320257320257320257309
:103CB000202573202573202573002563202564208B
:103CC0002573202564202564202573202564202564
:103CD00073202564202573202573202573202563F8
:103CE000202564202573202573202573202564203A
:103CF0002573202573202573202564202573202516
:103D000073202564202573202573202573202573B7
:103D100020257320257320257320257320257320EB
:103D200025732025732025732025732025732025D6
:103D300073002563202564202573202564202564D5
:103D400020257320256420257320256420257320D9
:103D500025732025732025732025642025732025B5
:103D60007320257320256420256420257320257366
:103D7000202573202573202573202573202573208B
:103D80002573202573202573202573202573202576
:103D90007320257320257320257300256320256457
:103DA0002025732025642025642025732025642088
:103DB0002573202564202573202573202573202555
:103DC0007320256420257320257320257320256406
:103DD000202573202573202573202573202573202B
:103DE0002573202573202573202573202573202516
:103DF00073202573202573202573202573002563E8
:103E00002025732025732025732025642025732009
:103E100025732025732025732025732025632025F5
:103E20007320257320257320257320257320257387
:103E300020257320257320257320257320257320CA
:103E400025732025732025732025730025632025E5
:103E50007320257320257320256420257320257366
:103E6000202573202573202573202573202573209A
:103E70002573202573202573202573202573202585
:103E80007320257320257320257320257320257327
:103E9000202573202573002563202573202573209A
:103EA0002573202564202573202573202573202564
:103EB00073202573202573202573202573202573F7
:103EC000202573202573202573202573202573203A
:103ED0002573202573202573202573002563202555
:103EE0006420257320256420256420257320256403
:103EF0002025732025642025732025732025732019
:103F00002563202564202573202573202573202513
:103F100073202573202573002563202564202573D5
:103F20002025642025642025732025642025732006
:103F300025642025732025642025732025732025E2
:103F40007320257320257320257320257320257366
:103F500020257320257320257320257320257300C9
:103F600025632025732025732025732025732025A4
:103F70007320257320257320257320257320257336
:103F80002025732025732025732025732025730099
:103F90002563202573202573202563202573202584
:103FA0007320257320257320257320257300574126
:103FB000524E494E47202D204E6F7420706F737300
:103FC00069626C6520746F207475726E206F6E204C
:103FD00074776F2073656E736F72732061742074D1
:103FE00068652073616D652074696D653A200073A2
:103FF0006F636B6574202821293A20000000574127
:10400000524E494E47202D2054686520666F6C6CD7
:104010006F77696E672073656E736F722063616E70
:10402000206E6F7420776F726B20696E20746865E4
:1040300020646566696E656420736F636B65743AAE
:1040400020005741524E494E47202D20526564654D
:1040500066696E6974696F6E206F662073656E7332
:104060006F7220736F636B6574206465746563742D
:10407000656400000000000000C240BF40BB40B7C4
:1040800040B440B0409C408F408B404D312100698E
:104090006E76616C696420646174610073656E732F
:1040A0006F72206E6F74206465746563746564005C
:1040B0003F4921003F210041622100443021004D51
:1040C00021004921005B5057525D204E6F69736596
:1040D00020696E20496E74657272757074696F6EB6
:1040E000206C696E65005B5057525D206465657099
:1040F000536C65657020525443206572726F720074
:10410000496E76616C696420474D542076616C7508
:104110006500496E636F727265637420696E7075B5
:104120007420706172616D65746572730A005B5210
:1041300054435D200057726F6E672074696D65206F
:10414000666F726D61742E204D75737420626520E8
:104150002264643A68683A6D6D220A005B525443E7
:104160005D2000496E636F727265637420696E70C2
:10417000757420706172616D65746572730A005B9D
:104180005254435D200057726F6E672074696D65ED
:1041900020666F726D61742E204D75737420626598
:1041A000202264643A68683A6D6D3A7373220A009B
:1041B0005B5254435D200043432E4318430843FBA6
:1041C00042F142E142CC42B542A342974290427E44
:1041D000426B425E425442444221421B42F241E160
:1041E000415B253032753A253032753A25303275CB
:1041F0005D00253032752563253032752563253005
:104200003275256325303275256325303275256377
:1042100025303275256325303275006572726F72F4
:104220000025732C20253032752F253032752F252F
:104230003032752C20253032753A253032753A25CA
:10424000303275004F6E636520706572206D696E47
:10425000757465005B6D6D5D202D2D3E20005B68E3
:10426000683A6D6D5D202D2D3E20005B44617465C4
:104270002C2068683A6D6D5D202D2D3E20005B443A
:1042800061792C2068683A6D6D5D202D2D3E2000EF
:104290005B253032755D005B253032753A25303252
:1042A000755D005B253032752C20253032753A253E
:1042B0003032755D005B253032752C20253032752B
:1042C0003A253032753A253032755D00496E636F9C
:1042D000727265637420616C61726D206D6F6465CC
:1042E000004F6E636520706572207365636F6E6446
:1042F000005B73735D202D2D3E20005B6D6D3A7366
:10430000735D202D2D3E20005B68683A6D6D3A7319
:10431000735D202D2D3E20005B446174652C206868
:10432000683A6D6D3A73735D202D2D3E20005B441D
:1043300061792C2068683A6D6D3A73735D202D2D7C
:104340003E2000416C61726D206D6174636865731D
:1043500020005B53445D20496E76616C6964206681
:10436000696C656E616D65007C3C3E5E2B3D3F2F48
:104370005B5D3B2C2A225C00000008090000000065
:10438000000000000000000000000000000000002D
:10439000000000000000000000000000000000001D
:1043A0000000000000000000000000000001020802
:1043B0001010204080040810204002020408102041
:1043C00040800102802040042001010204081020E6
:1043D00001408040800102080408800410040201AA
:1043E0000810050505050303030301010104040387
:1043F0000606060606060606010405010501030277
:10440000020202020201020205050404030404017F
:104410000304070707070700202326292C2F320053
:104420002225282B2E3134002124272A2D303363D6
:1044300064696E6F70737578585B004E414E494EDB
:10444000495459494E46CDCCCC3D0AD7233C17B7E9
:10445000D13877CC2B329595E6241FB14F0A000056
:1044600020410000C84200401C4620BCBE4CCA1B74
:104470000E5AAEC59D7400407A10F35A00A0724ED9
:1044800018090010A5D4E80000E87648170000E4F9
:104490000B54020000CA9A3B000000E1F505000041
:1044A00080969800000040420F000000A0860100A6
:1044B0000000102700000000E80300000000640076
:1044C000000000000A0000000000010000000000E1
:1044D0002C76D888DC674F0823DFC1DFAE59E1B105
:1044E000B796E5E3E453C63AE651997696E8E6C214
:1044F0008426EB898C9B62ED407C6FFCEFBC9C9F1B
:1045000040F2BAA56FA5F490055A2AF75C936B6C3C
:10451000F9676DC11BFCE0E40D47FEF520E6B50030
:10452000D0ED902E0300943577050080841E08009E
:1045300000204E0A000000C80C333333330F986E4E
:1045400012831141EF8D2114893BE65516CFFEE60B
:10455000DB18D1844B381BF77C1D901DA4BBE424D1
:10456000203284725E228100C9F124ECA1E53D274E
:10457000952C0B35DD481753BB5453551C60CF6049
:10458000106C607CA2838685D88BA6A611241FBEE2
:10459000CFEFD1E2DEBFCDBF19E0A0E0B2E0ECEB9F
:1045A000F2E701E00BBF02C007900D92A630B10701
:1045B000D9F72DE1A6E0B9E001C01D92A93AB207F2
:1045C000E1F712E2C6ECD2E204C02197FE010E949C
:1045D000BAA9C83BD107C9F70E94F58F0C945CB902
:1045E0000C940000CF92DF92EF92FF920F931F93F3
:1045F000CF93DF93CDB7DEB72D970FB6F894DEBF1C
:104600000FBECDBF8C01D62E8FE895E10E94177E9C
:104610006BE071E181E597E10E94678BD801FE01B3
:104620003196CE010D967F012D912193E817F90760
:10463000D9F701E010E0B7018FE895E10E945F7FB4
:104640006115710580449640ACF10F5F1F4F4AE041
:1046500063E47BE0C8010E9474AE8091430B0A3092
:10466000110514F48D83E7CF698558854F819091AA
:10467000440B98012A5031092A35310548F46A87DC
:10468000598748872E812F838D839E831B86D3CFA6
:104690000B3421E0120714F00AE411E02A852B877D
:1046A0006A87598748878D839E838091450B8F83C6
:1046B0001C86C1CF6AEF70E181E597E10E94678BAC
:1046C000B70181E597E10E94EA8AB7018FE895E199
:1046D0000E944983813031F463ED70E181E597E117
:1046E0000E948F8B8CEF94E10E94AE7690934F0BDB
:1046F00080934E0B6CEC70E181E597E10E94678B33
:1047000060914E0B70914F0B81E597E10E94EA8A10
:104710008091101590E090934B0B80934A0B4AE0E8
:1047200063E47BE00E9474AE80914A0B90914B0B46
:104730000A973CF48091430B8093440B80E3809371
:10474000430B43E45BE0B7018FE895E10E9462828E
:10475000C82E8093420B43E059E0B7018FE895E102
:104760000E9462828093420B082F10E00C0D111DF5
:104770008091111590E090934B0B80934A0B4AE087
:1047800063E47BE00E9474AE80914A0B90914B0BE6
:104790000A973CF48091430B8093440B80E3809311
:1047A000430B43E45BE0B7018FE895E10E9462822E
:1047B0008093420B080F111D43E059E0B7018FE8C9
:1047C00095E10E9462828093420B080F111D809137
:1047D000161590E090934B0B80934A0B4AE063E4EC
:1047E0007BE00E9474AE80914A0B90914B0B0A972C
:1047F0003CF48091430B8093440B80E38093430B04
:1048000043E45BE0B7018FE895E10E946282809308
:10481000420B080F111D43E059E0B7018FE895E105
:104820000E9462828093420B080F111D8091131524
:1048300090E090934B0B80934A0B4AE063E47BE05B
:104840000E9474AE80914A0B90914B0B0A973CF4F6
:104850008091430B8093440B80E38093430B43E4AC
:104860005BE0B7018FE895E10E9462828093420B82
:10487000080F111D43E059E0B7018FE895E10E9450
:1048800062828093420B080F111D8091141590E0F5
:1048900090934B0B80934A0B4AE063E47BE00E94C9
:1048A00074AE80914A0B90914B0B0A973CF4809127
:1048B000430B8093440B80E38093430B43E45BE022
:1048C000B7018FE895E10E9462828093420B080F46
:1048D000111D43E059E0B7018FE895E10E94628223
:1048E0008093420B080F111D8091151590E0909355
:1048F0004B0B80934A0B4AE063E47BE00E9474AE6A
:1049000080914A0B90914B0B0A973CF48091430B9A
:104910008093440B80E38093430B43E45BE0B70157
:104920008FE895E10E9462828093420B080F111D6F
:104930004DEE58E0B7018FE895E10E9462828093C6
:10494000420B080F111D2091690C30916A0C49E649
:104950005BE0B7018FE895E10E9486828093420B6D
:10496000080F111D4DEE58E0B7018FE895E10E9448
:1049700062828093420B080F111D4AE063E47BE0E2
:104980008D2D90E00E9474AE43E45BE0B7018FE8A8
:1049900095E10E94EE828093420B080F111D8FE873
:1049A00095E10E947B7D0F30110519F46AEA72E0EF
:1049B00010C069EC72E081E597E10E945E8A6FE0C9
:1049C00070E0601B710B81E597E10E949E8A61ECAB
:1049D00072E081E597E10E94EA8A2D960FB6F8947D
:1049E000DEBF0FBECDBFDF91CF911F910F91FF9022
:1049F000EF90DF90CF90089581E597E10E94D889EC
:104A000063E470E181E597E10E948F8B60E673E0DB
:104A100081E597E10E94EA8A68E873E180E090E02E
:104A20000E94976586E99DE00E9492478093470B1C
:104A3000811134C162E370E181E597E10E948F8BBF
:104A400060E086E99DE00E9404418093470B81115C
:104A500013C069E170E181E597E10E94678B4091A5
:104A6000A80D5091A90D6091A40D7091A50D81E53F
:104A700097E10E94A68B06C06CEF7FE081E597E18D
:104A80000E948F8B61E086E99DE00E940441809343
:104A9000470B811113C069ED7FE081E597E10E942A
:104AA000678B4091A80D5091A90D6091A40D709154
:104AB000A50D81E597E10E94A68B06C062EB7FE021
:104AC00081E597E10E948F8B62E086E99DE00E947C
:104AD00004418093470B811113C066E97FE081E5B3
:104AE00097E10E94678B4091A80D5091A90D6091AC
:104AF000A40D7091A50D81E597E10E94A68B06C0DB
:104B000066E77FE081E597E10E948F8B63E086E9AD
:104B10009DE00E9404418093470B811113C067E51B
:104B20007FE081E597E10E94678B4091A80D50914D
:104B3000A90D6091A40D7091A50D81E597E10E94EA
:104B4000A68B06C064E37FE081E597E10E948F8B2E
:104B500064E086E99DE00E9404418093470B811147
:104B600013C068E27FE081E597E10E94678B409186
:104B7000A80D5091A90D6091A40D7091A50D81E52E
:104B800097E10E94A68B06C068E17FE081E597E18E
:104B90000E948F8B65E086E99DE00E94044180932E
:104BA000470B811113C06CE07FE081E597E10E9423
:104BB000678B4091A80D5091A90D6091A40D709143
:104BC000A50D81E597E10E94A68B06C06CEF7EE003
:104BD00081E597E10E948F8B66E086E99DE00E9467
:104BE00004418093470B811113C06FEE7EE081E595
:104BF00097E10E94678B4091A80D5091A90D60919B
:104C0000A40D7091A50D81E597E10E94A68B06C0C9
:104C10006EED7EE081E597E10E948F8B6FEC7EE088
:104C200081E597E10E948F8B86E99DE00E94084410
:104C300086E99DE00E946A3F8093470B81112BC05B
:104C400062EB7EE081E597E10E94678B40918110E5
:104C500050918210052E000C660B770B2AE030E095
:104C600081E597E10E942B8B6EE97EE081E597E17B
:104C70000E94678B40917F1050918010052E000C90
:104C8000660B770B2AE030E081E597E10E94A48A69
:104C90006DE87EE005C066E77EE002C060E67EE08B
:104CA00081E597E10E948F8B67ED7DE081E597E1DB
:104CB0000E948F8B81E597E10C94EC8981E597E167
:104CC0000E94D8896EE47DE081E597E10E948F8B98
:104CD00069E37DE081E597E10E948F8B29E13BE06C
:104CE0004AE15BE069E372E086E99DE00E94AA4345
:104CF00086E99DE00E94084486E99DE00E94924773
:104D00008093470B811198C066E27DE081E597E1D1
:104D10000E948F8B6EE186E99DE00E942D39809381
:104D2000300B8111A0C065E07DE081E597E10E9434
:104D30008F8B68E873E180E090E00E94976586E9D8
:104D40009DE00E94DA3F8093470B811117C069EF05
:104D50007CE081E597E10E94678B40918310509140
:104D60008410052E000C660B770B2AE030E081E5FD
:104D700097E10E94A48A64EF7CE002C06EEC7CE0C4
:104D800081E597E10E948F8B86E99DE00E944C406F
:104D90008093470B811126C06AEB7CE081E597E1A7
:104DA0000E94678B80918510823099F038F48823B7
:104DB00069F08130E9F46FEA7CE016C0843079F064
:104DC00058F08530A9F465E87CE00EC065EB7CE026
:104DD0000BC069EA7CE008C063EA7CE005C06FE9CB
:104DE0007CE002C068E57CE081E597E10E948F8B62
:104DF00084E1ECE1FBE0DF011D928A95E9F7BF0158
:104E000086E99DE00E94A1408093470B81110DC06F
:104E100068E47CE081E597E10E94678B6CE17BE0D0
:104E200081E597E10E94EA8A1EC06EE17CE081E59F
:104E300097E10E948F8B17C068E07CE081E597E1E5
:104E40000E948F8B6BEF7BE081E597E10E94678B7F
:104E50004091470B50E060E070E02AE030E081E5EF
:104E600097E10E942B8B86E99DE00E948F4863EEBC
:104E70007BE081E597E10E948F8B6AE57BE081E52D
:104E800097E10E948F8B81E597E10C94EC890F9359
:104E90001F93CF93DF9386E99DE00E949247809312
:104EA000470B81114EC064E47BE081E597E10E94ED
:104EB0008F8B6FE27BE081E597E10E94678B009129
:104EC000690C10916A0C409145025091460229E606
:104ED0003BE067E472E086E99DE00E94EB4180934D
:104EE000470B81112BC06DE17BE081E597E10E94CA
:104EF000678B60918B1070918C1081E597E10E9417
:104F0000008B62E773E081E597E10E945E8A409141
:104F1000A80D5091A90D6091A40D7091A50D81E58A
:104F200097E10E94A68BC1E080918B1090918C102C
:104F3000883C910509F0C0E0D0E01AC068E07BE051
:104F400008C062EF7AE081E597E10E948F8B65EE01
:104F50007AE081E597E10E94678B4091470B50E032
:104F600060E070E02AE030E081E597E10E942B8B61
:104F70006DEC7AE081E597E10E948F8B86E99DE0F8
:104F80000E948F48CE01DF91CF911F910F9108951C
:104F9000CF93DF93EC016BEC7AE081E597E10E941F
:104FA0008F8B69EC7AE081E597E10E948F8B67EC4B
:104FB0007AE081E597E10E948F8B65EC7AE081E5EC
:104FC00097E10E948F8B6CEA7AE081E597E10E947D
:104FD0008F8B86E99DE00E9492478093470B811159
:104FE0002FC069E97AE081E597E10E948F8B6CE33D
:104FF00086E99DE00E942D398093300B811145C0D8
:1050000086E99DE00E94D3426CE87AE081E597E171
:105010000E948F8B8CEF94E10E94AE76BC0181E5FB
:1050200097E10E94EA8A8CEF94E10E942D74BC0102
:1050300081E597E10E94EA8A81E080933B0B25C0DD
:1050400066E77AE081E597E10E948F8B69E67AE076
:1050500081E597E10E94678B4091470B50E060E04B
:1050600070E02AE030E081E597E10E942B8B2091EF
:105070004A0B30914B0B2F5F3F4F30934B0B2093DC
:105080004A0BC217D3070CF0A4CF86E99DE00E941B
:105090008F4861E57AE081E597E1DF91CF910C944B
:1050A0008F8B80919A1990919B1981FF04C082E0A7
:1050B00090E00C94C827089590E0FC013197E83106
:1050C000F10508F04CC0EA59FF4F0C94BAA962E40C
:1050D0007AE047C064E27AE044C06AE07AE041C026
:1050E00069EE79E03EC061ED79E03BC067EB79E0C5
:1050F00038C06FE979E035C067E879E032C06CE626
:1051000079E02FC06DE479E02CC06AE179E029C034
:1051100062EE78E026C06DEA78E023C06FE778E0C1
:1051200020C062E478E01DC06CE078E01AC067EC53
:1051300077E017C067E877E014C062E377E011C05A
:1051400068EF76E00EC064EC76E00BC064E976E0D0
:1051500008C068E576E005C06BE276E002C063E275
:1051600076E081E597E10C948F8B0F931F9367E0B6
:1051700076E081E597E10E948F8B86E99DE00E94B1
:1051800092478093470B811130C061EF75E081E554
:1051900097E10E948F8B6EED75E081E597E10E94AB
:1051A0008F8B40912A0250912B020AE012E027E1F6
:1051B00032E06CE272E086E99DE00E9496468093C0
:1051C000470B882351F06DEB75E081E597E10E9474
:1051D000678B8091470B0E945C2843E06CE271E092
:1051E00085E597E10E94FB8B06C067EA75E081E5E3
:1051F00097E10E948F8B6FE875E081E597E10E944F
:105200008F8B86E99DE01F910F910C948F48FF9240
:105210000F931F93CF93DF938C01F12CC1E0D0E06B
:105220000C171D070CF46BC0F11069C061E37BE043
:1052300085E597E10E94CC8F61E775E081E597E114
:105240000E948F8B64E675E081E597E10E94678B91
:1052500061E37BE081E597E10E94EA8A62E575E01F
:1052600081E597E10E94678B85E597E10E94E98FD0
:10527000482F50E060E070E02AE030E081E597E1FF
:105280000E942B8B64E375E081E597E10E948F8B90
:1052900085E597E10E94458F8093460B882391F026
:1052A0008130F1F46FE075E081E597E10E948F8B2A
:1052B00043E06CE271E085E597E10E94318CFF24C8
:1052C000F394AECF60E275E081E597E10E948F8BA9
:1052D00043E06CE271E085E597E10E94FB8B0DC035
:1052E00064E075E081E597E10E948F8B41E064EF17
:1052F00071E085E597E10E94318C219691CFDF9195
:10530000CF911F910F91FF900895CF93DF9387E482
:105310009AE00E94164E87E49AE00E94B54E87E418
:105320009AE00E949B4E80EB9AE00E943F4C80EBFB
:105330009AE00E94F94C80EB9AE00E94DF4C8EEDDF
:1053400099E00E94CD4F8EED99E00E946C508EED59
:1053500099E00E94525085E799E00E948A5185E7C2
:1053600099E00E94295285E799E00E940F5288E057
:1053700099E00E94CF4A88E099E00E944B4B88E078
:1053800099E00E943E4B4EE352E061E082E59BE0F3
:105390000E94FE3468E082E59BE00E94AE2CC7E4E8
:1053A000DAE02B813C814D815E8167E882E59BE0FC
:1053B0000E94D7302F81388549855A856CE882E56F
:1053C0009BE00E94D7302F85388949895A8966E940
:1053D00082E59BE00E94D7302B853C854D855E851C
:1053E00061E982E59BE00E94D730C0EBDAE02B81D7
:1053F0003C814D815E8160E182E59BE00E94D73077
:105400002F81388549855A8565E182E59BE00E94B8
:10541000D7302B853C854D855E856AE182E59BE032
:105420000E94D7302F85388949895A896FE182E5F2
:105430009BE00E94D7308AEF94E10E945871482F78
:1054400050E064E382E59BE00E94742E40911B0BC8
:1054500050E06DE382E59BE00E94742E8CEF94E1B6
:105460000E942D74AC016BE382E59BE00E94033146
:1054700082E59BE00E94B62C0E9447278093410B57
:10548000682F80E692E00E94F22260ED77E080E0F3
:1054900090E00E9497654EE352E061E082E59BE078
:1054A0000E94FE3468E082E59BE00E94AE2CC5E7D6
:1054B000D9E02B813C814D815E8164ED82E59BE0EA
:1054C0000E94D7302F81388549855A8569ED82E55C
:1054D0009BE00E94D7302B853C854D855E856EED27
:1054E00082E59BE00E94D7302F85388949895A8907
:1054F00063EE82E59BE00E94D730CEEDD9E02B81B0
:105500003C814D815E816CE982E59BE00E94D73051
:105510002F81388549855A8561EA82E59BE00E94A2
:10552000D7302B853C854D855E8566EA82E59BE01C
:105530000E94D7302F85388949895A896BEA82E5DC
:105540009BE00E94D7302B813C814D815E816CE9CC
:1055500082E59BE00E94D7302F81388549855A85A6
:1055600061EA82E59BE00E94D7302B853C854D8522
:105570005E8566EA82E59BE00E94D7302F853889F8
:1055800049895A896BEA82E59BE00E94D73082E51F
:105590009BE00E94B62C0E9447278093410B682F06
:1055A00080E692E0DF91CF910C94F22281E597E1C1
:1055B0000E94D8898CEF94E10E9420780E94FC24FC
:1055C0000E945E268AE090E00E94072929E13BE0E4
:1055D0004AE15BE069E372E086E99DE00E94AA434C
:1055E00086E99DE00E94084480913D0290E00E947F
:1055F000C8278CEF94E10E94AE76BC0181E597E16B
:105600000E94EA8A64EF74E081E597E10E948F8B43
:105610008FE895E10E94177E8091400B882399F0D6
:1056200060E672E08FE895E10E949A808093420BD9
:10563000813019F467EE74E002C066ED74E081E534
:1056400097E10E948F8B60E672E08FE895E10E94FF
:1056500049838093420B813019F469EC74E002C0F5
:1056600068EB74E081E597E10E948F8B6EE474E053
:1056700081E597E10E945E8A609143027091440245
:1056800081E597E10E94008B44E654E060E672E019
:105690008FE895E10E94EE828093420B813019F4ED
:1056A00069EA74E002C06EE874E081E597E10E9467
:1056B0008F8B69E074E081E597E10E948F8B64E84D
:1056C00073E081E597E10E948F8B6FEF72E081E5D7
:1056D00097E10E948F8B81E597E10E94D889109213
:1056E000510B1092500B08950F930E9468656093C0
:1056F0003C0B70933D0B80933E0B90933F0B80913E
:10570000500B9091510B01969093510B8093500B3D
:1057100062EF72E081E597E10E94678B6091500B28
:105720007091510B81E597E10E94008B85E597E12F
:105730000E94E98F80931B0B0E9485290E94B52847
:105740006EEA72E081E597E10E948F8B20E041E0F4
:1057500063ED74E08CEF94E10E94797B80913B0BC8
:105760000E9451286AE672E081E597E10E948F8BE2
:1057700080914302909144022091480B3091490B53
:10578000821B930B05978A30910514F48FE090E00B
:1057900090934D0B80934C0B6DE572E081E597E1A2
:1057A0000E94678B60914C0B70914D0B81E597E1E6
:1057B0000E94008B80914C0B90914D0B6CE370E03C
:1057C0000E9465A990934B0B80934A0B4AE063E4D7
:1057D0007BE00E9474AE80914A0B90914B0B0A972C
:1057E0003CF48091430B8093440B80E38093430B04
:1057F0008091430B80935D028091440B80935E0205
:1058000080914C0B90914D0B2CE330E0B9010E943C
:1058100065A9CB01B9010E9465A990934B0B8093B8
:105820004A0B4AE063E47BE00E9474AE80914A0B2D
:1058300090914B0B0A973CF48091430B8093440B5F
:1058400080E38093430B8091430B80935A028091B5
:10585000440B80935B0280914C0B90914D0B20E1A7
:105860003EE0B9010E9465A9CB01B9010E9465A97A
:1058700090934B0B80934A0B4AE063E47BE00E94D9
:1058800074AE80914A0B90914B0B0A973CF4809137
:10589000430B8093440B80E38093430B8091430B35
:1058A000809357028091440B8093580266E472E023
:1058B00081E597E10E948F8B67E875E081E597E1CC
:1058C0000E945E8A64E572E081E597E10E945E8A4B
:1058D00067E875E081E597E10E94EA8A8CEF94E140
:1058E0000E942D74BC0181E597E10E94EA8A81E55E
:1058F00097E10E94EC8903E020E040E064E572E07B
:105900008AEF94E10E94227381E597E10E94D88991
:105910006DEB71E081E597E10E948F8B6EEA71E09B
:1059200081E597E10F910C948F8B63E080EB9AE017
:105930000E940C4C66E087E49AE00E94E34D65E02B
:105940008EED99E00E949A4F64E085E799E00E940D
:10595000575167E088E099E00C94A14AFC01668BFE
:105960006F73928D9078692B628F0895CF92DF923A
:10597000EF92FF920F931F93CF93DF93EC0181E59A
:1059800097E10E940B8A0FE110E060E08DE30E9436
:10599000DA6801501109C9F760E08DE00E94DA6809
:1059A00060E08AE00E94DA688981813021F460E059
:1059B0008CEF94E00CC0811104C060E08AE095E0B7
:1059C00006C0823009F095C060E089E195E00E9450
:1059D000E76860E08BE295E00E94E76860E085E3BD
:1059E00095E00E94E7687E0189EEE81A8EEFF80ADA
:1059F000F7016081718180E090E000E02AE030E012
:105A000040E050E00E94F76860E08DE00E94DA68B4
:105A100060E08AE00E94DA6860E08EE395E00E9430
:105A2000E7686A8D70E080E090E02AE030E040E0D6
:105A300050E00E94F76860E08DE00E94DA6860E064
:105A40008AE00E94DA6860E08CE495E00E94E768F2
:105A500067966E0100E010E0F7018081918160E0BF
:105A60000817190740F4F60181916F010E947B69C4
:105A70000F5F1F4FF1CF8DE00E94DA6860E08AE08F
:105A80000E94DA6860E08AE595E00E94E76800E03D
:105A900010E0F7018081918160E00817190730F468
:105AA00089910E94DA680F5F1F4FF3CF8DE00E944B
:105AB000DA6860E08AE00E94DA68CFE1D0E060E076
:105AC0008DE30E94DA682197D1F760E08DE00E94B3
:105AD000DA6860E08AE00E94DA6881E597E1DF91A8
