:100000000C9492180C9453730C9484730C94B573E1
:100010000C94E9730C941D740C944E740C947F74BE
:100020000C94B0740C94BC180C94BC180C94BC18B0
:100030000C94DC350C94BC180C94BC180C94383619
:100040000C94BC180C94BC180C94BC180C94BC18E0
:100050000C94BC180C94BC180C94BC180C9413365B
:100060000C94BC180C944D390C94BC180C94BC180E
:100070000C94BC180C94BC180C94BC180C94BC18B0
:100080000C94BC180C94BC180C94BC180C94BC18A0
:100090000C948E390C94BC180C94BC180C94717789
:1000A0000C94BC180C94BC180C94BC180C94BC1880
:1000B0000C94BC180C94BC180C94BC180C94BC1870
:1000C0000C94BC180C94BC180C94BC183C1B3F1B23
:1000D000421B451B481B4B1B4E1B511B541B571BE4
:1000E0005A1B5D1B601B631B661B691B6C1B6F1B14
:1000F000721B751B781B7B1B7E1B811B1B2E1E2EF0
:10010000212E242E272E2A2E2D2E6D457C459B45F3
:10011000AA45B945C845D7454C465A46684676462D
:10012000794687469546A346B146BF46CD46DB464F
:10013000E946F746654A7E4A964AA74AB14ACB4AFB
:10014000334B4E54515454545B5464546D54765450
:100150003C733E73407342734473497346734873F0
:10016000BA79C879CF79D179D379D579D779362E3B
:100170002057616B6520757021210A0A0058585874
:1001800058585858585858585858585858585858EF
:1001900058585858585858585858585858585858DF
:1001A00058585858585858585858585858585858CF
:1001B00058585858585858585858585858585858BF
:1001C00058585858585858585858585858585858AF
:1001D000585858585858585858585858585858589F
:1001E000585858585858585858585858585858588F
:1001F000585858585858585858585858585858587F
:10020000585858585800352E20456E746572206431
:1002100065657020736C6565702E2E2E007631003A
:100220007631007631007631007631007631007615
:10023000310076310076310076767676767676768F
:10024000767676767676767676767676767676764E
:10025000767676767676767676767676767676763E
:10026000767676767676767676767676767676762E
:10027000767676767676767676767676767676761E
:10028000767676767676767676767676767676760E
:1002900076767676767676767676767676767676FE
:1002A00076767676767676767676767676767676EE
:1002B000767676767676767676767676007C7C7C42
:1002C0007C7C7C7C7C7C7C7C7C7C7C7C7C7C7C7C6E
:1002D0007C7C7C7C7C7C7C7C7C7C7C7C7C7C7C7C5E
:1002E0007C7C7C7C7C7C7C7C7C7C7C7C7C7C7C7C4E
:1002F0007C7C7C7C7C7C7C7C7C7C7C7C7C7C7C7C3E
:100300007C7C7C7C7C7C7C7C7C7C7C7C7C7C7C7C2D
:100310007C7C7C7C7C7C7C7C7C7C7C7C7C7C7C7C1D
:100320007C7C7C7C7C7C7C7C7C7C7C7C7C7C7C7C0D
:100330007C7C7C7C7C7C7C7C7C7C7C7C7C7C7C7CFD
:100340007C005E5E5E5E5E5E5E5E5E5E5E5E5E5E0D
:100350005E5E5E5E5E5E5E5E5E5E5E5E5E5E5E5EBD
:100360005E5E5E5E5E5E5E5E5E5E5E5E5E5E5E5EAD
:100370005E5E5E5E5E5E5E5E5E5E5E5E5E5E5E5E9D
:100380005E5E5E5E5E5E5E5E5E5E5E5E5E5E5E5E8D
:100390005E5E5E5E5E5E5E5E5E5E5E5E5E5E5E5E7D
:1003A0005E5E5E5E5E5E5E5E5E5E5E5E5E5E5E5E6D
:1003B0005E5E5E5E5E5E5E5E5E5E5E5E5E5E5E5E5D
:1003C0005E5E5E5E5E5E007772697465696E672070
:1003D00069732068617665696E67206572726F72F5
:1003E00073007772697465696E67206973204F4B7B
:1003F0000066696C65204E4F5420637265617465B8
:10040000640066696C65206372656174656400668A
:10041000696C65204E4F542064656C65746564009A
:1004200066696C652064656C657465640053445F3F
:10043000434152445F4152484956455F56315F52ED
:1004400054435F4F5441505F34475F4241524542ED
:100450004F4E4553002D2D2D2D2D2D2D2D2D2D2D78
:100460002D2D2D2D2D2D2D2D2D2D2D2D2D2D2D2DBC
:100470002D2D0050726F6772616D20766572736901
:100480006F6E3A200050726F6772616D2069643A36
:1004900020002D2D2D2D2D2D2D2D2D2D2D2D2D2DC6
:1004A0002D2D2D2D2D2D2D2D2D2D2D2D2D2D2D00A9
:1004B00052455354415254494E4700524550524FB1
:1004C0004752414D4D494E47204F4B0052455052E7
:1004D0004F4752414D4D494E47204552524F5200D1
:1004E000352E20537769746368204F464620344781
:1004F000206D6F64756C65003447206D6F64756C9A
:1005000065206E6F742073746172746564004F545B
:10051000412072657175657374206661696C6564EC
:100520002E204572726F7220636F64653A20003D21
:100530003D3E2052657175657374204F54412E2ED7
:100540002E00312E203447206D6F64756C6520724B
:10055000656164792E2E2E005354415254494E4702
:10056000204F5441502056455253494F4E20434846
:1005700045434B00756E6B6E6F776E006572726FE0
:100580007220646F776E6C6F6164696E6720626958
:100590006E6172792066696C653A2073697A6520AC
:1005A0006D69736D61746368006572726F72206447
:1005B0006F776E6C6F6164696E672062696E6172DD
:1005C000792066696C653A206E6F206D6F726520C8
:1005D000726574726965732067657474696E6720EB
:1005E00064617461006572726F7220646F776E6C03
:1005F0006F6164696E672062696E617279206669F5
:100600006C653A206572726F722077726974696ED8
:1006100067205344006572726F7220646F776E6C4E
:100620006F6164696E672062696E617279206669C4
:100630006C653A207061636B65742073697A65201C
:100640006D69736D61746368006572726F722064A6
:100650006F776E6C6F6164696E672062696E61723C
:10066000792066696C653A206572726F7220206726
:10067000657474696E67207061636B65742073695B
:100680007A65006572726F7220646F776E6C6F614D
:1006900064696E672062696E6172792066696C6553
:1006A0003A206572726F72206D6F64756C6520728E
:1006B000657475726E73206572726F7220636F64F9
:1006C0006520616674657220726571756573746901
:1006D0006E672064617461006572726F7220646F6E
:1006E000776E6C6F6164696E672062696E617279A2
:1006F0002066696C653A206572726F72206F706552
:100700006E696E67207468652047455420636F6E7C
:100710006E656374696F6E006572726F7220646FCC
:10072000776E6C6F6164696E672062696E61727961
:100730002066696C653A206572726F722073657409
:1007400074696E672074686520706F696E74657275
:10075000206F66207468652066696C65006572723A
:100760006F7220646F776E6C6F6164696E67206270
:10077000696E6172792066696C653A206572726F84
:1007800072206F70656E696E672074686520666997
:100790006C65006572726F7220646F776E6C6F614A
:1007A00064696E672062696E6172792066696C6542
:1007B0003A206572726F72206372656174696E6748
:1007C000207468652066696C6520696E205344005A
:1007D0006572726F7220646F776E6C6F6164696EA0
:1007E000672062696E6172792066696C653A205390
:1007F00044206E6F742070726573656E740065724C
:10080000726F7220646F776E6C6F6164696E6720BF
:1008100062696E6172792066696C653A2072656101
:1008200064696E67207468652066696C6520736909
:100830007A65006572726F7220646F776E6C6F619B
:1008400064696E672062696E6172792066696C65A1
:100850003A207365727665722066696C65207369EB
:100860007A65206973207A65726F0066696C65200D
:1008700073697A6520646F6573206E6F74206D6193
:1008800074636820696E20555047524144452E5488
:10089000585420616E642073657276657200696ECB
:1008A00076616C69642070726F6772616D20766525
:1008B0007273696F6E206E756D626572006E6F2067
:1008C0002756455253494F4E272070617474657204
:1008D0006E20666F756E64006E6F202753495A450F
:1008E00027207061747465726E20666F756E640087
:1008F0006E6F2027504154482720706174746572D0
:100900006E20666F756E6400274E4F5F46494C45FA
:1009100027206973207468652066696C656E616D57
:1009200065006E6F202746494C452720706174741E
:1009300065726E20666F756E640066696C656E61C7
:100940006D6520697320646966666572656E7420E2
:10095000746F2037206279746573006572726F72EC
:10096000206F70656E696E67204654502073657302
:1009700073696F6E006572726F7220646F776E6C50
:100980006F6164696E6720555047524144452E544B
:100990005854005344206E6F742070726573656EF6
:1009A0007400322E20537769746368204F464620C6
:1009B0003447206D6F64756C65004572726F7220EC
:1009C000636F64653A20003447206D6F64756C6511
:1009D000206E6F74207374617274656400312E2010
:1009E0003447206D6F64756C6520726561647900B1
:1009F000342E20537769746368204F46462034476D
:100A0000206D6F64756C65004572726F7220636F44
:100A100064653A20003447206D6F64756C65206E04
:100A20006F742073746172746564004661696C65EB
:100A3000642E204572726F7220636F64653A2000E5
:100A4000446F6E652E204854545020636F64653A9D
:100A5000200053656E64696E672074686520667255
:100A6000616D652E2E2E00312E203447206D6F646F
:100A7000756C652072656164792E2E2E0074696D27
:100A8000653A200020767320757365722073617952
:100A90007320003A206170692073617973200045EA
:100AA00072726F722073656E736F722074797065E5
:100AB0002026206E6669656C6473206D69736D61B4
:100AC00074636820666F7220696E64657820005BCD
:100AD0004652414D455D2000207673207573657246
:100AE000207361797320003A206170692073617905
:100AF0007320004572726F722073656E736F72207F
:100B000074797065206D69736D6174636820666FB8
:100B10007220696E64657820005B4652414D455DE8
:100B2000200020767320003A20004572726F7220F8
:100B300073656E736F722074797065206D69736D63
:100B40006174636820666F7220696E646578200046
:100B50005B4652414D455D2000010101010101014B
:100B60000101010101010101010101010101010175
:100B70000101010101010101010101010101010165
:100B8000010101020203030101010101010102014E
:100B9000010101030301010103010101010101013F
:100BA0000101020101010101010101010101010134
:100BB0000101010101010101010101010101010125
:100BC0000101010101010101010101010101010115
:100BD0000101010101010101010101010101010105
:100BE00001010101010101010101010101010101F5
:100BF00001010101010101010101010101010101E5
:100C000001010101010101010101010101010101D4
:100C100001010101010101010101010101010101C4
:100C200001010101010101010101010101010101B4
:100C300001010101010101010101010101010101A4
:100C40000101010101010202020202020202040486
:100C50000101020202020202020202020202020276
:100C60000202020202020202020202020202020264
:100C70000101010101010100000100020103030360
:100C80000000010102010403000003030202020448
:100C90000202020204010000000000000000000245
:100CA000020202020200000000000000000000003A
:100CB0000000000000000000000000000000000034
:100CC0000004000000000000000000000202020218
:100CD00002020202020202020202020202020202F4
:100CE00002020202020202020202020202020202E4
:100CF00002020202020202020202020202020202D4
:100D000002020202020202020202020202020202C3
:100D100002020202020202020202020202020202B3
:100D200002020202020202020202020202020202A3
:100D30000202024B1346134013391334132F1329A5
:100D40001322131C13161311130C1306130013FA9A
:100D500012F412EE12E912E412DF12DA12D512D0F6
:100D600012CB12C612C112BC12B712B212AD12A827
:100D700012A3129D1296128D1285127E1277127096
:100D8000126A1263125D1254124E12481242123B42
:100D90001235122F12291223121D121912151210B8
:100DA000120C12091205120012FB11F711F311EBCC
:100DB00011E711E011DC11DB11DA11D611D311CFDB
:100DC00011C911C411BF11BC11B911B511B011ACC9
:100DD00011A911A811A711A611A511A411A311A25F
:100DE00011A111A01197118D11891184117F117A10
:100DF00011791178117711761175117411731172BF
:100E000011711170116F116E116D116C116B116AEE
:100E1000116911681167116611651164116311621E
:100E200011611160115F115E115A11591154114E67
:100E30001148114511441143114211411140113A19
:100E40001134112E11281122111D11181113110E18
:100E50001109110411FF10FA10F510F010EB10E653
:100E600010E110DC10D710D110CB10C510BF10B995
:100E700010B410AF10AA10A510A0109B10961091DE
:100E8000108C10871082107D10781073106E10680F
:100E90001062105C10561050104B10461041103C60
:100EA00010371032102D10281023101E1018101299
:100EB000100C1006100010FA0FF40FEE0FE80FE2FE
:100EC0000FDC0FD60FD00FCA0FC40FBF0FBA0FB56C
:100ED0000FB00FAB0FA50F9F0F990F930F8D0F88BA
:100EE0000F830F7E0F790F740F6F0F6A0F650F60FE
:100EF0000F5B0F550F4F0F490F430F3D0F370F314A
:100F00000F2B0F250F1F0F190F130F0D0F54433702
:100F10005F44005443375F43005443375F420054FB
:100F200043375F41004449535F44004449535F43A2
:100F3000004449535F42004449535F4100544641D5
:100F40005F45005446415F44005446415F430054AE
:100F500046415F42005446415F410053535F4500A4
:100F600053535F440053535F430053535F42005356
:100F7000535F410053425F450053425F4400534278
:100F80005F430053425F420053425F410054433687
:100F90005F45005443365F44005443365F4300547A
:100FA00043365F42005443365F410043555F45007E
:100FB00043555F440043555F430043555F42004340
:100FC000555F41005341315F45005341315F44005B
:100FD0005341315F43005341315F42005341315F20
:100FE0004100434E315F4500434E315F4400434E64
:100FF000315F4300434E315F4200434E315F410059
:101000005443355F45005443355F44005443355FD6
:1010100043005443355F42005443355F4100544D13
:101020005F4500544D5F4400544D5F4300544D5F95
:101030004200544D5F4100544E5F4500544E5F44A2
:1010400000544E5F4300544E5F4200544E5F4100D7
:101050005443345F45005443345F44005443345F89
:1010600043005443345F42005443345F41005444CE
:101070005F450054445F440054445F430054445F60
:10108000420054445F410053415F450053415F4477
:101090000053415F430053415F420053415F4100B1
:1010A000434E5F4500434E5F4400434E5F43004361
:1010B0004E5F4200434E5F41005443335F4500544E
:1010C00043335F44005443335F43005443335F4230
:1010D000005443335F4100504D5F4500504D5F4425
:1010E00000504D5F4300504D5F4200504D5F410046
:1010F00052585F450052585F440052585F430052B7
:10110000585F420052585F410050485F45005048C8
:101110005F440050485F430050485F420050485FC2
:1011200041005443325F45005443325F440054430E
:10113000325F43005443325F42005443325F410008
:10114000000000000050530056424F4F54005650CC
:10115000524F47005641504900005453540000007C
:10116000000000000000000000000000000000007F
:101170000000000000000000000050444F500056E6
:10118000444F500048444F5000414C5400434F5589
:101190005253455F4F470053504545445F4F47000A
:1011A0000000000000000000005553004C5558009E
:1011B000505245530048554D00544600544300508A
:1011C00041525400504D313000504D325F35005087
:1011D0004D31005242005549440000005354520022
:1011E0004D494C4C49530041434300494E5F5445DF
:1011F0004D500052414D00474D540054494D45005B
:1012000044415445004E4944004E41004D41430085
:101210005253534900475053004241540043425FE8
:1012200046500043425F54500043425F464C0043E7
:10123000425F46520043425F56530043425F525062
:101240004D004D425F4952004D425F4852004D42B1
:101250005F4449004D425F434F494C5300454D5F49
:10126000544300454D5F48444F00454D5F434C009B
:10127000454D5F4E4F3300454D5F4E483400454D60
:101280005F43484C00454D5F434F4E4400454D5F22
:10129000444550544800454D5F4F525000454D5F06
:1012A0005048004F505F45004F505F44004F505F23
:1012B00043004F505F42004F505F41004F4D5F452C
:1012C000004F4D5F44004F4D5F43004F4D5F420064
:1012D0004F4D5F41004F535F45004F535F44004FF8
:1012E000535F43004F535F42004F535F41005443ED
:1012F000315F45005443315F44005443315F430044
:101300005443315F42005443315F410055535F44C1
:101310000055535F41004C55585F44004C55585F91
:101320004100505245535F440048554D5F440054BE
:10133000465F440054435F4400505245535F4100B0
:1013400048554D5F410054465F410054435F4100A2
:10135000010101010101010101010101010101017D
:10136000010101010101010101010101010101016D
:101370000101010101010101010102020303010157
:101380000101010101020101010103030101010346
:10139000010101010101010101020101010101013C
:1013A000010101010101010101010101010101012D
:1013B000010101010101010101010101010101011D
:1013C000010101010101010101010101010101010D
:1013D00001010101010101010101010101010101FD
:1013E00001010101010101010101010101010101ED
:1013F00001010101010101010101010101010101DD
:1014000001010101010101010101010101010101CC
:1014100001010101010101010101010101010101BC
:1014200001010101010101010101010101010101AC
:10143000010101010101010101010101010101019C
:10144000010101010101010101010101010101018C
:10145000020202020202020204040101020202026A
:10146000020202020202020202020202020202025C
:101470000202020202020202020201010101010152
:101480000100000100020103030300000101020149
:101490000403000003030202020402020202040128
:1014A000000000000000000000020202020202012F
:1014B0000101020202020000000000000000000022
:1014C0000000000000000000000000040000000018
:1014D00000000000000002020202020202020202F8
:1014E00002020202020202020202020202020202DC
:1014F00002020202020202020202020202020202CC
:1015000002020202020202020202020202020202BB
:1015100002020202020202020202020202020202AB
:1015200002020101020201020302020001010102A2
:101530000202020301020303030303030302020284
:10154000010202020202020102020201030102037D
:10155000241C1F1C191C121C0D1C081C021CFB1B2C
:10156000F51BEF1BEA1BE51BE21BDD1BD81BD31B86
:10157000CE1BC81BC21BBC1BB61BB11BAC1BA71BC5
:10158000A21B9F1B9C1B991B931B8D1B871B811BE5
:101590007B1B751B6F1B691B631B5D1B571B511B43
:1015A0004B1B451B3C1B361B301B2A1B231B1D1BC7
:1015B000171B111B0B1B051B011BFD1AF81AF41A34
:1015C000F11AED1AE81AE31ADF1ADB1AD31ACF1A46
:1015D000C81AC41AC31AC21ABE1ABB1AB71AB11A49
:1015E000AC1AA71AA41AA11A9D1A981A941A911A39
:1015F000901A8F1A8E1A8D1A8C1A8B1A8A1A891AB7
:10160000881A7F1A751A711A6C1A671A621A5E1A8A
:10161000561A4E1A4A1A461A421A3E1A3A1A391AD3
:10162000381A371A361A351A341A331A321A311A46
:10163000301A2F1A2E1A2D1A2C1A2B1A2A1A291A76
:10164000281A271A261A221A211A1C1A161A101AD0
:101650000D1A0C1A0B1A0A1A091A081A031AFE197B
:10166000F919F419EE19E819E219DC19D619D0198B
:10167000CA19C419BE19B819B219AC19A619A019FA
:101680009A1994198E19881982197C19761970196A
:101690006A1964195E19581952194C1946194019DA
:1016A0003A1934192F192A19251920191A19141938
:1016B0000E1908190319FE18F918F418EF18EA188A
:1016C000E518E018DB18D618D118CC18C618C018C1
:1016D000BA18B418AE18A818A2189C18971892181F
:1016E0008D18881882187C18761870186A18641873
:1016F0005E185818551851184E184A1845184018B1
:101700003C183918361832182E18291824182118A0
:101710001E181B18171814180E1807180018F91798
:10172000F317ED17E717E117DB17D317C917C01722
:10173000BA17B317AD17A717A1179A1794178E17D3
:1017400086177D1775176C1764175E175717501794
:101750004750535F5354004750535F535000475016
:10176000535F48004750535F4C4F43004750535F0F
:1017700047444952004750535F4753500047505326
:101780005F41435350004750535F43535000484913
:101790005F57530057435F5753005742545F5753A7
:1017A0000041445F57530041485F57530044505F26
:1017B00057530054454D5F57530052485F575300ED
:1017C00050524553535F57530050524553534C5F4B
:1017D000575300505245535F57530054415F57537E
:1017E00000544E5F57530054435F57530050535FAC
:1017F00057530053545F575300534E545F57530091
:101800005352545F5753005353485F57530053523A
:101810005F57530053540053564F005A4F005954CA
:1018200000585400434D5053004143574400435720
:101830004400505354005049005054005753530033
:1018400041574753004157474400415753005753AE
:1018500000415744005744005443375F4400544309
:10186000375F43005443375F42005443375F4100C2
:101870004450335F44004450335F43004450335F6F
:1018800042004450335F41004C545F44004C545F6D
:1018900043004C545F42004C545F41004254325F5D
:1018A00044004254325F43004254325F420042548B
:1018B000325F41005443365F44005443365F430077
:1018C0005443365F42005443365F410057505F44F3
:1018D0000057505F430057505F420057505F410030
:1018E00041505F440041505F430041505F4200411E
:1018F000505F410052485F440052485F43005248E5
:101900005F420052485F41005443355F44005443F6
:10191000355F43005443355F42005443355F410017
:1019200056505F440056505F430056505F42005689
:10193000505F41005443345F44005443345F4300DC
:101940005443345F42005443345F41004543325FA7
:1019500044004543325F43004543325F4200454304
:10196000325F41004450325F44004450325F4300D4
:101970004450325F42004450325F41005443335F71
:1019800044005443335F43005443335F42005443A5
:10199000335F41004543315F44004543315F4300BD
:1019A0004543315F42004543315F41004450315F60
:1019B00044004450315F43004450315F4200445082
:1019C000315F41004D56325F44004D56325F430057
:1019D0004D56325F42004D56325F41005443325FF4
:1019E00044005443325F43005443325F4200544347
:1019F000325F4100434F5F4400434F5F4300434F1A
:101A00005F4200434F5F4100000000000050530060
:101A100056424F4F54005650524F4700564150497E
:101A200000005453540000000000000000000000BB
:101A3000000000000000000000004E434E00505324
:101A400048005753500050544300455443005343FB
:101A5000325F524144005343315F5241440052418E
:101A6000440050444F500056444F500048444F509B
:101A700000414C5400434F555253455F4F4700536C
:101A8000504545445F4F4700000000000000000043
:101A9000005553004C555800505245530048554D81
:101AA000005446005443005041525400504D3130D0
:101AB00000504D325F3500504D31005242005549C3
:101AC00044000000535452004D494C4C49530041CE
:101AD000434300494E5F54454D500052414D00472D
:101AE0004D540054494D450044415445004E49442D
:101AF000004E41004D41430052535349004750535B
:101B0000004241540043425F46500043425F5450FC
:101B10000043425F464C0043425F46520043425FEF
:101B200056530043425F52504D004D425F495200B0
:101B30004D425F4852004D425F4449004D425F4371
:101B40004F494C53004254315F44004254315F438B
:101B5000004254315F42004254315F41004D5631E2
:101B60005F44004D56315F43004D56315F42004D9A
:101B700056315F41005443315F44005443315F4369
:101B8000005443315F42005443315F41004355529A
:101B90005F42004355525F460046440053440054A0
:101BA000440055565F460055565F450055565F4305
:101BB0000055565F42005041525F46005041525F0F
:101BC00045005041525F43005041525F4200535222
:101BD0005F460053525F450053525F430053525FCC
:101BE00042004C570055535F440055535F41004C31
:101BF00055585F44004C55585F4100505245535F63
:101C0000440048554D5F440054465F440054435FD0
:101C10004400505245535F410048554D5F410054C8
:101C2000465F410054435F41000101010101010190
:101C30000101010101010101010101010101010194
:101C40000101010101010101010101010101010184
:101C50000101010101010101010101010101020173
:101C6000010101030301010103010101010101015E
:101C70000101020101010101010101010101010153
:101C80000101010101010101010101010101010144
:101C90000101010101010101010101010101010134
:101CA0000101010101010101010101010101010124
:101CB0000101010101010101010101010101010114
:101CC0000101010101010101010101010101010104
:101CD00001010101010101010101010101020203F0
:101CE00003010101010101181008010101010101B5
:101CF00001020202020202020202020202020202C5
:101D000002020202020202000000000000000002C3
:101D100002020202020000000002000000000000B7
:101D200000000000000002010303030000010102A3
:101D30000104030303030302020204020202020479
:101D40000100000000000000000002020202020286
:101D5000000000000002020202020202020202026D
:101D6000020202020202020202020000040000005B
:101D7000000002020202020202020202020000004D
:101D80000000000000000002020202020202000243
:101D90000202020202020202020200020202000029
:101DA0000202020200010101010101010000010122
:101DB0000101020202040402008922852282227E9D
:101DC000227B22772273226F226B22672264226099
:101DD000225D225922552252224E224A2246224276
:101DE000223E223822372236223522342233223232
:101DF00022312230222B222622212220221F221AA7
:101E000022192218221722162213220F220C22092D
:101E10002204220022FB21F621F121EC21E721E618
:101E200021E221DE21D921D521D221CE21C921C40F
:101E300021C021BC21B421B021A921A521A421A325
:101E4000219F219C21982192218D21882185218209
:101E5000217E21792175217221712170216F216EDE
:101E6000216D216C216B216A21692160215621524B
:101E7000214D21482143214221412140213F213E42
:101E800021382132212C2125211F21192113210D37
:101E90002106210021FA20F420EE20E720DF20DABD
:101EA00020D420CE20C820C220BC20BB20BA20B61F
:101EB00020B520B020AA20A420A1209D209A209601
:101EC0002093208E208B20862081207C20762070FD
:101ED000206F206E206D206C206B206A20692068A6
:101EE000206720662060205A2054204D2046204341
:101EF000203F203C20372032202D2029202620235F
:101F00002020201D2016200F20082007200320FE5F
:101F10001FFA1FF91FF81FF21FEC1FE61FE01FDF5B
:101F20001FD61FD01FCA1FC41FBD1FB71FB11FABB5
:101F30001FA51F9F1F981F901F881F801F791F704C
:101F40001F681F5A1F501F491F524553554C5400BC
:101F50005448524553484F4C440046455645525FFD
:101F6000434F554E54455200434F554E5445520031
:101F700053493442315F5443004149525F54430056
:101F8000555345525F544300504D5F42494E4800FF
:101F9000504D5F42494E4C00504D5F42494E004308
:101FA000425F46500043425F54500043425F464CFC
:101FB0000043425F46520043425F56530043425F34
:101FC00052504D004D425F4952004D425F48520011
:101FD0004D425F4449004D425F434F494C5300001E
:101FE0004355525F44004355525F43004355525F8F
:101FF00042004355525F410000004C554D0048558A
:102000004D42005443420000534F494C5F4500533A
:102010004F494C5F4300534F494C5F4200464400D8
:1020200053440054440055560050415200504C5601
:102030003300504C563200504C5631005756004138
:102040004E45004C5700534F494C544600534F499E
:102050004C544300534F494C3300534F494C3200CA
:10206000534F494C31000000000000000000000008
:102070004F52505F45004F52505F410050485F45FE
:102080000050485F41005455524200575400434F9E
:102090004E4400444F004F525000504800524144BB
:1020A0000050530056424F4F54005650524F470075
:1020B0005641504900005453540000005357495FA3
:1020C00044005357495F43005357495F42005357F9
:1020D000495F41005357494E41005357494B005304
:1020E0005749434C4F34005357494E4F32005357D2
:1020F000494D47005357494C4900535749504800F0
:102100005357494147005357494E483400535749A4
:10211000494F00535749435500535749434C0053C7
:1021200057494252005357494E4F3300535749467F
:102130004200535749464C00535749434100000061
:1021400000000050444F500056444F500048444F48
:102150005000414C5400434F555253455F4F470088
:1021600053504545445F4F47000000000000000009
:1021700000005553004C55580050524553004855E7
:102180004D005446005443005041525400504D31CC
:102190003000504D325F3500504D310052420055F5
:1021A0004944000000535452004D494C4C495300DF
:1021B00041434300494E5F54454D500052414D004C
:1021C000474D540054494D450044415445004E4943
:1021D00044004E41004D4143005253534900475083
:1021E0005300424154000045565F450045565F4448
:1021F0000045565F430045565F4100524F5554001D
:1022000052494E0048414C4C004C4C004C50005040
:102210004952005746000000000047505F4600004A
:102220000047505F430047505F420047505F410006
:1022300000000000000000004E4F49534500534F7E
:1022400032005048330048434E0048434C00483267
:10225000530048320045544F00434C32004E4F006B
:10226000564F430053560041503200415031004C0C
:102270005047004E4F32004E4833004F3300434822
:1022800034004F3200434F3200434F00010101013F
:10229000010101010101010101010101010101012E
:1022A000010101010101010101010103010101011C
:1022B000010101010101010101010101010101010E
:1022C00001020101010103030101010301010101F7
:1022D00001010101010101010101010101010101EE
:1022E00001010303010101010101010101010101DA
:1022F00001010101010101010101010101010101CE
:1023000001010101010101010101010101010101BD
:1023100001010101010101010101010101010101AD
:10232000010101010101020101010101010101019C
:102330000101010101010101181002020202020261
:102340000202020202020202020202020000000075
:102350000200020000020202020100020202020266
:102360000202020202020200020202020202000251
:10237000010303030000010102010403030303033B
:10238000020202020202020202020202020202002F
:102390000000040202020202020002020202020221
:1023A0000202020202020202020200000000000019
:1023B0000000000202040200000002020202020207
:1023C00002020202020202020202020202020202ED
:1023D00002020202020202020202020202020202DD
:1023E0000202020202020101C728C328C028BC2839
:1023F000B828B428B028AC28A928A528A2289E2847
:102400009A28962891288E288B28862882287D282D
:102410007A28772873286F286C2868286428602811
:102420005D285828552852284F284B2847284228ED
:102430003C283728342830282D282A2827282428E3
:1024400020281D281928152812280F280C280928AB
:1024500005280128FC27F827F527F127EC27E7278F
:10246000E327DF27D727D327CC27C827C427BE27B2
:10247000BA27B727B427B027AD27A827A527A027B5
:102480009B27972792278D27892783277F277927BF
:1024900073276C27662760275C2753274927452722
:1024A00040273B27362732272D27282723271C277D
:1024B00015270E2707270127FB26F526F126EA26F2
:1024C000E426DE26D826D226CD26C826C326BE265A
:1024D000B926B426AD26A6269F269A2695269126AD
:1024E0008C26872681267B2674266E266726612603
:1024F0005A2653264C2645263F26382632262B269A
:1025000024261D26172610260A260426FD25F52535
:10251000EE25E725E125D925CF25C625BD25B725FB
:10252000B125AB25A5259F25992593258D258725A3
:1025300081257B25762571256C25662560255A2504
:102540004F2544254F50435F4E325F42494E004F66
:1025500050435F4E335F42494E004F52505F43003D
:102560004F52505F42004F52505F410050485F430E
:102570000050485F420050485F410053574950485F
:102580000053574941470053574950420053574958
:10259000494F00535749435500535749434C005343
:1025A00057494252005357494E4F005357494642EC
:1025B00000535749464C005357494341004F50433D
:1025C0005F50415254004F50435F504D3130004FE7
:1025D00050435F504D325F35004F50435F504D3197
:1025E000004F50435F50004F50435F5446004F50E0
:1025F000435F54430047505F505245530047505F7C
:1026000048554D0047505F54460047505F544300C3
:1026100047505F434F320047505F4F330047505F92
:102620004348340047505F534F320047505F504893
:10263000330047505F4F320047505F4E4F320047E4
:10264000505F4E4F0047505F4E48330047505F4841
:10265000434E0047505F48434C0047505F48325359
:102660000047505F48320047505F45544F00475085
:102670005F434F0047505F434C320056424F4F5428
:10268000005650524F47005641504900545552424F
:10269000005453540057465F450057465F43004877
:1026A000414C4C5F460048414C4C5F450048414C12
:1026B0004C5F44004C4C5F46004C4C5F45004C4C1A
:1026C0005F44004C505F46004C505F45004C505FEB
:1026D00044004C554D5F46004C554D5F45004C55F0
:1026E0004D5F440055535F35560055535F335633A5
:1026F0000054434300534F494C3300534F494C322D
:1027000000534F494C3100534F494C5F4600534FE3
:10271000494C5F4500534F494C5F4400534F494C6F
:102720005F4300504C563300504C563200504C56CC
:10273000310046534D0050444F500056444F500016
:1027400048444F5000414C5400434F555253455F4D
:102750004F470053504545445F4F47004C55580084
:10276000444D5F535000444D5F53540054585F50E4
:1027700057520044494E4F330044494D47320044BC
:10278000494B0044494355320044494900444942B9
:1027900052004449434C00444946004449434100E7
:1027A00044494E4100575400434F4E4400444F00AB
:1027B0004F525000504800524200554944004D5776
:1027C000494649004D425400535452004D494C4C27
:1027D00049530041434300494E5F54454D50005218
:1027E000414D00474D540054494D45004441544526
:1027F000004E4944004E41004D414300525353495D
:102800000047505300424154004446004C43005797
:10281000460043550052414400504C560057560064
:10282000414E450046440053440054440055560070
:10283000504152004C5700534F494C00534F494CA4
:10284000540048554D420054464200544342005003
:1028500053004D460055530044555354004C44001A
:1028600043504700434447004D43500053540050E9
:102870004952004C554D004C4C004C500048414CC6
:102880004C005642520042454E44005057005041C1
:102890000048554D41005446410054434100564FB5
:1028A00043004F33004E4F32005356004150320028
:1028B000415031004E4833004C50470043483400EB
:1028C0004F3200434F3200434F002A2A2A2A2A2A35
:1028D0002A2A2A2A2A2A2A2A2A2A2A2A2A2A2A2A58
:1028E0002A2A2A2A2A2A2A0050415353574F52444F
:1028F0003A20004C4F47494E3A200041504E3A2072
:10290000002A2A2A2A2A2A2A2A2A2A2A2A2A2A2A51
:102910002A2A2A2A2A2A2A2A2A2A2A2A2A2A004E1D
:1029200029462940293A2934292B29564552534909
:102930004F4E3A0053495A453A00504154483A00E4
:1029400046494C453A004E4F5F46494C45002F558D
:102950005047524144452E545854006C2A5F2A4D2A
:102960002A3A2A2C2A1A2A0B2A032AF429E329D1E3
:1029700029CD29C229B729A6299B298F297F294139
:1029800054234654504357443D222573220D0041A1
:1029900054234654504C4953540D0041542346543B
:1029A000505057440D0041542346545044454C4523
:1029B0003D222573220D0023465450524543563A7A
:1029C00020004E4F2043415252494552002B2B2BA1
:1029D0000023465450474554504B543A2025732CFD
:1029E000302C004154234654504150504558543DDA
:1029F00025750D00415423465450474554504B54BF
:102A00003F0D00234654504D534700415423465434
:102A100050524543563D25750D00415423465450B0
:102A20004653495A453D222573220D004154234601
:102A30005450545950453D300D0041542346545094
:102A4000474554504B543D222573220D00415423D9
:102A50004654505055543D222573222C300D0041D0
:102A60005423465450434C4F53450D004154234684
:102A700054504F50454E3D2225733A2575222C2245
:102A80002573222C222573222C25750D00702B5ABC
:102A90002B3E2B302B1E2B042BFD2ADB2AD02AB7F2
:102AA0002AA32A6D756C7469706172742F666F72D7
:102AB0006D2D64617461006170706C69636174692B
:102AC0006F6E2F6F637465742D73747265616D0022
:102AD000746578742F706C61696E006170706C69D8
:102AE000636174696F6E2F782D7777772D666F72BB
:102AF0006D2D75726C656E636F64656400667261DE
:102B00006D653D002F676574706F73745F667261E9
:102B10006D655F7061727365722E706870004154EC
:102B200023485454505243563D25752C25750D00AD
:102B3000234854545052494E473A20302C004154B7
:102B40002348545450534E443D302C25752C222597
:102B500073222C25752C25730D00415423485454A1
:102B6000505152593D302C25752C222573220D00D1
:102B7000415423485454504346473D302C2225733A
:102B8000222C25750D00E42DDA2DCF2DC42DB82D66
:102B9000A82D992D932D852D792D6D2D632D592DD2
:102BA000502D472D3E2D352D2C2D232D182D122D3A
:102BB000072D012DF92CEF2CE52CDB2CD32CCB2C65
:102BC000B32CA92C9D2C942C882C7A2C472C312C9E
:102BD000252C192C112C092CFE2BF32BE92BE02B87
:102BE0004154235348444E0D0041542B575334361F
:102BF0003F0D002B43455245473A20302C004154AD
:102C00002B43455245473F0D002B434D47523A2039
:102C1000002B434D474C3A200041542B5753343638
:102C20003D25750D0041542353413D25752C310D33
:102C30000041542B434D474C3D2252454320554EB5
:102C400052454144220D002532686875252A6325C6
:102C500032686875252A632532686875252A6325D8
:102C600032686875252A632532686875252A6325C8
:102C70003268687525686864220041542350534EB9
:102C8000543F3A202C0D0A0041542B4353510D0A56
:102C90003A202C002B49503A20220D0A004154239F
:102CA000475052533D25750D00415425732225731D
:102CB000220D0041542B434744434F4E543D312C89
:102CC000224950222C222573220D00475052533A9C
:102CD000203000475052533A20310041542347508E
:102CE00052533F0D0041542B43434C4B3F0D004189
:102CF000542B434F50533F0D005352494E473A20F7
:102D0000002B434D5449004154234E49545A3D37FA
:102D10000D00415445300D0041542B434D45453D78
:102D2000310D00415423434349440D004154234392
:102D3000494D490D004154234347534E0D00415422
:102D40002343474D520D0041542343474D4D0D0041
:102D500041542343474D490D0041542348575245A0
:102D6000560D0041542350534E543F0D0041542BF7
:102D70004353510D0A3A202C002354454D504D45E4
:102D800041533A200041542354454D504D4F4E3D40
:102D9000310D0023475052530041542350415353A7
:102DA000573D222573220D00415423555345524966
:102DB000443D222573220D002B434744434F4E547C
:102DC0003D312C002B43475245473A20302C0041DF
:102DD000542B43475245473F0D002B435245473A3A
:102DE00020302C0041542B435245473F0D005B508F
:102DF00057525D204E6F69736520696E20496E746D
:102E0000657272757074696F6E206C696E65005BB7
:102E10005057525D2064656570536C656570205233
:102E20005443206572726F7200496E76616C6964FA
:102E300020474D542076616C756500496E636F7252
:102E40007265637420696E70757420706172616D53
:102E500065746572730A005B5254435D20005772BB
:102E60006F6E672074696D6520666F726D61742E78
:102E7000204D757374206265202264643A68683A54
:102E80006D6D3A7373220A005B5254435D20001B40
:102E9000300630F02FE02FD32FC92FB92FA42F8D5C
:102EA0002F7B2F6F2F682F562F432F362F2C2F1C41
:102EB0002FF92EF32ECA2EB92E5B253032753A2506
:102EC0003032753A253032755D0025303275256314
:102ED00025303275256325303275256325303275EE
:102EE00025632530327525632530327525632530FD
:102EF0003275006572726F720025732C2025303296
:102F0000752F253032752F253032752C2025303223
:102F1000753A253032753A25303275004F6E63654B
:102F200020706572206D696E757465005B6D6D5DF6
:102F3000202D2D3E20005B68683A6D6D5D202D2DA3
:102F40003E20005B446174652C2068683A6D6D5DBD
:102F5000202D2D3E20005B4461792C2068683A6D5D
:102F60006D5D202D2D3E20005B253032755D005BB0
:102F7000253032753A253032755D005B253032756B
:102F80002C20253032753A253032755D005B2530B6
:102F900032752C20253032753A253032753A25307D
:102FA00032755D00496E636F727265637420616C87
:102FB00061726D206D6F6465004F6E636520706592
:102FC00072207365636F6E64005B73735D202D2DDB
:102FD0003E20005B6D6D3A73735D202D2D3E200009
:102FE0005B68683A6D6D3A73735D202D2D3E20004D
:102FF0005B446174652C2068683A6D6D3A73735D4B
:10300000202D2D3E20005B4461792C2068683A6DAC
:103010006D3A73735D202D2D3E2000416C61726D01
:10302000206D61746368657320005B53445D2049C3
:103030006E76616C69642066696C656E616D6500B1
:103040007C3C3E5E2B3D3F2F5B5D3B2C2A225C008F
:10305000000008090000000000000000000000005F
:103060000000000000000000000000000000000060
:103070000000000000000000000000000000000050
:103080000000000000010208101020408004081019
:1030900020400202040810204080010280204004E9
:1030A0002001010204081020014080408001020834
:1030B0000408800410040201081005050505030337
:1030C00003030101010404030606060606060606BC
:1030D00001040501050103020202020202010202CB
:1030E0000505040403040401030407070707070098
:1030F000202326292C2F32002225282B2E31340084
:103100002124272A2D30336364696E6F70737578BC
:10311000585B0000A023D835053D494C8B536F55B3
:103120006B5B147A11241FBECFEFD1E2DEBFCDBF9F
:1031300016E0A0E0B2E0ECE3F1E101E00BBF02C079
:1031400007900D92AE35B107D9F726E1AEE5B6E0AE
:1031500001C01D92AA3FB207E1F718E1C2E9D8E128
:1031600004C02197FE010E94287DCA38D107C9F703
:103170000E94705F0C949C880C940000EF92FF9268
:103180000F931F93CF93DF937C01162F03E020E072
:1031900040E069EA72E08BE39EE00E94174480ED14
:1031A0009EE00E94004E8DE39EE00E94A347909314
:1031B000800680937F066DE77AE082E990E10E94C5
:1031C000FA5A60917F067091800682E990E10E9430
:1031D0007D5A8091510E90E090937E0680937D06FB
:1031E0004AE066E776E00E94A18180917D06909199
:1031F0007E060A973CF4809176068093770680E3FA
:103200008093760646E756E0B70180ED9EE00E9487
:103210004B52082F809375064CE556E0B70180EDC0
:103220009EE00E944B5280937506C82FD0E0C00FDD
:10323000D11D8091520E90E090937E0680937D0682
:103240004AE066E776E00E94A18180917D06909138
:103250007E060A973CF4809176068093770680E399
:103260008093760646E756E0B70180ED9EE00E9427
:103270004B5280937506C80FD11D4CE556E0B7013F
:1032800080ED9EE00E944B5280937506C80FD11DC1
:103290008091570E90E090937E0680937D064AE0E1
:1032A00066E776E00E94A18180917D0690917E067E
:1032B0000A973CF4809176068093770680E38093AA
:1032C000760646E756E0B70180ED9EE00E944B523D
:1032D00080937506C80FD11D4CE556E0B70180ED0F
:1032E0009EE00E944B5280937506C80FD11D8091BD
:1032F000540E90E090937E0680937D064AE066E748
:1033000076E00E94A18180917D0690917E060A97C9
:103310003CF4809176068093770680E3809376066E
:1033200046E756E0B70180ED9EE00E944B52809345
:103330007506C80FD11D4CE556E0B70180ED9EE043
:103340000E944B5280937506C80FD11D8091550E77
:1033500090E090937E0680937D064AE066E776E0F3
:103360000E94A18180917D0690917E060A973CF48F
:10337000809176068093770680E38093760646E711
:1033800056E0B70180ED9EE00E944B528093750697
:10339000C80FD11D4CE556E0B70180ED9EE00E94BC
:1033A0004B5280937506C80FD11D8091560E90E048
:1033B00090937E0680937D064AE066E776E00E9461
:1033C000A18180917D0690917E060A973CF48091C0
:1033D00076068093770680E38093760646E756E08C
:1033E000B70180ED9EE00E944B5280937506C80F96
:1033F000D11D46E456E0B70180ED9EE00E944B529D
:1034000080937506C80FD11D2091980730919907B8
:1034100048E956E0B70180ED9EE00E946F5280932C
:103420007506C80FD11D46E456E0B70180ED9EE059
:103430000E944B5280937506C80FD11D4AE066E783
:1034400076E0812F90E00E94A18146E756E0B70127
:1034500080ED9EE00E94D75280937506C80FD11D63
:1034600080ED9EE00E94644DCF30D10519F465EBEC
:1034700072E010C064ED72E082E990E10E94F159BF
:103480006FE070E06C1B7D0B82E990E10E94315A85
:103490006CEC72E082E990E1DF91CF911F910F9186
:1034A000FF90EF900C947D5A0F931F9385EC98E05A
:1034B0000E948D3480937A0681114EC067E67AE0CF
:1034C00082E990E10E94225B62E57AE082E990E184
:1034D0000E94FA5A0091980710919907409134027E
:1034E0005091350228E936E066E372E085EC98E019
:1034F0000E94E62E80937A0681112BC060E47AE068
:1035000082E990E10E94FA5A6091BA0B7091BB0B6C
:1035100082E990E10E94935A6CEF72E082E990E1B7
:103520000E94F1594091D7085091D8086091D30872
:103530007091D40882E990E10E94395B8091BA0BC6
:10354000883C21F481E0809374061DC010927406BB
:103550001AC06BE27AE008C065E17AE082E990E1A6
:103560000E94225B68E07AE082E990E10E94FA5AC8
:1035700040917A0650E060E070E02AE030E082E9B5
:1035800090E10E94BE5A60EF79E082E990E10E94EA
:10359000225B85EC98E01F910F910C948A35CF93B4
:1035A000DF93EC0185EC98E00E948D3480937A06DD
:1035B000811126C06DED79E082E990E10E94225BE5
:1035C0006CE385EC98E00E94C2278093600681112D
:1035D0003CC085EC98E00E94CE2F8DE39EE00E94D7
:1035E000A347BC0182E990E10E947D5A8DE39EE0F1
:1035F0000E942245BC0182E990E10E947D5A25C0CB
:1036000067EC79E082E990E10E94225B6AEB79E065
:1036100082E990E10E94FA5A40917A0650E060E017
:1036200070E02AE030E082E990E10E94BE5A2091E9
:103630007D0630917E062F5F3F4F30937E062093AC
:103640007D06C217D3070CF0ADCF85EC98E00E9441
:103650008A3562EA79E082E990E1DF91CF910C94BA
:10366000225B90E0FC013197E831F10508F04CC095
:10367000EA59FF4F0C94287D63E979E047C065E77C
:1036800079E044C06BE579E041C06AE379E03EC08F
:1036900062E279E03BC068E079E038C060EF78E052
:1036A00035C068ED78E032C06DEB78E02FC06EE990
:1036B00078E02CC06BE678E029C063E378E026C0B0
:1036C0006EEF77E023C060ED77E020C063E977E03C
:1036D0001DC06DE577E01AC068E177E017C068EDBE
:1036E00076E014C063E876E011C069E476E00EC0CD
:1036F00065E176E00BC065EE75E008C069EA75E04B
:1037000005C06CE775E002C064E775E082E990E10E
:103710000C94225B0F931F9368E575E082E990E1BA
:103720000E94225B85EC98E00E948D3480937A069B
:10373000811130C062E475E082E990E10E94225B71
:103740006FE275E082E990E10E94225B40912502E0
:10375000509126020AE012E027E132E067E272E0CF
:1037600085EC98E00E94913380937A06882351F08B
:103770006EE075E082E990E10E94FA5A80917A0643
:103780000E94311B43E06CE271E086E990E10E9407
:103790008E5B06C068EF74E082E990E10E94225BD4
:1037A00060EE74E082E990E10E94225B85EC98E093
:1037B0001F910F910C948A3582E990E10E946B5918
:1037C0008DE39EE00E94154986E990E10E94C05E6B
:1037D00080937906882361F08130C1F46BEB74E04B
:1037E00082E990E10E94225B43E06CE271E017C045
:1037F0006CEC74E082E990E10E94225B43E06CE2B1
:1038000071E086E990E10E948E5B0DC060EB74E090
:1038100082E990E10E94225B41E064EF71E086E979
:1038200090E10E94C45B63E676E086E990E10E9445
:10383000475F62E974E082E990E10E94225B65E8FB
:1038400074E082E990E10E94FA5A63E676E082E948
:1038500090E10E947D5A63E774E082E990E10E9462
:10386000FA5A86E990E10E94645F482F50E060E0D8
:1038700070E02AE030E082E990E10E94BE5A65E5FE
:1038800074E082E990E10E94225B21E636E042E6A4
:1038900056E063E472E085EC98E00E94A53085EC88
:1038A00098E00E9403318DE39EE00E9415498091CB
:1038B0005E0290E00E94CF1A8DE39EE00E94A34733
:1038C000BC0182E990E10E947D5A6DE274E082E9D8
:1038D00090E10E94225B80ED9EE00E94004E80916C
:1038E0007306882399F06FE572E080ED9EE00E94F8
:1038F000835080937506813019F460E274E002C051
:103900006FE074E082E990E10E94225B6FE572E073
:1039100080ED9EE00E94325380937506813019F449
:1039200062E074E002C061EF73E082E990E10E941E
:10393000225B68ED73E082E990E10E94F1596091A9
:103940005C0270915D0282E990E10E94935A4EEE12
:1039500053E06FE572E080ED9EE00E94D7528093C5
:103960007506813019F462EE73E002C067EC73E013
:1039700082E990E10E94225B62E473E082E990E1D7
:103980000E94225B6DEB72E082E990E10E94225B73
:1039900068E372E082E990E10E94225B82E990E1B3
:1039A0000C946B590F9365E372E082E990E10E94F9
:1039B000225B62E372E082E990E10E94225B6FE2A7
:1039C00072E082E990E10E94225B6CE272E082E99F
:1039D00090E10E94225B69E272E082E990E10E943C
:1039E000225B66E272E082E990E10E94225B63E280
:1039F00072E082E990E10E94225B60E272E082E97B
:103A000090E10E94225B6DE172E082E990E10E9408
:103A1000225B0E945D3660936D0670936E06809304
:103A20006F069093700647E452E061E081E896E00B
:103A30000E9493238BE39EE00E944D42482F50E06A
:103A400064E381E896E00E94C51F81E896E00E9449
:103A5000071E0E94541A609174068FE592E00E943E
:103A6000BE180E948A1B80915C0290915D02209199
:103A70007B0630917C06821B930B05978A3091055B
:103A800014F48FE090E090937206809371066DE5D8
:103A900074E082E990E10E94F159609171067091A1
:103AA000720682E990E10E94935A8091710690918A
:103AB00072066CE370E00E94D37C90937E06809344
:103AC0007D064AE066E776E00E94A18180917D064E
:103AD00090917E060A973CF4809176068093770653
:103AE00080E38093760680917606809359028091D8
:103AF000770680935A0280917106909172062CE3AA
:103B000030E0B9010E94D37CCB01B9010E94D37C83
:103B100090937E0680937D064AE066E776E00E94F9
:103B2000A18180917D0690917E060A973CF4809158
:103B300076068093770680E38093760680917606FA
:103B40008093560280917706809357028091710688
:103B50009091720620E13EE0B9010E94D37CCB0136
:103B6000B9010E94D37C90937E0680937D064AE043
:103B700066E776E00E94A18180917D0690917E06A5
:103B80000A973CF4809176068093770680E38093D1
:103B90007606809176068093530280917706809313
:103BA000540266E072E082E990E10E94225B65E1E6
:103BB00075E082E990E10E94F15960E572E082E9E6
:103BC00090E10E94F15965E175E082E990E10E947F
:103BD0007D5A82E990E10E947F5903E020E040E0B5
:103BE00060E572E08BE39EE00E94174482E990E179
:103BF0000E946B596DE771E082E990E10E94225BBF
:103C00006EE671E082E990E10F910C94225BCF9215
:103C1000DF92EF92FF920F931F93CF93DF93EC010C
:103C200082E990E10E949E590FE110E060E08DE38F
:103C30000E94CF3901501109C9F760E08DE00E9460
:103C4000CF3960E08AE00E94CF398981813021F448
:103C500060E08AE894E00CC0811104C060E088E96B
:103C600094E006C0823009F095C060E087EA94E0F5
:103C70000E94DC3960E089EB94E00E94DC3960E06E
:103C800083EC94E00E94DC397E0189EEE81A8EEF25
:103C9000F80AF7016081718180E090E000E02AE09D
:103CA00030E040E050E00E94EC3960E08DE00E949E
:103CB000CF3960E08AE00E94CF3960E08CEC94E07C
:103CC0000E94DC396A8D70E080E090E02AE030E00C
:103CD00040E050E00E94EC3960E08DE00E94CF3976
:103CE00060E08AE00E94CF3960E08AED94E00E94B3
:103CF000DC3967966E0100E010E0F7018081918168
:103D000060E00817190740F4F60181916F010E94E5
:103D1000703A0F5F1F4FF1CF8DE00E94CF3960E006
:103D20008AE00E94CF3960E088EE94E00E94DC399E
:103D300000E010E0F7018081918160E00817190729
:103D400030F489910E94CF390F5F1F4FF3CF8DE080
:103D50000E94CF3960E08AE00E94CF39CFE1D0E005
:103D600060E08DE30E94CF392197D1F760E08DE0CC
:103D70000E94CF3960E08AE00E94CF3982E990E169
:103D8000DF91CF911F910F91FF90EF90DF90CF9037
:103D90000C94C359DF91CF911F910F91FF90EF9039
:103DA000DF90CF900895FF920F931F93CF93DF93EF
:103DB000062FF42E122F20919710A62FB0E0273453
:103DC00080F0FC012689FD01273019F4E05BFB4EF1
:103DD0000BC0283019F4EA5BF34F06C0EF50F34EE6
:103DE00003C0FD01E65CFC4DC591D491C13069F57D
:103DF000F1E0FF1508F059C060E57BE082E990E151
:103E00000E94FA5A6AE27BE082E990E10E94FA5A43
:103E1000402F50E060E070E02AE030E082E990E17D
:103E20000E94375A67E27BE082E990E10E94FA5AE9
:103E30002AE030E041E050E060E070E082E990E1AB
:103E40000E94375A62E27BE02AC0CF1571F169E126
:103E50007BE082E990E10E94FA5A63EF7AE082E91E
:103E600090E10E94FA5A402F50E060E070E02AE0B2
:103E700030E082E990E10E94375A67EE7AE082E909
:103E800090E10E94FA5A4C2F50E060E070E02AE086
:103E900030E082E990E10E94375A68ED7AE082E9E9
:103EA00090E10E94FA5A4F2D49C020919710273473
:103EB00080F0FC018689FD01873019F4E05BFC4E3F
:103EC0000BC0883019F4E75AF44F06C0E75DF34E93
:103ED00003C0FD01E457FD4D85919491C82F8117D2
:103EE000C1F16FEC7AE082E990E10E94FA5A6FE941
:103EF0007AE082E990E10E94FA5A402F50E060E0B7
:103F000070E02AE030E082E990E10E94375A63E9EC
:103F10007AE082E990E10E94FA5A4C2F50E060E08A
:103F200070E02AE030E082E990E10E94375A64E8CC
:103F30007AE082E990E10E94FA5A412F50E060E075
:103F400070E02AE030E082E990E10E94BE5A8FEFF3
:103F500001C081E0DF91CF911F910F91FF900895F3
:103F6000FC01E95EFE4F20813181620F731FDC018D
:103F700012968D919C9113978617970720F0718365
:103F8000608381E0089580E008956F927F928F9220
:103F90009F92AF92BF92CF92DF92EF92FF920F93D8
:103FA0001F93CF93DF93CDB7DEB7A8970FB6F894E2
:103FB000DEBF0FBECDBF8C01F62E5A016C0127EE7D
:103FC000C21A2EEFD20AD6018C918E3109F418C193
:103FD000F8018181813009F087C080919710E62F28
:103FE000F0E09E012F5F3F4F7901873490F0D801B8
:103FF00056968C91EE0FFF1F873019F4E05BFA4E56
:104000000CC0883019F4ED5CF24F07C0E754F24E53
:1040100004C0EE0FFF1FE851FC4D65917491C7017C
:104020000E94F1804E01B5E18B0E911C4AE0B40173
:10403000C5010E94A181F70101900020E9F73197A5
:10404000BF016E197F09F40101900020E9F7319753
:10405000E819F9096E0F7F1F6E5F7F4FC8010E943C
:10406000B01F882309F464C0F801E95EFE4FA08008
:10407000B180F70101900020E9F73197AF014E19A7
:104080005F09F40101900020E9F73197E819F90977
:1040900035016E1A7F0AC501841B950B8E1B9F0B81
:1040A0004596B701800F911F0E940981F801E60D26
:1040B000F71D8AE3858BF40101900020E9F7319721
:1040C000AF0148195909C3014696B401800F911FE9
:1040D0000E940981F801EA0DFB1D83E2868BF6013F
:1040E00080818F5F808384C021E04F3F510509F0BC
:1040F0000CF540E06F2DC8010E94D31E8F3FC1F028
:1041000080919710EF2DF0E08734F0F0D8015696AB
:104110008C91873089F4E05BFB4E859194918130DE
:10412000C1F563E070E0C8010E94B01F81110FC0AB
:104130008FEF67C041E0DECF883019F4EA5BF34FC0
:10414000ECCFEF50F34EE9CFE65CFC4DE6CFF80143
:10415000E95EFE4F20813181F801E20FF31FF48AFE
:10416000A58AB68A178AF60180818E31D0F590E053
:10417000AC01440F551F840F951F800F911FFC0148
:10418000E651FE4F1082319623502083319683E012
:1041900027C062E070E0C8010E94B01F882341F28E
:1041A000F801E95EFE4F20813181F801E20FF31F33
:1041B000F58AA68A178AD6018C918E3190F490E008
:1041C000AC01440F551F840F951F800F911FFC01F8
:1041D000E651FE4F1082319622502083319682E0C4
:1041E0008083F60180818F5F80838091980785505E
:1041F000D8015B968C93F801E95EFE4F808101C087
:1042000080E0A8960FB6F894DEBF0FBECDBFDF9159
:10421000CF911F910F91FF90EF90DF90CF90BF90C3
:10422000AF909F908F907F906F900895AF92BF92C4
:10423000CF92DF92EF92FF920F931F93CF93DF9372
:104240001F92CDB7DEB76C01F62E03E910E060E0F7
:10425000C80179830E948E880F5F1F4F7981033ACE
:104260001105A9F7D601149681E1FD0111928A95F5
:10427000E9F70F2D172F5D0183E9E82EF12C680176
:10428000F8016081633241F0603231F0C7010E9471
:104290008E88F801808105C06FE5C7010E948E8875
:1042A0008FE5F50180830F5F1F4FF6018081882322
:1042B00051F0FFEFEF1AFF0A8FEFA81AB80AE3EAEE
:1042C000EE16F104E1F60F90DF91CF911F910F915F
:1042D000FF90EF90DF90CF90BF90AF900895CF9276
:1042E000DF92EF92FF920F931F93CF93DF937B01A7
:1042F000EC01249681E1FE0111928A95E9F76B01A8
:1043000000E010E0B8016D567F4F86E990E10E9411
:10431000D65C8993F60181936F010F5F1F4F0031C7
:10432000110581F7F701108ADF91CF911F910F914D
:10433000FF90EF90DF90CF900895CF93DF93EC0143
:1043400060E083EA90E00E948E888FEF90E09B838C
:104350008A83FE01E158FE4F8CE08083BE016C5FD2
:104360007F4F81E896E00E946F211D8ADF91CF91F7
:10437000089563EA70E086E990E10C94D65CAF9210
:10438000BF92CF92DF92EF92FF920F931F93CF9342
:10439000DF93CDB7DEB765970FB6F894DEBF0FBEDB
:1043A000CDBF8C01DC0111966C93119786E0569677
:1043B0008C93F801779680E091E0DF019C011D92DB
:1043C00021503040E1F7ED52FE4F8AE5DF011D92AA
:1043D0008A95E9F7E15DF10910828CE3F801878B9A
:1043E0008DE3808F8EE3818F613009F0FFC0809173
:1043F0009710873410F480E801C086E8D8015A96F7
:104400008C935A975B961C925B9783E25C968C9395
:104410007801B9EEEB1ABEEFFB0A86E090E0F701F7
:1044200091838083809197109E012F5F3F4F690198
:10443000873460F170919F1060919E1050919D1093
:1044400040919C1030919B1020919A10909199105E
:10445000809198101F927F931F926F931F925F938A
:104460001F924F931F923F931F922F931F929F93E0
:104470001F928F9386EF94E09F938F931F9281E119
:104480008F93DF92CF920E94E38117C030919C10EE
:1044900020919D1090919E1080919F103F932F939B
:1044A0009F938F9387E195E09F938F931F9281E174
:1044B0008F93DF92CF920E94E3810FB6F894DEBF14
:1044C0000FBECDBFD601F60101900020E9F731976C
:1044D000EC19FD09CD018C199D098E179F0778F401
:1044E0002D91222361F0F70180819181F801E80F7D
:1044F000F91F278B0196F70191838083E4CFD701C1
:104500008D919C911197F801E80FF91F23E2278BF9
:1045100001968D939C93F801349698012C5E3F4F41
:104520004FE58191811144C0F70180819181F801AB
:10453000E80FF91F23E2A22EA78A0196D7018D93D7
:104540009C93C8010E94B921B82E6E01B2E1CB0E36
:10455000D11C4AE0B60190E00E94A181F6010190D1
:104560000020E9F73197AF014C195D09F70180810F
:1045700091814796B601800F911F0E940981F60133
:1045800001900020E9F731979F012C193D09D701CF
:104590004D915C911197240F351FF801E20FF31F25
:1045A000A78A2F5F3F4F2D933C9361E06B0D87C02F
:1045B000D701833241F48D919C91DC01A00FB11F92
:1045C00057964C9307C06D917C91DB01A00FB11FF2
:1045D00057968C93D7018D919C91119701968D934D
:1045E0009C93E217F30709F09CCF9ECF61118AC01C
:1045F00080919710873410F480E001C086E0F801C4
:10460000828F30919C1020919D1090919E108091EE
:104610009F1040919710B801695E7E4F7B0147342F
:10462000D8F080919810848F80919910858F809117
:104630009A10868F80919B10878F80919C1080A309
:1046400080919D1081A380919E1082A380919F10E4
:1046500083A38DE090E007C0F801348F258F968FFB
:10466000878F89E090E0D7018D939C93F801349671
:1046700098012C5E3F4F4FE58191811125C0F701D4
:1046800080819181F801E80FF91F23E2278B0196C1
:10469000D7018D939C93C8010E94B921F701208115
:1046A0003181F801E20FF31F878B2F5F3F4FD70156
:1046B0002D933C932550F801238F61E0680F83EA26
:1046C00090E00E948E881EC0D701833241F48D9104
:1046D0009C91DC01A00FB11F57964C9307C06D91C0
:1046E0007C91DB01A00FB11F57968C93D7018D9160
:1046F0009C91119701968D939C93E217F30709F013
:10470000BBCFBDCF65960FB6F894DEBF0FBECDBF51
:10471000DF91CF911F910F91FF90EF90DF90CF909D
:10472000BF90AF900895CF93C62FBA0181E896E06D
:104730000E9416216C2F81E896E0CF910C94BF2146
:1047400081E896E00C949D21CF92DF92EF920F9337
:104750001F93CF93DF93EC0180E092ECA1E0B0E0F7
:1047600089839A83AB83BC8388E893E1A0E0B0E0BF
:104770008D839E83AF83B88784E690E0A0E0B0E0AD
:1047800089879A87AB87BC8781E08D87FE01E254D9
:10479000FD4F88E0DF011D928A95E9F73896108277
:1047A000319610826EE2CE0188539D4F0E942240C6
:1047B0009E012C5E3D4F8EE1F901982F11929A9542
:1047C000E9F78E010E5C1D4FD801E82F1D92EA9586
:1047D000E9F7DE01A05BBD4FFD0111928A95E9F773
:1047E00081E4C82E80E5D82E8EE4E82EF901C0823F
:1047F000D182E28245E753E765E672E7F80140833C
:1048000051836283738388E0EBE1F5E001900D92C0
:104810008A95E1F7EBE9FAE2859194919F938F9362
:10482000CE0182599D4F9F938F930E942082CE018B
:1048300044969F878E8780E092E0998B888B0F90BB
:104840000F900F900F90DF91CF911F910F91EF90EC
:10485000DF90CF900895CF93DF93EC0128EB3BE0FE
:1048600040E050E065E275E00E94F357882351F084
:10487000BE0169517D4F44E255E0CE010E94355999
:1048800080E001C081E0DF91CF9108952F923F92A7
:104890004F925F926F927F928F929F92AF92BF9250
:1048A000CF92DF92EF92FF920F931F93CF93DF93FC
:1048B000CDB7DEB7C952D2400FB6F894DEBF0FBEF7
:1048C000CDBF5C01762E4A01302E212E6E2CC95DA3
:1048D000DD4FF882C752D24026018E01005F1D4F86
:1048E00084E1F80111928A95E9F74091D708509137
:1048F000D8086091D3087091D408C801C85DDD4F15
:104900002883C852D240C75DDD4F3883C952D24098
:104910000E94518168E275E0C8010E944181C85D32
:10492000DD4F2881C852D240C75DDD4F3881C95262
:10493000D240892B09F443C1CC5DDD4F1882198226
:104940001A82C452D240EDE8FAE2859194913F93E5
:104950002F939F928F929F938F939E012F5F3F4F34
:1049600049013F932F930E942082E0EDCE2EE7E095
:10497000DE2EE12CF12C02E315E029E335E041E7DE
:1049800055E0B401C5010E940E570FB6F894DEBF82
:104990000FBECDBF823031F4F501E951FD4F8FEFED
:1049A0009FEF0EC0833029F4C5010E942B2481E0C3
:1049B00007C1811108C0F501E951FD4F8EEF9FEF4E
:1049C00091838083F4CFF2E0F71528F1EFE8FAE263
:1049D000859194912F923F921F927F929F938F93F4
:1049E0009F928F920E94208218E8E12E13E1F12E0F
:1049F00000E010E029E335E041E755E0B401C501EE
:104A00000E94F5560FB6F894DEBF0FBECDBF8130C1
:104A100009F0CFC0CCC08DEF870D823008F042C0C6
:104A2000E1E9FAE225913491C50182599D4F9F93A6
:104A30008F935F924F922F923F92872D90E0039732
:104A40009F938F933F932F939F928F920E942082E8
:104A500018E8E12E13E1F12E00E010E029E335E043
:104A600041E455E0B401C5010E94F5560FB6F89433
:104A7000DEBF0FBECDBF813009F09BC064E670E0A1
:104A800080E090E00E948C3629E335E041E755E074
:104A9000662DC95DDD4F7881C752D240C5010E94A5
:104AA000F55683C0F5E07F1288C0E7E9FAE2659128
:104AB00074911E012BE0221A2EEF320AC1010E94CE
:104AC000F180E1E9FAE285919491950122593D4FF7
:104AD0003F932F9392012D5F3F4F220F331F3F9340
:104AE0002F933F922F921F921F929F938F939F928B
:104AF0008F920E94208218E8E12E13E1F12E00E04F
:104B000010E029E335E041E455E0B401C5010E941D
:104B1000F5560FB6F894DEBF0FBECDBF813009F059
:104B200048C064E670E080E090E00E948C36E9E9DD
:104B3000FAE265917491C4010E94F18061E0C401C0
:104B40000E94DC39862CC95DDD4F9880C752D24067
:104B5000480C591C84149504E9F021E0AE014C5D29
:104B60005D4FB40186E990E10E94445E61E0CC5D56
:104B7000DD4F8881C452D2400E94CF3961E0CB5DC5
:104B8000DD4F8881C552D2400E94CF39FFEF8F1A86
:104B90009F0AE0CF08E813E120E030E049E355E068
:104BA00061E775E0C5010E940A58813021F480E078
:104BB00007C082E005C083E003C084E001C085E057
:104BC000C75DDD4F0FB6F894DEBF0FBECDBFDF91DE
:104BD000CF911F910F91FF90EF90DF90CF90BF90FA
:104BE000AF909F908F907F906F905F904F903F908D
:104BF0002F900895AF92BF92CF92DF92EF92FF92E3
:104C00000F931F93CF93DF93CDB7DEB7E6970FB621
:104C1000F894DEBF0FBECDBF6C019A01AB01E3E992
:104C2000FAE265917491CE0101965C012BAB3CAB2D
:104C30004DAB5EAB0E94F1802BA93CA94DA95EA9AA
:104C4000B501C6010E94F357882309F474C028E80F
:104C500033E140E050E068EA75E0C6010E94F35796
:104C6000882309F46AC06BE675E0D6011E968D9123
:104C70009C911F970E94F880009709F460C00E94E1
:104C8000A380F601EB50FD4F918380836BE675E0C6
:104C900080E090E00E94F8806BE675E0F601868582
:104CA00097850E94F880009709F44BC00E94A3806A
:104CB000892B09F448C0E5E9FAE2859194911F92A5
:104CC0001F921F921F929F938F93BF92AF920E9449
:104CD000208210EDE12E17E0F12E00E010E029E334
:104CE00035E045E455E0B501C6010E94F5560FB622
:104CF000F894DEBF0FBECDBF8130C9F428E833E1A0
:104D000040E050E068EA75E0C6010E94F35788234E
:104D1000E1F0D6011E96ED91FC911F9752968D9170
:104D20009C915397E80FF91F108280E011C08230E8
:104D300071F087E00DC081E00BC082E009C083E024
:104D400007C084E005C088E003C085E001C086E0BC
:104D5000E6960FB6F894DEBF0FBECDBFDF91CF91C0
:104D60001F910F91FF90EF90DF90CF90BF90AF9089
:104D700008955F926F927F928F929F92AF92BF92AF
:104D8000CF92DF92EF92FF920F931F93CF93DF9317
:104D9000CDB7DEB7C456D1090FB6F894DEBF0FBE4B
:104DA000CDBF5C014C0189E0881A8DEF980AF401AF
:104DB00010821182128213823E01F3E36F0E711C86
:104DC00082E3582EF301852D11928A95E9F7E5E6E5
:104DD000F9E2859194917F936F939F938F937F9244
:104DE0006F920E94208298E9C92E9AE3D92EE12C75
:104DF000F12C09E315E022E335E041E755E0B3018A
:104E0000C5010E940E570F900F900F900F900F90BA
:104E10000F90813031F0823039F5C5010E942B248A
:104E200023C08E010F5F1F4FF80111925A94E9F7CA
:104E300069E475E0C8010E942B8165E275E0C80154
:104E40000E942B8165E575E0F501868597850E94B6
:104E50006081892B59F0A801B401C5010E94355920
:104E6000882331F083E005C081E003C082E001C007
:104E700080E0CC59DF4F0FB6F894DEBF0FBECDBF38
:104E8000DF91CF911F910F91FF90EF90DF90CF9026
:104E9000BF90AF909F908F907F906F905F9008959C
:104EA0007F928F929F92AF92BF92CF92DF92EF92BA
:104EB000FF920F931F93CF93DF93CDB7DEB7649725
:104EC0000FB6F894DEBF0FBECDBF5C01762EE4ECCA
:104ED000FBE2859194911F926F939F938F93CE01E4
:104EE00001964C019F938F930E94208288E9C82EDF
:104EF0008AE3D82EE12CF12C09E315E022E335E01A
:104F000041E755E0B401C5010E940E570F900F9084
:104F10000F900F900F900F90813031F08230D9F4C4
:104F2000C5010E942B2417C091E0791216C0E6EC4F
:104F3000FBE265917491C4010E94F180B501695250
:104F40007D4F940140E150E0C5010E94F55888234F
:104F500029F082E003C081E001C080E064960FB6D2
:104F6000F894DEBF0FBECDBFDF91CF911F910F919F
:104F7000FF90EF90DF90CF90BF90AF909F908F9079
:104F80007F9008952F923F924F925F926F927F92FF
:104F90008F929F92AF92BF92CF92DF92EF92FF9249
:104FA0000F931F93CF93DF93CDB7DEB7C955D109C8
:104FB0000FB6F894DEBF0FBECDBF5C0163966FAF36
:104FC000639762961FAE62970E945D362B013C018B
:104FD000EAEBFBE2659174919E012F5F3F4F49011F
:104FE000C9010E94F180ECEBFBE2659174911E0116
:104FF0003DE3230E311CC1010E94F180EEEBFBE288
:1050000065917491CE0189960E94F18010EDE12E98
:1050100017E0F12E00E010E09E01275D3F4FA10157
:10502000B401C5010E94F55662968FAF6297813038
:1050300009F408C1E0ECFBE28591949195012C5EA6
:105040003D4F3F932F939F938F939F928F920E94F8
:105050002082F8E8CF2EF3E1DF2EE12CF12C09E3DA
:1050600015E022E335E041E755E0B401C5010E94B7
:105070000E5762968FAF62970F900F900F900F9020
:105080000F900F90813039F0823009F0DDC0C501FA
:105090000E942B24D9C0E0E9FBE28591949195010F
:1050A0002E5C3D4F3F932F939F938F939F928F92B0
:1050B0000E942082E8E8CE2EE3E1DE2EE12CF12CE6
:1050C00009E315E022E335E041E755E0B401C5010D
:1050D0000E940E5762968FAF62970F900F900F90BD
:1050E0000F900F900F90813039F0823009F0AFC0EF
:1050F000C5010E942B24ABC0E2E9FBE285919491AB
:105100009501205B3D4F3F932F939F938F939F92E9
:105110008F920E94208278E8C72E73E1D72EE12C6F
:10512000F12C09E315E022E335E041E755E0B40155
:10513000C5010E940E57D82E62968FAF62970F90CE
:105140000F900F900F900F900F9041E0841739F05F
:1051500052E085137FC0C5010E942B247BC063965B
:105160008FAD6397282F30E0A8EEB3E00E94317D29
:105170006A966CAF7DAF8EAF9FAF6A97E6E8FBE2B1
:1051800065917491C4010E94F180E8E8FBE26591A9
:105190007491C1010E94F18010EDE12E17E0F12E13
:1051A00000E010E022E335E0A101B401C5010E9456
:1051B000F55662968FAF62978130A9F404EF11E043
:1051C00020E030E042E355E065E275E0C5010E9471
:1051D0000A58813041F445E255E0BE016F5A7F4FD5
:1051E000C5010E941D5968EE73E080E090E00E94C6
:1051F0008C360E945D36641575058605970520F48A
:105200000E945D362B013C0162968FAD62979EEF46
:10521000980F933010F0811120C00E945D36DC01A0
:10522000CB0184199509A609B7096A962CAD3DAD45
:105230004EAD5FAD6A9782179307A407B50708F4D0
:10524000ABCF0BC0D12CD2C03CE0D32ECFC02DE0D1
:10525000D22ECCC09EE0D92EC9C066964CAE5DAEB3
:105260006EAE7FAE669762968FAD62978B7F813010
:1052700099F40E945D36DC01CB0184199509A609D9
:10528000B7096A962CAD3DAD4EAD5FAD6A97281754
:1052900039074A075B0740F462968FAD629788230F
:1052A00009F4A4C0D82EA2C0EAE8FBE2659174918B
:1052B000C4010E94F180ECE8FBE265917491C101A8
:1052C0000E94F18010EDE12E17E0F12E00E010E0D9
:1052D00022E335E0A101B401C5010E94F5566296B2
:1052E0008FAF62978130A9F404EF11E020E030E045
:1052F00042E355E065E275E0C5010E940A5881303D
:1053000041F445E255E0BE016F5A7F4FC5010E944E
:105310001D5968EE73E080E090E00E948C360E9498
:105320005D3666962CAD3DAD4EAD5FAD66976217AE
:1053300073078407950740F40E945D3666966CAF4C
:105340007DAF8EAF9FAF669762968FAD62979EEFEF
:10535000980F933010F081111AC00E945D36DC0165
:10536000CB0166962CAD3DAD4EAD5FAD6697821B11
:10537000930BA40BB50B6A962CAD3DAD4EAD5FAD56
:105380006A9782179307A407B50708F49BCF629624
:105390008FAD62978B7F8130C9F40E945D36DC014E
:1053A000CB0166962CAD3DAD4EAD5FAD6697821BD1
:1053B000930BA40BB50B6A962CAD3DAD4EAD5FAD16
:1053C0006A97281739074A075B0738F462968FAD4A
:1053D000629746E0D42ED80E09C061E0C5010E9454
:1053E0005027D82E882311F08FE0D82E8D2DC75A44
:1053F000DF4F0FB6F894DEBF0FBECDBFDF91CF9168
:105400001F910F91FF90EF90DF90CF90BF90AF90E2
:105410009F908F907F906F905F904F903F902F90D4
:1054200008958F929F92AF92BF92CF92DF92EF92A8
:10543000FF920F931F93CF93DF93CDB7DEB7C9567B
:10544000D1090FB6F894DEBF0FBECDBF5C01962E1A
:105450006CE3A9962FAFA997AA963FAFAA97A796F4
:105460004FAFA797A8965FAFA897A6967FAFA697CE
:105470000E94C227A9962FADA997AA963FADAA97D9
:10548000A7964FADA797A8965FADA897A6967FADB4
:10549000A69781115FC0EBE5F9E2859194911F9287
:1054A000EF921F930F933F932F935F934F937F93AD
:1054B0009F929F938F939E012F5F3F4F49013F9390
:1054C0002F930E94208298E9C92E9AE3D92EE12CCD
:1054D000F12C09E315E022E335E041E755E0B401A2
:1054E000C5010E940E570FB6F894DEBF0FBECDBFA8
:1054F000813031F0823049F5C5010E942B2425C04E
:10550000E3E6F9E265917491C4010E94F18060EDD7
:1055100077E080E090E00E948C3680EDC82E87E036
:10552000D82EE12CF12C09E315E022E335E041E728
:1055300055E0B401C5010E940E57813041F0823020
:1055400041F4C5010E942B2404C080E103C080E027
:1055500001C081E1C759DF4F0FB6F894DEBF0FBE1F
:10556000CDBFDF91CF911F910F91FF90EF90DF9012
:10557000CF90BF90AF909F908F900895AF92BF92C1
:10558000CF92DF92EF92FF920F931F93CF93DF930F
:10559000CDB7DEB7E2970FB6F894DEBF0FBECDBF32
:1055A0005C0168EE73E080E090E00E948C36EDE5EF
:1055B000F9E265917491CE0101960E94F18090E12B
:1055C000C92E97E2D92EE12CF12C09E315E022E354
:1055D00035E041E755E0BE016F5F7F4FC5010E9496
:1055E0000E57813011F480E01EC0823029F4C501CD
:1055F0000E942B2481E017C088EEC82E83E0D82EAD
:10560000E12CF12C09E315E022E335E041E755E018
:10561000BE016F5F7F4FC5010E940E57813019F3A5
:10562000823029F382E0E2960FB6F894DEBF0FBE17
:10563000CDBFDF91CF911F910F91FF90EF90DF9041
:10564000CF90BF90AF9008952F923F924F925F926C
:105650006F927F928F929F92AF92BF92CF92DF9282
:10566000EF92FF920F931F93CF93DF93CDB7DEB7E7
:10567000CA58D1090FB6F894DEBF0FBECDBF5C018A
:105680003B01142F052F8AEE91E0A0E0B0E0C15855
:10569000DF4F88839983AA83BB83CF57D040F5011E
:1056A000E951FD4F1182108260ED77E080E090E0DB
:1056B0000E948C36612F702FC5010E94B92681117E
:1056C00077C2950129503D4FCB57DF4F398328834F
:1056D000C558D040D9012D903D904D905C9021143B
:1056E00031044104510431F482E990E10E94705A7E
:1056F00081E06BC2BAEE2B16B1E03B0641045104C7
:1057000040F4C158DF4F288239824A825B82CF57EA
:10571000D040A6961FAEA697A8961FAEA89799242C
:10572000939480918D10811101C0912C80ED9EE0A9
:105730000E94004E80ED9EE00E94985280ED9EE017
:105740000E94A14D811107C0911034C280ED9EE0EE
:105750000E94644D2FC2B30180ED9EE00E941B4F5A
:10576000813029F4B30180ED9EE00E948350B301A3
:1057700080ED9EE00E943253811107C091101CC23F
:1057800080ED9EE00E94644D17C22BE0AE014B59A4
:105790005F4FB30180ED9EE00E94C64E811107C0AD
:1057A00091100CC280ED9EE00E94644D07C260E043
:1057B0008CE890E10E94FA5340E050E0BA01CE013B
:1057C0008B599F4F0E94FF6681110CC0CE018B59EF
:1057D0009F4F0E948E689110F3C180ED9EE00E9461
:1057E000644DEEC1BE016D5C7F4F82E3FB011192FF
:1057F0008A95E9F7E1E6F9E2859194910F931F9379
:105800009F938F937F936F93C757DF4F6883C958D8
:10581000D040C657DF4F7883CA58D0400E942082BC
:1058200020E6C22E2AEED22EE12CF12C09E315E05F
:1058300022E335E041E755E0C757DF4F6881C9589B
:10584000D040C657DF4F7881CA58D040C5010E946A
:105850000E570F900F900F900F900F900F90813078
:1058600089F0823019F4C5010E942B24CE018B5996
:105870009F4F0E948E689110A5C180ED9EE00E940E
:10588000644DA0C1CB57DF4FA881B981C558D04026
:105890006D917D918D919C916135B3EC7B07810574
:1058A000910590F4693AE1E67E078105910528F0BB
:1058B00024E630E040E050E004C020EA30E040E080
:1058C00050E00E94E77C04C02CEB32E040E050E066
:1058D000BA01A901C5010E94B65540E050E0BA01E5
:1058E000C5010E94B65564EF71E080E090E00E942F
:1058F0008C36E5E7F9E2859194919F938F938E0121
:105900000F5F1F4F1F930F930E9420820F900F90E5
:105910000F900F9095E0892E9E012D5C3F4FCD5743
:10592000DF4F39832883C358D040C957DF4F0883DE
:10593000C758D040C857DF4F1883C858D0403BEEF7
:10594000231631E033064104510468F08AEE91E0F9
:10595000A0E0B0E0C158DF4F88839983AA83BB835E
:10596000CF57D04008C0C158DF4F288239824A82C1
:105970005B82CF57D040CD57DF4FA881B981C35844
:10598000D040E2E31D92EA95E9F7E7E6F9E2859176
:105990009491CE57DF4F2881C258D0402F93CF57D4
:1059A000DF4F2881C158D0402F93C058DF4F288146
:1059B000C058D0402F93C158DF4F2881CF57D040D7
:1059C0002F939F938F93CC57DF4FF881C458D040CB
:1059D000FF93CD57DF4F2881C358D0402F930E94AB
:1059E000208280EDC82E87E0D82EE12CF12C09E32F
:1059F00015E022E335E0C957DF4F4881C758D04052
:105A0000C857DF4F5881C858D040BE016D5C7F4FEA
:105A1000C5010E940E570FB6F894DEBF0FBECDBF72
:105A2000823061F4C5010E942B2444E650E060E01E
:105A300070E0C5010E94B65588E0C7C0813041F0D2
:105A40008A9468EE73E080E090E00E948C367BC020
:105A500024E630E040E050E065E275E0C5010E94D8
:105A6000F35745E255E0BE0161587F4FC5010E94E2
:105A700050598130A1F4CE018B599F4F0E948E68FE
:105A8000911004C080ED9EE00E94644D44E650E019
:105A900060E070E0C5010E94B65589E096C0C1582B
:105AA000DF4F68817981CF57D040C5010E94F258FD
:105AB0008C016C01990FEE08FF08C158DF4F8881F7
:105AC0009981AA81BB81CF57D040C816D906EA0672
:105AD000FB06A1F0CE018B599F4F0E948E6891105A
