:100000000C948D180C94F83B0C94293C0C945A3C9D
:100010000C948E3C0C94C23C0C94F33C0C94243D08
:100020000C94553D0C94B7180C94B7180C94B71851
:100030000C94B13E0C94B7180C94B7180C940D3F67
:100040000C94B7180C94B7180C94B7180C94B718F4
:100050000C94B7180C94B7180C94B7180C94E83E8D
:100060000C94B7180C9422420C94B7180C94B7183F
:100070000C94B7180C94B7180C94B7180C94B718C4
:100080000C94B7180C94B7180C94B7180C94B718B4
:100090000C9463420C94B7180C94B7180C94C67B5C
:1000A0000C94B7180C94B7180C94B7180C94B71894
:1000B0000C94B7180C94B7180C94B7180C94B71884
:1000C0000C94B7180C94B7180C94B718E13BE33BA9
:1000D000E53BE73BE93BEE3BEB3BED3BD64BE54BF2
:1000E000044C134C224C314C404CB54CC34CD14CBD
:1000F000DF4CE24CF04CFE4C0C4D1A4D284D364D69
:10010000444D524D604DB152CA52E252F352FD522B
:1001100017537F539A5C9D5CA05CA75CB05CB95C94
:10012000C25C0F7E1D7E247E267E287E2A7E2C7E4B
:10013000362E2057616B6520757021210A0A005800
:10014000585858585858585858585858585858582F
:10015000585858585858585858585858585858581F
:10016000585858585858585858585858585858580F
:1001700058585858585858585858585858585858FF
:1001800058585858585858585858585858585858EF
:1001900058585858585858585858585858585858DF
:1001A00058585858585858585858585858585858CF
:1001B00058585858585858585858585858585858BF
:1001C0005858585858585800352E20456E74657246
:1001D000206465657020736C6565702E2E2E00534B
:1001E000445F434152445F4152484956455F56354A
:1001F0005F5254435F4F4E5F42415245424F4E451E
:10020000530043757272656E7420525443207365B7
:100210007474696E67733A00547269616C00332EAE
:10022000204572726F722063616C6C696E67202763
:1002300073657454696D6546726F6D5749464927F9
:100240002066756E6374696F6E00332E205365747B
:10025000205254432074696D65204F4B2E20546901
:100260006D653A0050726F6772616D2076657273CA
:10027000696F6E3A200053544152540050726F67B8
:1002800072616D2076657273696F6E3A20004F540B
:10029000415F636865636B5F6C6F6F70206973208B
:1002A000646F6E6500332E20576946692073776945
:1002B0007463686564204F4646002054696D652864
:1002C0006D73293A00322E205769466920697320E0
:1002D000636F6E6E6563746564204552524F5200C1
:1002E000322E322E2052657175657374204F544141
:1002F0002E2E2E002D2D2D2D2D2D2D2D2D2D2D2D58
:100300002D2D2D2D2D2D2D2D2D2D2D2D2D2D2D2D1D
:100310002D2D2D004C696E6B205175616C697479BF
:100320002825293A005369676E616C204C65766513
:100330006C202825293A005261746520284D62708E
:1003400073293A002D2D2D2D2D2D2D2D2D2D2D2DBB
:100350002D2D2D2D2D2D2D2D2D2D2D2D2D2D2D2DCD
:100360002D2D2D00322E312E20436F6E6E6563745D
:10037000696F6E205374617475733A002054696D0F
:1003800065286D73293A00322E2057694669206925
:100390007320636F6E6E6563746564204F4B00312C
:1003A0002E205769466920646964206E6F74206945
:1003B0006E697469616C697A6520636F72726563D6
:1003C000746C7900312E20576946692073776974FF
:1003D00063686564204F4E002D2D2D2D2D2D2D2D64
:1003E0002D2D2D2D2D2D2D2D2D2D2D2D2D2D2D2D3D
:1003F0002D2D2D2D2D2D2D0050726F6772616D20CA
:1004000076657273696F6E3A200050726F67726121
:100410006D2069643A20002D2D2D2D2D2D2D2D2D93
:100420002D2D2D2D2D2D2D2D2D2D2D2D2D2D2D2DFC
:100430002D2D2D2D2D2D0052455354415254494EF2
:100440004700524550524F4752414D4D494E47206B
:100450004F4B00524550524F4752414D4D494E4728
:10046000204552524F52002A2A2A2A2A2A2A2A2A68
:100470002A2A2A2A2A2A2A2A2A2A2A2A2A2A2A2ADC
:100480002A2A2A2A2A2A2A2A2A2A2A2A2A2A2A2ACC
:100490002A2A0A006A6F696E207468652073706585
:1004A0006369666965642041636365737320506F97
:1004B000696E74206F6E20706F77657220757000A2
:1004C000616E642050415353574F52442C2074683E
:1004D00065206D6F64756C652077696C6C20617444
:1004E00074656D707420746F20004F6E63652074A6
:1004F0006865206D6F64756C6520697320636F6E2D
:10050000666967757265642077697468204553531E
:100510004944002A2A2A2A2A2A2A2A2A2A2A2A2A2C
:100520002A2A2A2A2A2A2A2A2A2A2A2A2A2A2A2A2B
:100530002A2A2A2A2A2A2A2A2A2A2A2A2A2A00353A
:100540002E205769466920736F667452657365740F
:10055000204552524F5200352E205769466920736C
:100560006F66745265736574204F4B00342E2057AC
:100570006946692073657420415554484B4559209C
:100580004552524F5200342E2057694669207365F8
:100590007420415554484B4559204F4B00332E2071
:1005A0005769466920736574204553534944204573
:1005B00052524F5200332E2057694669207365749A
:1005C000204553534944204F4B00322E2057694653
:1005D0006920726573657420746F20646566617547
:1005E0006C74204552524F5200322E205769466992
:1005F00020726573657420746F2064656661756C24
:100600007400312E205769466920646964206E6F3A
:100610007420696E697469616C697A6520636F72B0
:10062000726563746C7900312E20576946692073B6
:1006300077697463686564204F4E00576169742060
:100640003130207365636F6E64732E2E2E0A003472
:100650002E20576946692073776974636865642042
:100660004F46460A0A00332E204572726F7220638D
:10067000616C6C696E67202773657454696D65469B
:10068000726F6D57494649272066756E6374696FAE
:100690006E00332E20536574205254432074696DCC
:1006A00065204F4B2E2054696D653A002054696DCA
:1006B00065286D73293A00322E20576946692069F2
:1006C0007320636F6E6E6563746564204552524F8C
:1006D00052002054696D65286D73293A00322E202E
:1006E0005769466920697320636F6E6E6563746530
:1006F00064204F4B00312E2057694669206469649D
:10070000206E6F7420696E697469616C697A652006
:10071000636F72726563746C7900312E205769467D
:1007200069207377697463686564204F4E002D2DCE
:100730002D2D2D2D2D2D2D2D2D2D2D2D2D2D2D2DE9
:100740002D2D2D2D2D2D2D2D2D2D2D2D2D2D2D2DD9
:100750002D2D2D2D2D2D2D2D2D2D2D2D2D2D2D2DC9
:100760002D2D2D2D2D2D2D2D2D0A0073796E6368C5
:10077000726F6E697A6520697420746F2074686581
:1007800020576173706D6F74652773205254430056
:10079000697420697320616C7761797320706F735D
:1007A0007369626C6520746F20726571756573740E
:1007B00020666F72207468652054696D6520616ED3
:1007C00064004F6E636520746865206D6F64756C9E
:1007D00065206861732074686520636F7272656359
:1007E000742054696D652053657276657220536577
:1007F0007474696E6773002D2D2D2D2D2D2D2D2DCB
:100800002D2D2D2D2D2D2D2D2D2D2D2D2D2D2D2D18
:100810002D2D2D2D2D2D2D2D2D2D2D2D2D2D2D2D08
:100820002D2D2D2D2D2D2D2D2D2D2D2D2D2D2D2DF8
:100830002D2D00332E342E204572726F722063618D
:100840006C6C696E672027736574474D542720666A
:10085000756E6374696F6E00332E342E20474D54CD
:1008600020736574204F4B20746F2000332E332E7D
:10087000204572726F722063616C6C696E6720270D
:1008800074696D6541637469766174696F6E466CF5
:100890006167272066756E6374696F6E00332E334F
:1008A0002E204E6574776F726B2054696D652D6FC5
:1008B000662D4461792041637469766174696F6E55
:1008C00020466C616720736574204F4B00332E32D5
:1008D0002E204572726F722063616C6C696E6720A6
:1008E0002773657454696D65536572766572272048
:1008F00066756E6374696F6E00332E322E205469F4
:100900006D65205365727665723220736574204F71
:100910004B00332E312E204572726F722063616C52
:100920006C696E67202773657454696D65536572D1
:10093000766572272066756E6374696F6E00332E5C
:10094000312E2054696D65205365727665723120B1
:10095000736574204F4B002054696D65286D7329B1
:100960003A00322E205769466920697320636F6E02
:100970006E6563746564204552524F52002054697D
:100980006D65286D73293A00322E2057694669201B
:10099000697320636F6E6E6563746564204F4B00EE
:1009A00074696D653A20007772697465696E6720B5
:1009B00069732068617665696E67206572726F720F
:1009C00073007772697465696E67206973204F4B95
:1009D0000066696C65204E4F5420637265617465D2
:1009E000640066696C6520637265617465640066A5
:1009F000696C65204E4F542064656C6574656400B5
:100A000066696C652064656C657465640057694649
:100A100069207377697463686564204F46460A0AE3
:100A2000002054696D65286D73293A00576946693D
:100A300020697320636F6E6E656374656420455230
:100A4000524F52004572726F722063616C6C696E16
:100A500067202767657455524C272066756E63744E
:100A6000696F6E004153434949204652414D45202C
:100A700053454E44204F4B00485454502054696D08
:100A8000652066726F6D204F4646207374617465F1
:100A900020286D73293A0048545450204F4B0020B1
:100AA0002874696D6520697420746F6F6B20666FA0
:100AB00072207468652057494649207374617475C3
:100AC0007320636865636B29002054696D65286D28
:100AD00073293A005769466920697320636F6E6E07
:100AE0006563746564204F4B0057694669206469EB
:100AF00064206E6F7420696E697469616C697A65CF
:100B000020636F72726563746C790057694669205F
:100B10007377697463686564204F4E002076732094
:100B200075736572207361797320003A2061706972
:100B3000207361797320004572726F722073656E45
:100B4000736F7220747970652026206E6669656CFB
:100B50006473206D69736D6174636820666F7220C1
:100B6000696E64657820005B4652414D455D20000A
:100B70002076732075736572207361797320003A53
:100B800020617069207361797320004572726F7201
:100B90002073656E736F722074797065206D697350
:100BA0006D6174636820666F7220696E6465782079
:100BB000005B4652414D455D200020767320003A8F
:100BC00020004572726F722073656E736F722074AD
:100BD000797065206D69736D6174636820666F72EA
:100BE00020696E64657820005B4652414D455D206A
:100BF00000010101010101010101010101010101E6
:100C000001010101010101010101010101010101D4
:100C100001010101010101010101010202030301BE
:100C200001010101010102010101010303010101AF
:100C300003010101010101010101020101010101A1
:100C40000101010101010101010101010101010194
:100C50000101010101010101010101010101010184
:100C60000101010101010101010101010101010174
:100C70000101010101010101010101010101010164
:100C80000101010101010101010101010101010154
:100C90000101010101010101010101010101010144
:100CA0000101010101010101010101010101010134
:100CB0000101010101010101010101010101010124
:100CC0000101010101010101010101010101010114
:100CD0000101010101010101010101010101020202
:100CE00002020202020204040101020202020202E2
:100CF00002020202020202020202020202020202D4
:100D000002020202020202020101010101010100CC
:100D100000010002010303030000010102010403BA
:100D200000000303020202040202020204010000A6
:100D300000000000000000020202020202000000A7
:100D400000000000000000000000000000000000A3
:100D5000000000000000000000040000000000008F
:100D6000000000000202020202020202020202026B
:100D70000202020202020202020202020202020253
:100D80000202020202020202020202020202020243
:100D90000202020202020202020202020202020233
:100DA0000202020202020202020202020202020223
:100DB0000202020202020202020202020202020213
:100DC0000202020202020202020202E313DE13D84E
:100DD00013D113CC13C713C113BA13B413AE13A991
:100DE00013A4139E13981392138C13861381137CF0
:100DF00013771372136D13681363135E135913542F
:100E0000134F134A13451340133B1335132E132569
:100E1000131D1316130F1308130213FB12F512EC14
:100E200012E612E012DA12D312CD12C712C112BBAF
:100E300012B512B112AD12A812A412A1129D1298ED
:100E40001293128F128B1283127F12781274127304
:100E50001272126E126B12671261125C12571254E8
:100E60001251124D1248124412411240123F123ECA
:100E7000123D123C123B123A12391238122F12252F
:100E80001221121C1217121212111210120F120E2E
:100E9000120D120C120B120A120912081207120676
:100EA00012051204120312021201120012FF11FEA7
:100EB00011FD11FC11FB11FA11F911F811F711F6DE
:100EC00011F211F111EC11E611E011DD11DC11DB71
:100ED00011DA11D911D811D211CC11C611C011BA21
:100EE00011B511B011AB11A611A1119C119711925E
:100EF000118D11881183117E11791174116F11698F
:100F00001163115D11571151114C11471142113DDF
:100F100011381133112E11291124111F111A111515
:100F20001110110B1106110011FA10F410EE10E857
:100F300010E310DE10D910D410CF10CA10C510C0A5
:100F400010BB10B610B010AA10A4109E10981092EA
:100F5000108C10861080107A1074106E1068106259
:100F6000105C10571052104D10481043103D1037B0
:100F70001031102B10251020101B10161011100C02
:100F80001007100210FD0FF80FF30FED0FE70FE140
:100F90000FDB0FD50FCF0FC90FC30FBD0FB70FB1A9
:100FA0000FAB0FA50F5443375F44005443375F43E3
:100FB000005443375F42005443375F410044495374
:100FC0005F44004449535F43004449535F42004437
:100FD00049535F41005446415F45005446415F44D8
:100FE000005446415F43005446415F42005446412D
:100FF0005F410053535F450053535F440053535FB9
:10100000430053535F420053535F410053425F45D7
:101010000053425F440053425F430053425F42002B
:1010200053425F41005443365F45005443365F44AA
:10103000005443365F43005443365F420054433606
:101040005F410043555F450043555F440043555F92
:10105000430043555F420043555F41005341315FB8
:1010600045005341315F44005341315F43005341D8
:10107000315F42005341315F4100434E315F4500D3
:10108000434E315F4400434E315F4300434E315F76
:101090004200434E315F41005443355F45005443A5
:1010A000355F44005443355F43005443355F42008D
:1010B0005443355F4100544D5F4500544D5F44003B
:1010C000544D5F4300544D5F4200544D5F41005406
:1010D0004E5F4500544E5F4400544E5F4300544EF3
:1010E0005F4200544E5F41005443345F4500544317
:1010F000345F44005443345F43005443345F420040
:101100005443345F410054445F450054445F4400FD
:1011100054445F430054445F420054445F410053D1
:10112000415F450053415F440053415F43005341D9
:101130005F420053415F4100434E5F4500434E5FB5
:101140004400434E5F4300434E5F4200434E5F41C5
:10115000005443335F45005443335F4400544333EA
:101160005F43005443335F42005443335F410050B8
:101170004D5F4500504D5F4400504D5F4300504D62
:101180005F4200504D5F410052585F450052585F2A
:10119000440052585F430052585F420052585F412A
:1011A0000050485F450050485F440050485F43008E
:1011B00050485F420050485F41005443325F450051
:1011C0005443325F44005443325F43005443325F20
:1011D00042005443325F41000000000000505300C1
:1011E00056424F4F54005650524F470056415049B7
:1011F00000005453540000000000000000000000F4
:1012000000000000000000000000000000000000DE
:10121000000050444F500056444F500048444F5037
:1012200000414C5400434F555253455F4F470053C4
:10123000504545445F4F470000000000000000009B
:10124000005553004C555800505245530048554DD9
:10125000005446005443005041525400504D313028
:1012600000504D325F3500504D310052420055491B
:1012700044000000535452004D494C4C4953004126
:10128000434300494E5F54454D500052414D004785
:101290004D540054494D450044415445004E494485
:1012A000004E41004D4143005253534900475053B3
:1012B000004241540043425F46500043425F545055
:1012C0000043425F464C0043425F46520043425F48
:1012D00056530043425F52504D004D425F49520009
:1012E0004D425F4852004D425F4449004D425F43CA
:1012F0004F494C5300454D5F544300454D5F4844B2
:101300004F00454D5F434C00454D5F4E4F33004508
:101310004D5F4E483400454D5F43484C00454D5F9E
:10132000434F4E4400454D5F444550544800454DA1
:101330005F4F525000454D5F5048004F505F450091
:101340004F505F44004F505F43004F505F42004F8B
:10135000505F41004F4D5F45004F4D5F44004F4D82
:101360005F43004F4D5F42004F4D5F41004F535F61
:1013700045004F535F44004F535F43004F535F425C
:10138000004F535F41005443315F45005443315F88
:1013900044005443315F43005443315F420054439F
:1013A000315F410055535F440055535F41004C5538
:1013B000585F44004C55585F4100505245535F44BC
:1013C0000048554D5F440054465F440054435F4419
:1013D00000505245535F410048554D5F410054460F
:1013E0005F410054435F410001010101010101011E
:1013F00001010101010101010101010101010101DD
:1014000001010101010101010101010101010101CC
:1014100001010202030301010101010101020101B5
:1014200001010303010101030101010101010101A6
:10143000010201010101010101010101010101019B
:10144000010101010101010101010101010101018C
:10145000010101010101010101010101010101017C
:10146000010101010101010101010101010101016C
:10147000010101010101010101010101010101015C
:10148000010101010101010101010101010101014C
:10149000010101010101010101010101010101013C
:1014A000010101010101010101010101010101012C
:1014B000010101010101010101010101010101011C
:1014C000010101010101010101010101010101010C
:1014D00001010101010101010101010101010101FC
:1014E00001010101010101010202020202020202E4
:1014F00004040101020202020202020202020202CA
:1015000002020202020202020202020202020202BB
:1015100002020101010101010100000100020103B9
:10152000030300000101020104030000030302029F
:101530000204020202020401000000000000000098
:101540000002020202020201010102020202000084
:10155000000000000000000000000000000000008B
:101560000000000400000000000000000000020273
:10157000020202020202020202020202020202024B
:10158000020202020202020202020202020202023B
:10159000020202020202020202020202020202022B
:1015A000020202020202020202020202020202021B
:1015B000020202020202020202020101020201020E
:1015C00003020200010101020202020301020303FD
:1015D00003030303030202020102020202020201E8
:1015E0000202020103010203BC1CB71CB11CAA1CAD
:1015F000A51CA01C9A1C931C8D1C871C821C7D1C86
:101600007A1C751C701C6B1C661C601C5A1C541CBC
:101610004E1C491C441C3F1C3A1C371C341C311CFA
:101620002B1C251C1F1C191C131C0D1C071C011C2A
:10163000FB1BF51BEF1BE91BE31BDD1BD41BCE1BA8
:10164000C81BC21BBB1BB51BAF1BA91BA31B9D1B30
:10165000991B951B901B8C1B891B851B801B7B1B5F
:10166000771B731B6B1B671B601B5C1B5B1B5A1B75
:10167000561B531B4F1B491B441B3F1B3C1B391B59
:10168000351B301B2C1B291B281B271B261B251B2E
:10169000241B231B221B211B201B171B0D1B091B9B
:1016A000041BFF1AFA1AF61AEE1AE61AE21ADE1AE2
:1016B000DA1AD61AD21AD11AD01ACF1ACE1ACD1ACD
:1016C000CC1ACB1ACA1AC91AC81AC71AC61AC51A06
:1016D000C41AC31AC21AC11AC01ABF1ABE1ABA1A39
:1016E000B91AB41AAE1AA81AA51AA41AA31AA21AD9
:1016F000A11AA01A9B1A961A911A8C1A861A801A85
:101700007A1A741A6E1A681A621A5C1A561A501AE1
:101710004A1A441A3E1A381A321A2C1A261A201A51
:101720001A1A141A0E1A081A021AFC19F619F019C4
:10173000EA19E419DE19D819D219CC19C719C21936
:10174000BD19B819B219AC19A619A0199B19961987
:1017500091198C19871982197D19781973196E19C5
:10176000691964195E19581952194C19461940190A
:101770003A1934192F192A19251920191A19141967
:101780000E1908190219FC18F618F018ED18E918C6
:10179000E618E218DD18D818D418D118CE18CA18CF
:1017A000C618C118BC18B918B618B318AF18AC18B9
:1017B000A6189F18981891188B1885187F187918F3
:1017C00073186B186118581852184B1845183F18A1
:1017D000391832182C1826181E1815180D18041848
:1017E000FC17F617EF17E8174750535F535400479D
:1017F00050535F5350004750535F48004750535F6A
:101800004C4F43004750535F4744495200475053A1
:101810005F475350004750535F4143535000475078
:10182000535F4353500048495F57530057435F5736
:1018300053005742545F57530041445F5753004190
:10184000485F57530044505F57530054454D5F570E
:10185000530052485F57530050524553535F5753FC
:101860000050524553534C5F575300505245535FFD
:1018700057530054415F575300544E5F5753005421
:10188000435F57530050535F57530053545F5753B0
:1018900000534E545F5753005352545F57530053F5
:1018A00053485F57530053525F57530053540053EC
:1018B000564F005A4F00595400585400434D50534E
:1018C000004143574400435744005053540050498B
:1018D0000050540057535300415747530041574756
:1018E00044004157530057530041574400574400A8
:1018F0005443375F44005443375F43005443375FDA
:1019000042005443375F41004450335F4400445029
:10191000335F43004450335F42004450335F410023
:101920004C545F44004C545F43004C545F42004CA5
:10193000545F41004254325F44004254325F4300DE
:101940004254325F42004254325F41005443365F9A
:1019500044005443365F43005443365F42005443CF
:10196000365F410057505F440057505F4300575067
:101970005F420057505F410041505F440041505F5B
:10198000430041505F420041505F410052485F4474
:101990000052485F430052485F420052485F410096
:1019A0005443355F44005443355F43005443355F2F
:1019B00042005443355F410056505F440056505F2B
:1019C000430056505F420056505F41005443345F1D
:1019D00044005443345F43005443345F4200544353
:1019E000345F41004543325F44004543325F43006A
:1019F0004543325F42004543325F41004450325F0D
:101A000044004450325F43004450325F420044502F
:101A1000325F41005443335F44005443335F43001B
:101A20005443335F42005443335F41004543315FC9
:101A300044004543315F43004543315F4200454325
:101A4000315F41004450315F44004450315F4300F6
:101A50004450315F42004450315F41004D56325F87
:101A600044004D56325F43004D56325F42004D56A2
:101A7000325F41005443325F44005443325F4300BD
:101A80005443325F42005443325F4100434F5F444E
:101A900000434F5F4300434F5F4200434F5F4100AD
:101AA000000000000050530056424F4F5400565063
:101AB000524F470056415049000054535400000013
:101AC0000000000000000000000000000000000016
:101AD00000004E434E00505348005753500050549E
:101AE0004300455443005343325F52414400534343
:101AF000315F524144005241440050444F5000561F
:101B0000444F500048444F5000414C5400434F55FF
:101B10005253455F4F470053504545445F4F470080
:101B20000000000000000000005553004C55580014
:101B3000505245530048554D005446005443005000
:101B400041525400504D313000504D325F350050FD
:101B50004D31005242005549440000005354520098
:101B60004D494C4C49530041434300494E5F544555
:101B70004D500052414D00474D540054494D4500D1
:101B800044415445004E4944004E41004D414300FC
:101B90005253534900475053004241540043425F5F
:101BA00046500043425F54500043425F464C00435E
:101BB000425F46520043425F56530043425F5250D9
:101BC0004D004D425F4952004D425F4852004D4228
:101BD0005F4449004D425F434F494C5300425431EA
:101BE0005F44004254315F43004254315F4200423F
:101BF00054315F41004D56315F44004D56315F43D3
:101C0000004D56315F42004D56315F410054433123
:101C10005F44005443315F43005443315F420054FA
:101C200043315F41004355525F42004355525F4686
:101C30000046440053440054440055565F46005546
:101C4000565F450055565F430055565F4200504170
:101C5000525F46005041525F45005041525F430081
:101C60005041525F420053525F460053525F45005D
:101C700053525F430053525F42004C570055535F2D
:101C8000440055535F41004C55585F44004C555833
:101C90005F4100505245535F440048554D5F44003A
:101CA00054465F440054435F4400505245535F41E3
:101CB0000048554D5F410054465F410054435F4129
:101CC0000001010101010101010101010101010105
:101CD00001010101010101010101010101010101F4
:101CE00001010101010101010101010101010101E4
:101CF00001010101010102010101010303010101CF
:101D000003010101010101010101020101010101C0
:101D100001010101010101010101010101010101B3
:101D200001010101010101010101010101010101A3
:101D30000101010101010101010101010101010193
:101D40000101010101010101010101010101010183
:101D50000101010101010101010101010101010173
:101D60000101010101010101010101010101010163
:101D70000101010101020203030101010101011836
:101D80001008010101010101010202020202020226
:101D90000202020202020202020202020202020025
:101DA0000000000000000002020202020200000027
:101DB000000200000000000000000000000002011E
:101DC00003030300000101020104030303030302F0
:101DD00002020402020202040100000000000000EE
:101DE00000000202020202020000000000020202E1
:101DF00002020202020202020202020202020202C3
:101E000002020000040000000000020202020202BE
:101E100002020202020000000000000000000002B6
:101E20000202020202020002020202020202020294
:101E3000020200020202000002020202000101018D
:101E4000010101010000010101010202020404027A
:101E50000021231D231A23162313230F230B2307EB
:101E6000230323FF22FC22F822F522F122ED22EAAD
:101E700022E622E222DE22DA22D622D022CF22CE8F
:101E800022CD22CC22CB22CA22C922C822C322BE02
:101E900022B922B822B722B222B122B022AF22AE9A
:101EA00022AB22A722A422A1229C22982293228E36
:101EB00022892284227F227E227A22762271226D3A
:101EC000226A22662261225C22582254224C224835
:101ED0002241223D223C223B223722342230222A38
:101EE00022252220221D221A22162211220D220A28
:101EF00022092208220722062205220422032202A6
:101F0000220122F821EE21EA21E521E021DB21DA7C
:101F100021D921D821D721D621D021CA21C421BD40
:101F200021B721B121AB21A5219E21982192218C9D
:101F30002186217F21772172216C21662160215A1F
:101F4000215421532152214E214D21482142213C2F
:101F5000213921352132212E212B21262123211E19
:101F600021192114210E2108210721062105210410
:101F7000210321022101210021FF20FE20F820F26F
:101F800020EC20E520DE20DB20D720D420CF20CA83
:101F900020C520C120BE20BB20B820B520AE20A780
:101FA00020A0209F209B2096209220912090208A84
:101FB0002084207E20782077206E20682062205C9C
:101FC0002055204F20492043203D20372030202815
:101FD0002020201820112008200020F21FE81FE1F7
:101FE0001F524553554C54005448524553484F4C8A
:101FF000440046455645525F434F554E54455200A6
:10200000434F554E5445520053493442315F544377
:10201000004149525F544300555345525F544300B9
:10202000504D5F42494E4800504D5F42494E4C0072
:10203000504D5F42494E0043425F46500043425F6D
:1020400054500043425F464C0043425F46520043B7
:10205000425F56530043425F52504D004D425F492C
:1020600052004D425F4852004D425F4449004D428C
:102070005F434F494C5300004355525F4400435562
:10208000525F43004355525F42004355525F410047
:1020900000004C554D0048554D420054434200004D
:1020A000534F494C5F4500534F494C5F4300534FDA
:1020B000494C5F4200464400534400544400555686
:1020C0000050415200504C563300504C5632005094
:1020D0004C563100575600414E45004C5700534F67
:1020E000494C544600534F494C544300534F494CBC
:1020F0003300534F494C3200534F494C31000000DC
:1021000000000000000000004F52505F45004F5299
:10211000505F410050485F450050485F41005455B2
:10212000524200575400434F4E4400444F004F5218
:1021300050005048005241440050530056424F4F07
:1021400054005650524F47005641504900005453D6
:10215000540000005357495F44005357495F430000
:102160005357495F42005357495F41005357494E07
:1021700041005357494B00535749434C4F34005388
:1021800057494E4F32005357494D47005357494C1A
:102190004900535749504800535749414700535746
:1021A000494E483400535749494F00535749435506
:1021B00000535749434C0053574942520053574923
:1021C0004E4F3300535749464200535749464C003F
:1021D000535749434100000000000050444F500055
:1021E00056444F500048444F5000414C5400434F18
:1021F000555253455F4F470053504545445F4F4745
:10220000000000000000000000005553004C55582D
:1022100000505245530048554D0054460054430069
:102220005041525400504D313000504D325F350016
:10223000504D310052420055494400000053545261
:10224000004D494C4C49530041434300494E5F54B3
:10225000454D500052414D00474D540054494D45A5
:102260000044415445004E4944004E41004D414315
:102270000052535349004750530042415400004517
:10228000565F450045565F440045565F430045563E
:102290005F4100524F55540052494E0048414C4C4A
:1022A000004C4C004C500050495200574600000072
:1022B000000047505F4600000047505F4300475012
:1022C0005F420047505F4100000000000000000036
:1022D0004E4F49534500534F320050483300484356
:1022E0004E0048434C004832530048320045544F9A
:1022F00000434C32004E4F00564F430053560041AE
:10230000503200415031004C5047004E4F32004E89
:102310004833004F3300434834004F3200434F32BC
:1023200000434F000101010101010101010101010F
:10233000010101010101010101010101010101018D
:10234000010101030101010101010101010101017B
:102350000101010101010101010201010101030368
:10236000010101030101010101010101010101015B
:102370000101010101010101010103030101010149
:10238000010101010101010101010101010101013D
:10239000010101010101010101010101010101012D
:1023A000010101010101010101010101010101011D
:1023B000010101010101010101010101010102010C
:1023C00001010101010101010101010101010101FD
:1023D00018100202020202020202020202020202B9
:1023E00002020202000000000200020000020202DB
:1023F00002010002020202020202020202020200C2
:1024000002020202020200020103030300000101B2
:102410000201040303030303020202020202020296
:102420000202020202020200000004020202020290
:10243000020002020202020202020202020202027E
:10244000020200000000000000000002020402007E
:102450000000020202020202020202020202020260
:10246000020202020202020202020202020202024C
:10247000020202020202020202020202020201013E
:102480005F295B295829542950294C294829442976
:1024900041293D293A29362932292E292929262957
:1024A00023291E291A29152912290F290B29072941
:1024B00004290029FC28F828F528F028ED28EA2826
:1024C000E728E328DF28DA28D428CF28CC28C82812
:1024D000C528C228BF28BC28B828B528B128AD28EF
:1024E000AA28A728A428A1289D28992894289028BC
:1024F0008D28892884287F287B2877286F286B28B7
:10250000642860285C28562852284F284C284828E0
:10251000452840283D28382833282F282A282528D0
:1025200021281B28172811280B280428FE27F82704
:10253000F427EB27E127DD27D827D327CE27CA2783
:10254000C527C027BB27B427AD27A6279F279927D4
:1025500093278D27892782277C27762770276A274C
:10256000652760275B27562751274C2745273E279D
:10257000372732272D27292724271F2719271327F5
:102580000C270627FF26F926F226EB26E426DD2671
:10259000D726D026CA26C326BC26B526AF26A8260F
:1025A000A2269C2695268D2686267F2679267126AC
:1025B00067265E2655264F26492643263D26372682
:1025C00031262B2625261F26192613260E260926F8
:1025D0000426FE25F825F225E725DC254F50435F2C
:1025E0004E325F42494E004F50435F4E335F424987
:1025F0004E004F52505F43004F52505F42004F52C7
:10260000505F410050485F430050485F42005048CF
:102610005F410053574950480053574941470053C1
:102620005749504200535749494F00535749435562
:1026300000535749434C005357494252005357499E
:102640004E4F00535749464200535749464C00539A
:1026500057494341004F50435F50415254004F503F
:10266000435F504D3130004F50435F504D325F3526
:10267000004F50435F504D31004F50435F50004F6B
:1026800050435F5446004F50435F54430047505FF0
:10269000505245530047505F48554D0047505F54D6
:1026A000460047505F54430047505F434F32004756
:1026B000505F4F330047505F4348340047505F53EB
:1026C0004F320047505F5048330047505F4F320051
:1026D00047505F4E4F320047505F4E4F0047505FAC
:1026E0004E48330047505F48434E0047505F4843D1
:1026F0004C0047505F4832530047505F4832004714
:10270000505F45544F0047505F434F0047505F4371
:102710004C320056424F4F54005650524F470056CD
:102720004150490054555242005453540057465F9B
:10273000450057465F430048414C4C5F46004841C6
:102740004C4C5F450048414C4C5F44004C4C5F464C
:10275000004C4C5F45004C4C5F44004C505F4600C1
:102760004C505F45004C505F44004C554D5F460057
:102770004C554D5F45004C554D5F440055535F35FA
:10278000560055535F3356330054434300534F496B
:102790004C3300534F494C3200534F494C31005396
:1027A0004F494C5F4600534F494C5F4500534F49DA
:1027B0004C5F4400534F494C5F4300504C5633002C
:1027C000504C563200504C56310046534D00504448
:1027D0004F500056444F500048444F5000414C5415
:1027E00000434F555253455F4F47005350454544B2
:1027F0005F4F47004C555800444D5F535000444DC7
:102800005F53540054585F5057520044494E4F3361
:102810000044494D47320044494B00444943553236
:10282000004449490044494252004449434C004451
:10283000494600444943410044494E410057540031
:10284000434F4E4400444F004F52500050480052F6
:102850004200554944004D57494649004D425400F5
:10286000535452004D494C4C495300414343004995
:102870004E5F54454D500052414D00474D54005459
:10288000494D450044415445004E4944004E4100E5
:102890004D41430052535349004750530042415465
:1028A000004446004C430057460043550052414403
:1028B00000504C5600575600414E450046440053C8
:1028C0004400544400555600504152004C570053A8
:1028D0004F494C00534F494C540048554D42005409
:1028E000464200544342005053004D4600555300A9
:1028F00044555354004C4400435047004344470060
:102900004D435000535400504952004C554D004C1B
:102910004C004C500048414C4C005642520042453D
:102920004E440050570050410048554D4100544618
:10293000410054434100564F43004F33004E4F3245
:102940000053560041503200415031004E48330090
:102950004C504700434834004F3200434F3200434D
:102960004F003B206E65773D00496E76616C69646F
:102970002076657273696F6E3A2063757272656E48
:10298000743D005B574946495D20002D2D2D2D2DAE
:102990002D2D2D2D2D2D2D2D2D2D2D2D2D2D2D2D67
:1029A0002D2D2D2D2D2D2D2D2D2D2D0056455253F8
:1029B000494F4E3A005B574946495D200053495AFA
:1029C000453A005B574946495D2000504154483A1A
:1029D000005B574946495D200046494C453A005B3B
:1029E000574946495D20002D2D2D2D2D2D2D2D2DA6
:1029F0002D2D2D2D2D2D2D2D2D2D2D2D2D2D2D2D07
:102A00002D2D2D2D2D2D2D0043757272656E742088
:102A100055524C3A20005B574946495D20004572AB
:102A2000726F722E204D61782055524C2073697A56
:102A300065206973203235362E2043757272656EBB
:102A400074206C656E6774683A20005B574946498C
:102A50005D20003D3D3E204552524F5220434F44A1
:102A6000453A2000FC2BED2BE52BE22BDA2BD42B67
:102A7000D02BB62BA72B9F2B8F2B822B7E2B782B2B
:102A80004C2B3C2B352B312B2B2B252B1F2B192B78
:102A9000102B0D2B072B032BF42AE42AD42AC42A4B
:102AA000B42AA42A41542B694D4143413F0D0A25C4
:102AB000730D0A0041542B69574C53493F0D0A25A9
:102AC000730D0A0041542B69444E53323F0D0A25C1
:102AD000730D0A0041542B69444E53313F0D0A25B2
:102AE000730D0A0041542B69534E45543F0D0A257E
:102AF000730D0A0041542B694950473F0D0A257355
:102B00000D0A00256429000D0A2E0D0A00202C0054
:102B100056455253494F4E3A0053495A453A005090
:102B20004154483A0046494C453A00492F300D0A75
:102B300000202C29002573253031750041542B6964
:102B400021727031300D0A492F4F4B0025303275FC
:102B5000253032752D253032752D253032755425AE
:102B60003032753A253032753A253032752B2530A2
:102B700032753A2530327500492F25753A00257592
:102B80002900257325733A25732C256C753A00228C
:102B900025733A2F2F25733A25732F257322003082
:102BA0002E302E302E300041542B694950413F0DBC
:102BB0000A25730D0A0041542B69525031300D0A19
:102BC000492F2825752C25752C25752C2575290050
:102BD000290D0A00256C750D0A004552524F5220EE
:102BE00028000D0A00492F256C750D0A00492F4554
:102BF00052524F5220282575290D0A00202825758C
:102C00002900EF2DEC2DE72DE22DDE2DDA2DD62D2E
:102C1000D12DCD2DC82D9C2D8C2D872D832D7E2D36
:102C20007A2D752D702D6B2D662D612D5C2D572DF8
:102C3000522D4D2D482D432D3F2D3B2D352D302D23
:102C40002B2D262D212D1C2D182D132D0E2D0A2D4B
:102C5000052D002DFB2CF62CF12CED2CE92CE52C70
:102C6000DF2CDB2CD62CD12CCC2CC92CC52CC02C89
:102C7000BB2CB72CB22CAD2CA82CA32C9E2C992CA1
:102C8000952C912C8D2C882C4D4143410053534C55
:102C900000525031002D2D2D004450535A005354F2
:102CA000415000464F50530057505349005753521C
:102CB00048005753524C0046444C0046435744008A
:102CC000464D4B440043545400434100574C505729
:102CD0000057524F4D005250323000575349002197
:102CE0005250313000525034002B2B2B00525038B0
:102CF00000474D544F004E544F44004E5453320041
:102D00004E54533100534E45540049504700444EF1
:102D1000533200444E5331004449500053434C5306
:102D200000534653480053444D500047504E4D0009
:102D3000535243560053534E4425005343530053BC
:102D40005354004C535354004C5443500053554477
:102D50005000535443500046434C460046534E44A3
:102D6000004641504E004653544F004244524100E9
:102D700046434C5300465243560046535A00464F72
:102D8000504E0055524C00534C4E4B002225733A86
:102D90002F2F25733A25732F257322002225733A8E
:102DA0002F2F25733A25732F676574706F73745FC7
:102DB0006672616D655F7061727365722E706870A6
:102DC0003F6672616D653D00524C4E4B004950416B
:102DD0000050494E470057505000574B5900575329
:102DE0005400444F574E00574C534900464400523C
:102DF000503130005B5057525D204E6F6973652033
:102E0000696E20496E74657272757074696F6E2098
:102E10006C696E65005B5057525D20646565705348
:102E20006C65657020525443206572726F72004960
:102E30006E636F727265637420696E707574207052
:102E40006172616D65746572730A005B5254435D13
:102E5000200057726F6E672074696D6520666F720F
:102E60006D61742E204D7573742062652022646438
:102E70003A68683A6D6D3A7373220A005B525443A4
:102E80005D20000F30FA2FE42FD42FC72FBD2FADB8
:102E90002F982F812F6F2F632F5C2F4A2F372F2AC8
:102EA0002F202F102FED2EE72EBE2EAD2E5B2530BE
:102EB00032753A253032753A253032755D0025304D
:102EC00032752563253032752563253032752563CB
:102ED00025303275256325303275256325303275EE
:102EE000256325303275006572726F720025732C70
:102EF00020253032752F253032752F253032752C34
:102F000020253032753A253032753A253032750039
:102F10004F6E636520706572206D696E7574650013
:102F20005B6D6D5D202D2D3E20005B68683A6D6DF8
:102F30005D202D2D3E20005B446174652C20686867
:102F40003A6D6D5D202D2D3E20005B4461792C2073
:102F500068683A6D6D5D202D2D3E20005B25303276
:102F6000755D005B253032753A253032755D005B4A
:102F7000253032752C20253032753A253032755D7A
:102F8000005B253032752C20253032753A253032E1
:102F9000753A253032755D00496E636F72726563F4
:102FA0007420616C61726D206D6F6465004F6E639B
:102FB0006520706572207365636F6E64005B737368
:102FC0005D202D2D3E20005B6D6D3A73735D202DCD
:102FD0002D3E20005B68683A6D6D3A73735D202D5D
:102FE0002D3E20005B446174652C2068683A6D6D4D
:102FF0003A73735D202D2D3E20005B4461792C20B7
:1030000068683A6D6D3A73735D202D2D3E20004146
:103010006C61726D206D61746368657320005B5331
:10302000445D20496E76616C69642066696C656EEA
:10303000616D65007C3C3E5E2B3D3F2F5B5D3B2C14
:103040002A225C00000008090000000000000000C7
:103050000000000000000000000000000000000070
:103060000000000000000000000000000000000060
:1030700000000000000000000001020810102040C5
:103080008004081020400202040810204080010241
:1030900080204004200101020408102001408040EB
:1030A00080010208040880041004020108100505CC
:1030B00005050303030301010104040306060606D4
:1030C00006060606010405010501030202020202CA
:1030D00002010202050504040304040103040707B6
:1030E00007070700202326292C2F32002225282B12
:1030F0002E3134002124272A2D30336364696E6F0A
:1031000070737578585B00001A28C628993ADA451A
:103110009554D75BBB5D7763697E11241FBECFEFEB
:10312000D1E2DEBFCDBF15E0A0E0B2E0E6ECF7E112
:1031300001E00BBF02C007900D92AA3EB107D9F77C
:1031400029E1AAEEB5E001C01D92A230B207E1F775
:1031500018E1CDE8D8E104C02197FE010E94BC82AD
:10316000C438D107C9F70E94B8670C94E18B0C945E
:103170000000EF92FF920F931F93CF930E94323F74
:103180006093F8057093F9058093FA059093FB0519
:103190006091F7058EE69AE00E94A82B80930806BE
:1031A00010920C0610920B0680910806811103C044
:1031B0006BE07BE002C069EE7AE08CEA92E10E946B
:1031C00060638EE69AE00E94F62FC82F8093070670
:1031D000813009F07AC064ED7AE08CEA92E10E94D5
:1031E000386369EC7AE08CEA92E10E9438630E94CD
:1031F000323F0091F8051091F9052091FA053091C0
:10320000FB05AB01BC01401B510B620B730B8CEA3D
:1032100092E10E94DA626FE97AE08CEA92E10E9420
:1032200038630E94323F6093F8057093F9058093EC
:10323000FA059093FB05E0902807F090290708E233
:1032400016E027E532E04AE552E067E672E08EE6F6
:103250009AE00E94053080930806811129C067E931
:103260007AE08CEA92E10E946063C093020668E70C
:103270007AE08CEA92E10E9438630E94323F00912A
:10328000F8051091F9052091FA053091FB05AB0185
:10329000BC01401B510B620B730B8CEA92E10E9444
:1032A000DA6264E67AE08CEA92E10E9460632DC003
:1032B00064E47AE08CEA92E10E9460631092020674
:1032C0008EE69AE00E94902920C06CE27AE08CEAB7
:1032D00092E10E94386361E27AE08CEA92E10E9416
:1032E00038630E94323F0091F8051091F905209152
:1032F000FA053091FB05AB01BC01401B510B620B81
:10330000730B8CEA92E10E94DA62809102068111CD
:1033100011C080910C0290E020910B0630910C06B8
:10332000821793073CF068E873E180E090E00E9428
:10333000613F3ACF6091F7058EE69AE00E94872BB5
:103340006DE07AE08CEA92E10E9460630E94323F75
:103350000091FC051091FD052091FE053091FF05BF
:10336000601B710B820B930B28EE33E040E050E0C2
:103370000E947B8230930C0620930B0666E273E07A
:103380008CEA92E10E94C16160910B0670910C067B
:103390008CEA92E1CF911F910F91FF90EF900C94E6
:1033A0007F628AEE90E10E944C568091010688234C
:1033B00099F064E972E08AEE90E10E94CF58809320
:1033C0000306813019F460E07AE002C06FEE79E024
:1033D0008CEA92E10E94606364E972E08AEE90E117
:1033E0000E947E5B80930306813019F462EE79E0DF
:1033F00002C061ED79E08CEA92E10E9460636FE3C4
:1034000073E08CEA92E10E94C16160910A027091BE
:103410000B028CEA92E10E947F6245E553E064E989
:1034200072E08AEE90E10E94235B80930306813074
:1034300019F462EC79E002C067EA79E08CEA92E183
:103440000C946063EF92FF920F931F93CF93DF93DF
:103450007C01162F03E020E040E062EA73E085E59E
:1034600090E10E94804A8AEE90E10E944C5687E5E6
:1034700090E10E940C4E9093100680930F0660EA34
:1034800079E08CEA92E10E94386360910F067091B6
:1034900010068CEA92E10E944D6280916B1090E0E0
:1034A00090930E0680930D064AE064E076E00E9459
:1034B000C48480910D0690910E060A973CF4809189
:1034C00004068093050680E38093040644E056E0FA
:1034D000B7018AEE90E10E94975A082F8093030665
:1034E00048EE55E0B7018AEE90E10E94975A80932A
:1034F0000306C82FD0E0C00FD11D80916C1090E062
:1035000090930E0680930D064AE064E076E00E94F8
:10351000C48480910D0690910E060A973CF4809128
:1035200004068093050680E38093040644E056E099
:10353000B7018AEE90E10E94975A80930306C80F64
:10354000D11D48EE55E0B7018AEE90E10E94975AEE
:1035500080930306C80FD11D8091711090E0909365
:103560000E0680930D064AE064E076E00E94C48473
:1035700080910D0690910E060A973CF48091040606
:103580008093050680E38093040644E056E0B7018B
:103590008AEE90E10E94975A80930306C80FD11DCE
:1035A00048EE55E0B7018AEE90E10E94975A809369
:1035B0000306C80FD11D80916E1090E090930E0607
:1035C00080930D064AE064E076E00E94C484809116
:1035D0000D0690910E060A973CF4809104068093A4
:1035E000050680E38093040644E056E0B7018AEEC6
:1035F00090E10E94975A80930306C80FD11D48EEB0
:1036000055E0B7018AEE90E10E94975A8093030635
:10361000C80FD11D80916F1090E090930E0680939B
:103620000D064AE064E076E00E94C48480910D06B5
:1036300090910E060A973CF480910406809305064B
:1036400080E38093040644E056E0B7018AEE90E1FF
:103650000E94975A80930306C80FD11D48EE55E08B
:10366000B7018AEE90E10E94975A80930306C80F33
:10367000D11D8091701090E090930E0680930D06FE
:103680004AE064E076E00E94C48480910D06909147
:103690000E060A973CF4809104068093050680E3A9
:1036A0008093040644E056E0B7018AEE90E10E9460
:1036B000975A80930306C80FD11D42ED55E0B7011C
:1036C0008AEE90E10E94975A80930306C80FD11D9D
:1036D000209128073091290748E256E0B7018AEE89
:1036E00090E10E94BB5A80930306C80FD11D42EDA2
:1036F00055E0B7018AEE90E10E94975A8093030645
:10370000C80FD11D4AE064E076E0812F90E00E946E
:10371000C48444E056E0B7018AEE90E10E94235B46
:1037200080930306C80FD11D8AEE90E10E94B05528
:10373000CF30D10519F46EEA73E010C06CEC73E081
:103740008CEA92E10E94C1616FE070E06C1B7D0B1E
:103750008CEA92E10E94016264EC73E08CEA92E1EF
:10376000DF91CF911F910F91FF90EF900C944D62DC
:103770000F931F936091F7058EE69AE00E94A82BA5
:1037800080930806811103C06AE177E002C065EF0B
:1037900076E08CEA92E10E9460630E94323F60937F
:1037A000F8057093F9058093FA059093FB058EE672
:1037B0009AE00E94F62F80930706813049F46DED60
:1037C00076E08CEA92E10E94386362ED76E008C010
:1037D00067EB76E08CEA92E10E9438636CEA76E06F
:1037E0008CEA92E10E9438630E94323F0091F80512
:1037F0001091F9052091FA053091FB05AB01BC0150
:10380000401B510B620B730B8CEA92E10E94DA624F
:1038100080910706813021F58EE69AE00E941835E6
:1038200080930806811110C062E976E08CEA92E18B
:103830000E94386387E590E10E940C4EBC018CEA3F
:1038400092E10E944D620CC066E676E08CEA92E15D
:103850000E9460638EE69AE00E949029109207060B
:103860006091F7058EE69AE00E94872B6FE476E080
:103870008CEA92E10E9460636BE376E08CEA92E16D
:103880000E94606360E177E280E090E01F910F9119
:103890000C94613F81E08093080680910806813096
:1038A000A1F46091F7058EE69AE00E94A82B809320
:1038B0000806811103C067E276E002C062E076E0AC
:1038C0008CEA92E10E946063E8CF81E08093080671
:1038D00080910806813091F48EE69AE00E94202CB7
:1038E00080930806811103C069EE75E002C06AEC9E
:1038F00075E08CEA92E10E946063EACF81E08093F8
:103900000806809108068130A1F468E172E08EE635
:103910009AE00E94662C80930806811103C065EB33
:1039200075E002C06DE975E08CEA92E10E94606387
:10393000E8CF81E080930806809108068130A9F4E1
:103940004DE052E064E08EE69AE00E948E2D809376
:103950000806811103C066E875E002C06CE675E0F8
:103960008CEA92E10E946063E7CF8EE69AE00E94C3
:10397000932D80930806811103C067E575E002C0AE
:103980006FE375E08CEA92E10E94606363E175E0A9
:103990008CEA92E10E9460636AEE74E08CEA92E144
:1039A0000E94606360EC74E08CEA92E10E946063C4
:1039B00064E974E08CEA92E10E94606367E674E077
:1039C0008CEA92E10C9460630F931F938091070639
:1039D00081113EC00E944A1C0E94323F6093F8054C
:1039E0007093F9058093FA059093FB058EE69AE0B3
:1039F0000E94F62F80930706813049F468E879E049
:103A00008CEA92E10E9438636DE779E008C062E6D3
:103A100079E08CEA92E10E94386367E579E08CEA0C
:103A200092E10E9438630E94323F0091F8051091A4
:103A3000F9052091FA053091FB05AB01BC01401B53
:103A4000510B620B730B8CEA92E10E94DA62BECFDB
:103A5000813009F086C04AE752E061E08EE69AE0E4
:103A60000E948F3380930806811107C06EE379E0CE
:103A70008CEA92E10E9460630CC062E179E08CEA1A
:103A800092E10E9460638EE69AE00E949029109273
:103A900007064DE652E062E08EE69AE00E948F3320
:103AA00080930806811107C069EF78E08CEA92E103
:103AB0000E9460630CC06DEC78E08CEA92E10E9499
:103AC00060638EE69AE00E9490291092070680912A
:103AD00007068130E1F461E08EE69AE00E94F3335C
:103AE00080930806811107C06DE978E08CEA92E1C5
:103AF0000E9460630CC06CE678E08CEA92E10E9460
:103B000060638EE69AE00E949029109207068091E9
:103B10000706813031F560916C028EE69AE00E94D2
:103B2000583480930806811112C068E578E08CEA69
:103B300092E10E94386340916C0250E060E070E0D6
:103B40002AE030E08CEA92E10E94FC620AC063E362
:103B500078E08CEA92E10E9460638EE69AE00E942F
:103B6000902967EF77E08CEA92E10E94606362EC53
:103B700077E08CEA92E10E94606360E977E08CEA8A
:103B800092E10E9460636BE677E08CEA92E10E942A
:103B900060636EE277E08CEA92E11F910F910C94E2
:103BA00060630E94B9186091020684E992E00C9467
:103BB000221A80EB92E10E9404678093EC0588232F
:103BC00051F08130B1F462E474E08CEA92E10E9439
:103BD000606343E015C063E574E08CEA92E10E9403
:103BE000386343E06CED75E080EB92E10E949A63EC
:103BF0000DC067E374E08CEA92E10E94606341E0EB
:103C00006CED75E080EB92E10E94D0636DEE75E0A3
:103C100080EB92E10E948B6767E174E08CEA92E1AD
:103C20000E9460636AE074E08CEA92E10E9438636B
:103C30006DEE75E08CEA92E10E944D6268EF73E0F0
:103C40008CEA92E10E94386380EB92E10E94AC67BB
:103C5000482F50E060E070E02AE030E08CEA92E12A
:103C60000E94FC6268ED73E08CEA92E10C94606360
:103C70008F929F92AF92BF92CF92DF92EF92FF927C
:103C80000F931F93CF93DF93EC017B016A018901AE
:103C90006091F7058EE69AE00E94A82B80930806B3
:103CA000811103C064EC73E002C06FE973E08CEA39
:103CB00092E10E9460630E94323F6093F805709326
:103CC000F9058093FA059093FB058EE69AE00E9431
:103CD000F62F80930706813009F073C067E873E020
:103CE0008CEA92E10E9438636CE773E08CEA92E11F
:103CF0000E9438630E94323F8090F8059090F90549
:103D0000A090FA05B090FB05AB01BC014819590918
:103D10006A097B098CEA92E10E94DA6264E673E048
:103D20008CEA92E10E94606364E473E08CEA92E1C1
:103D30000E94606367E373E08CEA92E10E9438635B
:103D400060910F0E7091100E8CEA92E10E946362F6
:103D500065E273E08CEA92E10E9438636091110E93
:103D60007091120E8CEA92E10E94636264E173E04A
:103D70008CEA92E10E9438636091130E7091140EE8
:103D80008CEA92E10E94636264EF72E08CEA92E155
:103D90000E94606360EE72E08CEA92E10E946063D0
:103DA0009601A701BE018EE69AE00E948F378093AC
:103DB00008068EE69AE00E94902943E064E175E0EF
:103DC00023C065EC72E08CEA92E10E9438636AEBF2
:103DD00072E08CEA92E10E9438630E94323F0091C7
:103DE000F8051091F9052091FA053091FB05AB011A
:103DF000BC01401B510B620B730B8CEA92E10E94D9
:103E0000DA624AE068EC70E080EB92E10E949A632B
:103E10006091F7058EE69AE00E94872B65EA72E0D2
:103E20008CEA92E10E9460636EE872E08CEA92E1B3
:103E30000E9460636CE772E08CEA92E10E94386352
:103E400080EB92E10E94AC67482F50E060E070E0A8
:103E50002AE030E08CEA92E10E94FC6268EE73E0B6
:103E600080E090E0DF91CF911F910F91FF90EF9054
:103E7000DF90CF90BF90AF909F908F900C94613F58
:103E80008CEA92E10E943B6187E590E10E947250CA
:103E900066E772E08CEA92E10E94606360912B0217
:103EA00080EB92E10E94A86764E672E08CEA92E1FE
:103EB0000E94386380EB92E10E94AC67482F50E08B
:103EC00060E070E02AE030E08CEA92E10E94FC625F
:103ED00068E873E180E090E00E94613F0E94D91D94
:103EE0000E94E41C68E873E180E090E00E94613F7A
:103EF00080910006882339F061EE73E087E590E158
:103F00000E94DB5053C080910706813009F043C006
:103F10008EE69AE00E94183580930806811110C041
:103F20006AE472E08CEA92E10E94386387E590E1EE
:103F30000E940C4EBC018CEA92E10E944D622BC0A3
:103F40006EE172E08CEA92E10E9460638EE69AE094
:103F50000E949029109207061EC0809107068111C9
:103F600025C00E94B81B68E172E08CEA92E10E94D1
:103F700060636091EA057091EB056F5F7F4F70930E
:103F8000EB056093EA058CEA92E10E9401628CEAFB
:103F900092E10E9440622091EA053091EB05809108
:103FA00023029091240228173907BCF262E072E0E4
:103FB0008CEA92E10E94386387E590E10E940C4E02
:103FC000BC018CEA92E10E944D626FED71E08CEAD7
:103FD00092E10E9460630E94D1198CEA92E10C94F4
:103FE0003B610F930E94323F6093FC057093FD0587
:103FF0008093FE059093FF0545E252E061E081E188
:1040000096E00E94942785E590E10E94B648482FEB
:1040100050E064E381E196E00E94BA2281E196E0FB
:104020000E94A12781E196E00E94FC200E94D11D00
:104030002CE232E049E352E067E472E08AE492E085
:104040000E94381E80910A0290910B0220910B066B
:1040500030910C06821B930B05978A30910514F45E
:104060008FE090E090930A068093090666EF73E074
:104070008CEA92E10E94C1616091090670910A0682
:104080008CEA92E10E947F628091090690910A0673
:104090006CE370E00E94678290930E0680930D0699
:1040A0004AE064E076E00E94C48480910D0690911D
:1040B0000E060A973CF4809104068093050680E37F
:1040C00080930406809104068093910280910506F6
:1040D000809392028091090690910A062CE330E0C9
:1040E000B9010E946782CB01B9010E946782909357
:1040F0000E0680930D064AE064E076E00E94C484D8
:1041000080910D0690910E060A973CF4809104066A
:104110008093050680E380930406809104068093D3
:104120008E028091050680938F02809109069091FE
:104130000A0620E13EE0B9010E946782CB01B90185
:104140000E94678290930E0680930D064AE064E019
:1041500076E00E94C48480910D0690910E060A9725
:104160003CF4809104068093050680E38093040666
:104170008091040680938B028091050680938C02C7
:1041800068EC71E08CEA92E10E9460636EEF74E08B
:104190008CEA92E10E94C16168E872E08CEA92E1E7
:1041A0000E94C1616EEF74E08CEA92E10E944D6260
:1041B00063E074E08CEA92E10E944D628CEA92E145
:1041C0000E944F6103E020E040E068E872E085E58E
:1041D00090E10E94804A8CEA92E10E943B616FE389
:1041E00071E08CEA92E10E94606360E371E08CEA26
:1041F00092E10F910C946063CF92DF92EF92FF9265
:104200000F931F93CF93DF93EC018CEA92E10E940E
:104210006E610FE110E060E08DE30E94A442015066
:104220001109C9F760E08DE00E94A44260E08AE0D5
:104230000E94A4428981813021F460E083E794E008
:104240000CC0811104C060E081E894E006C08230B7
:1042500009F095C060E080E994E00E94B14260E01E
:1042600082EA94E00E94B14260E08CEA94E00E940D
:10427000B1427E0189EEE81A8EEFF80AF7016081FB
:10428000718180E090E000E02AE030E040E050E022
:104290000E94C14260E08DE00E94A44260E08AE09A
:1042A0000E94A44260E085EB94E00E94B1426A8DD6
:1042B00070E080E090E02AE030E040E050E00E94D2
:1042C000C14260E08DE00E94A44260E08AE00E946A
:1042D000A44260E083EC94E00E94B14267966E01D4
:1042E00000E010E0F7018081918160E00817190774
:1042F00040F4F60181916F010E9445430F5F1F4F0B
:10430000F1CF8DE00E94A44260E08AE00E94A442C6
:1043100060E081ED94E00E94B14200E010E0F7011E
:104320008081918160E00817190730F489910E941B
:10433000A4420F5F1F4FF3CF8DE00E94A44260E0C4
:104340008AE00E94A442CFE1D0E060E08DE30E94C9
:10435000A4422197D1F760E08DE00E94A44260E082
:104360008AE00E94A4428CEA92E1DF91CF911F91F2
:104370000F91FF90EF90DF90CF900C949361DF91BD
:10438000CF911F910F91FF90EF90DF90CF90089504
:10439000FF920F931F93CF93DF93062FF42E122FCC
:1043A0002091B112A62FB0E0273480F0FC012689BD
:1043B000FD01273019F4E851FB4E0BC0283019F4E9
:1043C000E252F34F06C0E757F24E03C0FD01EE5232
:1043D000FC4DC591D491C13069F5F1E0FF1508F0AD
:1043E00059C068EE7BE08CEA92E10E94386362EC8F
:1043F0007BE08CEA92E10E943863402F50E060E05D
:1044000070E02AE030E08CEA92E10E9407626FEBF4
:104410007BE08CEA92E10E9438632AE030E041E0E0
:1044200050E060E070E08CEA92E10E9407626AEB83
:104430007BE02AC0CF1571F161EB7BE08CEA92E161
:104440000E9438636BE87BE08CEA92E10E9438635B
:10445000402F50E060E070E02AE030E08CEA92E12A
:104460000E9407626FE77BE08CEA92E10E9438636A
:104470004C2F50E060E070E02AE030E08CEA92E1FE
:104480000E94076260E77BE08CEA92E10E94386359
:104490004F2D49C02091B112273480F0FC0186894C
:1044A000FD01873019F4E851FC4E0BC0883019F437
:1044B000EF50F44F06C0EF53F34E03C0FD01EC5D27
:1044C000FC4D85919491C82F8117C1F167E67BE07F
:1044D0008CEA92E10E94386367E37BE08CEA92E128
:1044E0000E943863402F50E060E070E02AE030E046
:1044F0008CEA92E10E9407626BE27BE08CEA92E137
:104500000E9438634C2F50E060E070E02AE030E019
:104510008CEA92E10E9407626CE17BE08CEA92E116
:104520000E943863412F50E060E070E02AE030E004
:104530008CEA92E10E94FC628FEF01C081E0DF9182
:10454000CF911F910F91FF900895FC01E95EFE4FFE
:1045500020813181620F731FDC0112968D919C9135
:1045600013978617970720F07183608381E0089581
:1045700080E008956F927F928F929F92AF92BF9248
:10458000CF92DF92EF92FF920F931F93CF93DF931F
:10459000CDB7DEB7A8970FB6F894DEBF0FBECDBF7C
:1045A0008C01F62E5A016C0127EEC21A2EEFD20AA8
:1045B000D6018C918E3109F418C1F80181818130C6
:1045C00009F087C08091B112E62FF0E09E012F5FC5
:1045D0003F4F7901873490F0D80156968C91EE0FB9
:1045E000FF1F873019F4E851FA4E0CC0883019F4D7
:1045F000E553F24F07C0EF5AF14E04C0EE0FFF1F14
:10460000E058FB4D65917491C7010E9422844E01D0
:10461000B5E18B0E911C4AE0B401C5010E94C4842F
:10462000F70101900020E9F73197BF016E197F096A
:10463000F40101900020E9F73197E819F9096E0FAC
:104640007F1F6E5F7F4FC8010E94A522882309F457
:1046500064C0F801E95EFE4FA080B180F7010190CF
:104660000020E9F73197AF014E195F09F40101907D
:104670000020E9F73197E819F90935016E1A7F0A28
:10468000C501841B950B8E1B9F0B4596B701800FB0
:10469000911F0E944384F801E60DF71D8AE3858B84
:1046A000F40101900020E9F73197AF014819590949
:1046B000C3014696B401800F911F0E944384F80104
:1046C000EA0DFB1D83E2868BF60180818F5F80837C
:1046D00084C021E04F3F510509F00CF540E06F2DFB
:1046E000C8010E94C8218F3FC1F08091B112EF2D07
:1046F000F0E08734F0F0D80156968C91873089F439
:10470000E851FB4E859194918130C1F563E070E0F2
:10471000C8010E94A52281110FC08FEF67C041E040
:10472000DECF883019F4E252F34FECCFE757F24E68
:10473000E9CFEE52FC4DE6CFF801E95EFE4F208155
:104740003181F801E20FF31FF48AA58AB68A178A2D
:10475000F60180818E31D0F590E0AC01440F551FF9
:10476000840F951F800F911FFC01E651FE4F1082B0
:10477000319623502083319683E027C062E070E0B9
:10478000C8010E94A522882341F2F801E95EFE4F8C
:1047900020813181F801E20FF31FF58AA68A178A7A
:1047A000D6018C918E3190F490E0AC01440F551FEE
:1047B000840F951F800F911FFC01E651FE4F108260
:1047C000319622502083319682E08083F6018081E9
:1047D0008F5F8083809128078550D8015B968C93EA
:1047E000F801E95EFE4F808101C080E0A8960FB617
:1047F000F894DEBF0FBECDBFDF91CF911F910F9117
:10480000FF90EF90DF90CF90BF90AF909F908F90F0
:104810007F906F9008956F927F928F929F92AF9248
:10482000BF92CF92DF92EF92FF920F931F93CF939D
:10483000DF93CDB7DEB7A8970FB6F894DEBF0FBEF3
:10484000CDBF5C0177EEA71A7EEFB70AD5017C9148
:104850007E3109F4D6C04A013901F62E8C01FC01E3
:104860008181813009F08BC08091B112E62FF0E098
:104870009E012F5F3F4F7901873490F0D801569603
:104880008C91EE0FFF1F873019F4E851FA4E0CC0DF
:10489000883019F4E553F24F07C0EF5AF14E04C0C7
:1048A000EE0FFF1FE058FB4D65917491C7010E9408
:1048B00022846E01B5E1CB0ED11C2AE0A601B30122
:1048C000C4010E94EC84F70101900020E9F73197C0
:1048D000BF016E197F09F60101900020E9F73197B9
:1048E000EC19FD096E0F7F1F6E5F7F4FC8010E949C
:1048F000A522882309F44AC0F801E95EFE4F8080B2
:104900009180F70101900020E9F73197AF014E192E
:104910005F09F60101900020E9F73197EC19FD09D4
:1049200034016E1A7F0AC401841B950B8E1B9F0BEA
:104930004596B701800F911F0E944384F801E60D50
:10494000F71D8AE3858BF60101900020E9F7319786
:10495000AF014C195D09C3014696B601800F911F46
:104960000E944384F801E80DF91D83E2868BF5016E
:1049700080818F5F8083D8015B968C933DC021E05E
:1049800044E0C8010E94C8218F3F11F48FEF3AC064
:1049900065E070E0C8010E94A5228823B9F3F80100
:1049A000E95EFE4F20813181F801E20FF31FF28AA8
:1049B000638A748A858A968A178AF50140814E3106
:1049C00098F4842F90E0BC01660F771F860F971F25
:1049D000800F911FFC01E651FE4F10823196255049
:1049E0002083319685E080834F5FD5014C93809181
:1049F00028078550F801838FF801E95EFE4F80811A
:104A000001C080E0A8960FB6F894DEBF0FBECDBF00
:104A1000DF91CF911F910F91FF90EF90DF90CF909A
:104A2000BF90AF909F908F907F906F900895AF92BE
:104A3000BF92CF92DF92EF92FF920F931F93CF938B
:104A4000DF931F92CDB7DEB76C01F62E03E910E0BD
:104A500060E0C80179830E94D38B0F5F1F4F79817B
:104A6000033A1105A9F7D601149681E1FD011192CF
:104A70008A95E9F70F2D172F5D0183E9E82EF12CB8
:104A80006801F8016081633241F0603231F0C701A2
:104A90000E94D38BF801808105C06FE5C7010E9499
:104AA000D38B8FE5F50180830F5F1F4FF601808167
:104AB000882351F0FFEFEF1AFF0A8FEFA81AB80A08
:104AC000E3EAEE16F104E1F60F90DF91CF911F912A
:104AD0000F91FF90EF90DF90CF90BF90AF9008952F
:104AE000CF92DF92EF92FF920F931F93CF93DF93BA
:104AF0007B01EC01249681E1FE0111928A95E9F790
:104B00006B0100E010E0B8016D567F4F80EB92E141
:104B10000E941A658993F60181936F010F5F1F4F01
:104B20000031110581F7F701108ADF91CF911F91B4
:104B30000F91FF90EF90DF90CF900895CF93DF9388
:104B4000EC0160E083EA90E00E94D38B8FEF90E06D
:104B50009B838A83FE01E158FE4F8CE08083BE0177
:104B60006C5F7F4F81E196E00E9470251D8ADF9186
:104B7000CF91089563EA70E080EB92E10C941A659E
:104B8000AF92BF92CF92DF92EF92FF920F931F935B
:104B9000CF93DF93CDB7DEB765970FB6F894DEBF3E
:104BA0000FBECDBF8C01DC0111966C93119786E08E
:104BB00056968C93F801779680E091E0DF019C0196
:104BC0001D9221503040E1F7ED52FE4F8AE5DF01A2
:104BD0001D928A95E9F7E15DF10910828CE3F801F5
:104BE000878B8DE3808F8EE3818F613009F0FFC06A
:104BF0008091B112873410F480E801C086E8D801B2
:104C00005A968C935A975B961C925B9783E25C96BC
:104C10008C937801B9EEEB1ABEEFFB0A86E090E0C8
:104C2000F701918380838091B1129E012F5F3F4FE6
:104C30006901873460F17091B9126091B812509196
:104C4000B7124091B6123091B5122091B4129091E2
:104C5000B3128091B2121F927F931F926F931F9293
:104C60005F931F924F931F923F931F922F931F9218
:104C70009F931F928F938FED94E09F938F931F923A
:104C800081E18F93DF92CF920E94288517C03091E7
:104C9000B6122091B7129091B8128091B9123F9339
:104CA0002F939F938F9380E095E09F938F931F9214
:104CB00081E18F93DF92CF920E9428850FB6F894FE
:104CC000DEBF0FBECDBFD601F60101900020E9F78F
:104CD0003197EC19FD09CD018C199D098E179F079D
:104CE00078F42D91222361F0F70180819181F80100
:104CF000E80FF91F278B0196F70191838083E4CF9A
:104D0000D7018D919C911197F801E80FF91F23E2CB
:104D1000278B01968D939C93F801349698012C5E15
:104D20003F4F4FE58191811144C0F701808191810E
:104D3000F801E80FF91F23E2A22EA78A0196D701F6
:104D40008D939C93C8010E94BA25B82E6E01B2E1E2
:104D5000CB0ED11C4AE0B60190E00E94C484F6015B
:104D600001900020E9F73197AF014C195D09F70177
:104D7000808191814796B601800F911F0E944384E4
:104D8000F60101900020E9F731979F012C193D09A8
:104D9000D7014D915C911197240F351FF801E20F57
:104DA000F31FA78A2F5F3F4F2D933C9361E06B0D5C
:104DB00087C0D701833241F48D919C91DC01A00F13
:104DC000B11F57964C9307C06D917C91DB01A00FEA
:104DD000B11F57968C93D7018D919C911197019695
:104DE0008D939C93E217F30709F09CCF9ECF61113E
:104DF0008AC08091B112873410F480E001C086E04F
:104E0000F801828F3091B6122091B7129091B812AA
:104E10008091B9124091B112B801695E7E4F7B0159
:104E20004734D8F08091B212848F8091B312858F6D
:104E30008091B412868F8091B512878F8091B612BF
:104E400080A38091B71281A38091B81282A3809130
:104E5000B91283A38DE090E007C0F801348F258F4D
:104E6000968F878F89E090E0D7018D939C93F8010E
:104E7000349698012C5E3F4F4FE58191811125C0FA
:104E8000F70180819181F801E80FF91F23E2278B58
:104E90000196D7018D939C93C8010E94BA25F70112
:104EA00020813181F801E20FF31F878B2F5F3F4F85
:104EB000D7012D933C932550F801238F61E0680FB3
:104EC00083EA90E00E94D38B1EC0D701833241F465
:104ED0008D919C91DC01A00FB11F57964C9307C098
:104EE0006D917C91DB01A00FB11F57968C93D70178
:104EF0008D919C91119701968D939C93E217F307E6
:104F000009F0BBCFBDCF65960FB6F894DEBF0FBEDC
:104F1000CDBFDF91CF911F910F91FF90EF90DF9068
:104F2000CF90BF90AF900895CF93C62FBA0181E183
:104F300096E00E9417256C2F81E196E0CF910C94AA
:104F4000C0258F929F92AF92BF92CF92DF92EF9245
:104F5000FF920F931F93CF93DF93EC0187E590E1CE
:104F60000E94725087E590E10E9432504B015C0133
:104F70008981813091F4A50194016BE7CE01DF9125
:104F8000CF911F910F91FF90EF90DF90CF90BF9046
:104F9000AF909F908F900C940B2465E070E0CE0151
:104FA0000E94A5228823C1F16E0189EEC81A8EEFF6
:104FB000D80AF601E080F180A7014E50510963E262
:104FC00070E0CE0180960E9429848C01009721F127
:104FD000BC016E5F7F4FF5E0EF1AF108AE01495E4C
:104FE0005F4F461B570B4E0D5F1D07960E944C846A
:104FF0008BE7F801828383829482A582B682FE01C8
:10500000E75EFE4F80818F5F808380912807855007
:105010008B8FF601808101C08FEFDF91CF911F91BF
:105020000F91FF90EF90DF90CF90BF90AF909F9047
:105030008F90089581E196E00C949E25CF93DF93A5
:10504000EC0180E092ECA1E0B0E089839A83AB832D
:10505000BC8388E893E1A0E0B0E08D839E83AF83BA
:10506000B88784E690E0A0E0B0E089879A87AB87B4
:10507000BC8781E08D878091F7149091F81484604B
:105080009093F8148093F71461E088E00E946F40D9
:1050900061E088E00E948A4061E082E00E946F4007
:1050A00060E082E00E948A40FE01E553FF4FAE01BE
:1050B0004B565E4FCE01895F9E4F11921192119215
:1050C000119214AE15AE16AE17AE9F0124583F4F85
:1050D000D9011D921D921D921C921397DA011D9207
:1050E0001D92AD01E817F90741F7FE01E355FF4FA7
:1050F000CE0187539F4F11921192E817F907D9F704
:10510000FE01E557FE4F10821182128213823496FF
:10511000108211821282138234961082319610828C
:10512000EF59FF4F1082118212821382389610823B
:105130001182128213823896108211821282138297
:105140003896108211821282138234961082118254
:1051500012821382349610821182128213827C97FB
:10516000108211821282138238961082118212826A
:1051700013821092F914CE0144969F878E8786E998
:1051800090E0998B888BDF91CF91089585E598E029
:105190000C941E288F929F92AF92BF92CF92DF9273
:1051A000EF92FF920F931F93CF93DF93CDB7DEB7AC
:1051B000EA88FB88CC88DD880F8518890C5E1D4F36
:1051C0008CE291E0F8019C01119221503040E1F70E
:1051D000E1EDF2E001900020E9F73197AF01415D88
:1051E000524061ED72E0C8010E948B84F60101908B
:1051F0000020E9F73197AF014C195D09B601C801EC
:105200000E948B841E141F048CF43989323041F0C3
:10521000333049F0313009F062C06DE175E013C000
:105220006BE475E010C064E075E00DC0E114F104BA
:1052300069F42989243029F0253041F466E075E0CD
:1052400002C067E075E0C8010E94658489898150C9
:10525000823008F03FC0FE017696C12CD12CCE14CE
:10526000DF04C4F55F0132E0A30EB11C80809180A1
:105270008114910451F1C114D10429F069E075E061
:10528000C8010E946584F40101900020E9F731977C
:10529000AF0148195909F80101900020E9F7CA0146
:1052A000801B910B8E0F9F1F8B32914028F4B4010D
:1052B000C8010E948B8409C08CE291E0F8019C0136
:1052C000119221503040E1F70AC03FEFC31AD30AD0
:1052D000F501C5CF6BE075E0C8010E946584DF91E0
:1052E000CF911F910F91FF90EF90DF90CF90BF90E3
:1052F000AF909F908F900895CF93DF93EB0163E57C
:105300007AE28CEA92E10E943863AE0160E070E0DC
:105310002AE030E08CEA92E1DF91CF910C94FC62BC
:10532000FC01E05CFC4F608171810C947C29EF9260
:10533000FF920F931F93CF93DF93CDB7DEB76497A0
:105340000FB6F894DEBF0FBECDBF8C01E4E6FAE2E3
:1053500065917491CE0101967C010E94228428EB14
:105360003BE040E050E06FE075E0C8010E9439602A
:105370008823B9F0C801805C9C4F9F938F93FF9264
:10538000EF92F80187858F9386858F930E9495858C
:105390000F900F900F900F900F900F9081E090E082
:1053A00002C080E090E064960FB6F894DEBF0FBEB6
:1053B000CDBFDF91CF911F910F91FF90EF90089596
:1053C000CF92DF92EF92FF920F931F93CF93DF93D1
:1053D000CDB7DEB7A8970FB6F894DEBF0FBECDBF2E
:1053E0008C01E6E6FAE2659174916E0185E1C80EE2
:1053F000D11CC6010E942284E8E6FAE2659174910C
:10540000FE0131967F01CF010E94228420E23EE41A
:1054100040E050E06EE972E0C8010E943960F80196
:10542000811105C0E05CFC4F1182108224C04289CA
:1054300053896685778525EE32E0C8010E94025EB9
:10544000882309F17801F0ECEF1AFCEFFF0AFF92D4
:10545000EF92DF92CF92F80187858F9386858F93A5
:105460000E9495850F900F900F900F900F900F90C6
:10547000019719F480E090E02DC081E090E0F70101
:1054800091838083F7CFF8014289538966857785B8
:1054900021EA32E0C8010E94025E882359F3C80164
:1054A0008C5B9C4F9F938F93FF92EF92F8018785BF
:1054B0008F9386858F930E94958531E020E00F9031
:1054C0000F900F900F900F900F90019709F030E020
:1054D000832F922FA8960FB6F894DEBF0FBECDBFD4
:1054E000DF91CF911F910F91FF90EF90DF90CF90C0
:1054F0000895CF92DF92EF92FF920F931F93CF9375
:10550000DF93CDB7DEB7EC970FB6F894DEBF0FBED2
:10551000CDBF7C01EAE6FAE265917491CE018996ED
:105520000E942284ECE6FAE265917491CE01019624
:105530000E942284EEE6FAE2659174916E0185E1A3
:10554000C80ED11CC6010E94228400E117E220E0AF
:1055500030E0AE014F5F5F4FBE01675D7F4FC70117
:105560000E945060811106C0F701E05CFC4F11827F
:1055700010822EC08130E1F4C7018C5B9C4F9F9359
:105580008F93DF92CF92F70187858F9386858F93D4
:105590000E94958531E020E00F900F900F900F90C2
:1055A0000F900F90019709F030E0832F922F11C0D8
:1055B000823069F4C7010E949729813041F4F701D4
:1055C000E05CFC4F60817181C7010E947C2980E012
:1055D00090E0EC960FB6F894DEBF0FBECDBFDF9122
:1055E000CF911F910F91FF90EF90DF90CF90089592
:1055F000AF92CF92EF92FF920F931F93CF93DF93CF
:10560000CDB7DEB7EB970FB6F894DEBF0FBECDBFB8
:105610007C01E0E8FAE2659174918E010F5F1F4F03
:10562000C8010E9422846EE972E0F70186859785A1
:105630000E94AA84009711F491E059C09E012D5C4C
:105640003F4F3F932F932F5F3F4F3F932F93295F00
:105650003F4F3F932F93215031093F932F93215078
:1056600031093F932F93215031093F932F932150BC
:1056700031093F932F93215031093F932F932150AC
:1056800031093F932F931F930F9302969F938F930C
:105690000E9495850FB6F894DEBF0FBECDBF099767
:1056A00059F68EA9882341F28FA9882329F288AD63
:1056B000882311F287E590E10E947250ABACCAAC2E
:1056C000E9AC28AD30E04FA950E06EA970E087E565
:1056D00090E10E94C34D082F28AD4FA96EA987E520
:1056E00090E10E94E15191E0811101C090E0892F89
:1056F000EB960FB6F894DEBF0FBECDBFDF91CF9112
:105700001F910F91FF90EF90CF90AF900895CF939E
:10571000DF93EC010E94E55D8881811104C080EB7C
:1057200092E10E9456648881813021F480EB92E1FD
:105730000E94AE6440E0688185E590E10E942F49B7
:1057400064E670E080E090E0DF91CF910C94613FDF
:10575000AF92BF92DF92EF92FF920F931F93CF937E
:10576000DF93EC01D62E688380E092ECA1E0B0E0FC
:1057700089839A83AB83BC8382E390E0A0E0B0E0AE
:1057800089879A87AB87BC8722E0A22EB12C8881BB
:10579000811105C080EB92E10E94006508C0813054
:1057A00011F081E043C080EB92E10E940664CE01DB
:1057B0000E94C45D41E0688185E590E10E942F4927
:1057C00064EF71E080E090E00E94613F88810E9478
:1057D0000E4285E0E82EF12C08EE13E020E030E0E8
:1057E0004DEE52E066ED72E0CE010E94205F813006
:1057F000E1F064E670E080E090E00E94613F81E0CB
:10580000E81AF10849F76D2DCE010E94872B68EE4A
:1058100073E080E090E00E94613FAA94AB2809F415
:10582000C0CFAA24A394B12CB2CF80E0DF91CF9156
:105830001F910F91FF90EF90DF90BF90AF90089570
:10584000EF92FF920F931F93CF93DF93CDB7DEB705
:1058500064970FB6F894DEBF0FBECDBF7C01E4E0C5
:10586000FCE2659174918E010F5F1F4FC8010E9489
:1058700022841F930F931F921F9281E08F93FF92B8
:10588000EF920E94CA28B7016C5E7D4F04EF11E0D1
:1058900020E030E04DEE52E0C7010E94205F91E031
:1058A0000FB6F894DEBF0FBECDBF813009F490E093
:1058B000892F64960FB6F894DEBF0FBECDBFDF917F
:1058C000CF911F910F91FF90EF900895CF92DF92AB
:1058D000EF92FF920F931F93CF93DF93CDB7DEB775
:1058E00064970FB6F894DEBF0FBECDBF7C01D62EF5
:1058F000C72EE6E0FCE2659174918E010F5F1F4FA9
:10590000C8010E942284CF92DF921F930F931F92AF
:1059100081E08F938F93FF92EF920E94CA28B70184
:105920006C5E7D4F00E21EE420E030E04DEE52E080
:10593000C7010E94205F91E00FB6F894DEBF0FBE52
:10594000CDBF813009F490E0892F64960FB6F894AA
:10595000DEBF0FBECDBFDF91CF911F910F91FF90A2
:10596000EF90DF90CF9008952F923F924F925F92E9
:105970006F927F928F929F92AF92BF92CF92DF925F
:10598000EF92FF920F931F93CF93DF93CDB7DEB7C4
:10599000C155D1090FB6F894DEBF0FBECDBF7C0153
:1059A000462E62964FAF6297322E232EEAE0FCE23B
:1059B000659174915E012DE3A20EB11CC5010E9498
:1059C0002284E4E8FAE265917491CE0101964C01DB
:1059D0000E9422841F924F92BF92AF929F928F9209
:1059E0001F9284E1582E5F926E0199E2C90ED11C7C
:1059F000DF92CF920E9428853E0125E1620E711C44
:105A00004AE0B30162962FAD6297822F90E00E9428
:105A10000E857F926F92DF92CF921F9281E08F93DB
:105A20008F93FF92EF920E94CA2837018CEE681A7A
:105A30008DEF780A0CE211E020E030E04DEE52E00C
:105A4000B301C7010E94205F182F0FB6F894DEBF84
:105A50000FBECDBF813031F0F701E05CFC4F118209
:105A6000108241C062969FAD6297933028F49130C6
:105A700058F1ECE0FCE207C062962FAD629725304A
:105A800090F5EEE0FCE265917491C5010E942284DC
:105A90001F924F92BF92AF929F928F921F925F92EE
:105AA000DF92CF920E9428852F923F92DF92CF9271
:105AB0001F921F931F93FF92EF920E94CA280FB666
:105AC000F894DEBF0FBECDBF00E21EE420E030E060
:105AD0004DEE52E0B301C7010E94205F813009F012
